{
	"Day4/librarycreationeg2.sol": {
		"StringOperations": {
			"abi": [
				{
					"inputs": [
						{
							"internalType": "string",
							"name": "a",
							"type": "string"
						},
						{
							"internalType": "string",
							"name": "b",
							"type": "string"
						}
					],
					"name": "concatenate",
					"outputs": [
						{
							"internalType": "string",
							"name": "",
							"type": "string"
						}
					],
					"stateMutability": "pure",
					"type": "function"
				},
				{
					"inputs": [
						{
							"internalType": "string",
							"name": "str",
							"type": "string"
						},
						{
							"internalType": "string",
							"name": "delimiter",
							"type": "string"
						}
					],
					"name": "splitString",
					"outputs": [
						{
							"internalType": "string[]",
							"name": "",
							"type": "string[]"
						}
					],
					"stateMutability": "pure",
					"type": "function"
				},
				{
					"inputs": [
						{
							"internalType": "string",
							"name": "str",
							"type": "string"
						},
						{
							"internalType": "string",
							"name": "substring",
							"type": "string"
						}
					],
					"name": "substringExists",
					"outputs": [
						{
							"internalType": "bool",
							"name": "",
							"type": "bool"
						}
					],
					"stateMutability": "pure",
					"type": "function"
				}
			],
			"devdoc": {
				"kind": "dev",
				"methods": {},
				"version": 1
			},
			"evm": {
				"assembly": "    /* \"Day4/librarycreationeg2.sol\":271:1017  contract StringOperations {... */\n  mstore(0x40, 0x80)\n  callvalue\n  dup1\n  iszero\n  tag_1\n  jumpi\n  revert(0x00, 0x00)\ntag_1:\n  pop\n  dataSize(sub_0)\n  dup1\n  dataOffset(sub_0)\n  0x00\n  codecopy\n  0x00\n  return\nstop\n\nsub_0: assembly {\n        /* \"Day4/librarycreationeg2.sol\":271:1017  contract StringOperations {... */\n      mstore(0x40, 0x80)\n      callvalue\n      dup1\n      iszero\n      tag_1\n      jumpi\n      revert(0x00, 0x00)\n    tag_1:\n      pop\n      jumpi(tag_2, lt(calldatasize, 0x04))\n      shr(0xe0, calldataload(0x00))\n      dup1\n      0x10abbf84\n      eq\n      tag_3\n      jumpi\n      dup1\n      0x266001d3\n      eq\n      tag_4\n      jumpi\n      dup1\n      0xf4311138\n      eq\n      tag_5\n      jumpi\n    tag_2:\n      revert(0x00, 0x00)\n        /* \"Day4/librarycreationeg2.sol\":499:652  function substringExists(string memory str, string memory substring) public pure returns (bool) {... */\n    tag_3:\n      tag_6\n      0x04\n      dup1\n      calldatasize\n      sub\n      dup2\n      add\n      swap1\n      tag_7\n      swap2\n      swap1\n      tag_8\n      jump\t// in\n    tag_7:\n      tag_9\n      jump\t// in\n    tag_6:\n      mload(0x40)\n      tag_10\n      swap2\n      swap1\n      tag_11\n      jump\t// in\n    tag_10:\n      mload(0x40)\n      dup1\n      swap2\n      sub\n      swap1\n      return\n        /* \"Day4/librarycreationeg2.sol\":359:495  function concatenate(string memory a, string memory b) public pure returns (string memory) {... */\n    tag_4:\n      tag_12\n      0x04\n      dup1\n      calldatasize\n      sub\n      dup2\n      add\n      swap1\n      tag_13\n      swap2\n      swap1\n      tag_8\n      jump\t// in\n    tag_13:\n      tag_14\n      jump\t// in\n    tag_12:\n      mload(0x40)\n      tag_15\n      swap2\n      swap1\n      tag_16\n      jump\t// in\n    tag_15:\n      mload(0x40)\n      dup1\n      swap2\n      sub\n      swap1\n      return\n        /* \"Day4/librarycreationeg2.sol\":656:1014  function splitString(string memory str, string memory delimiter) public pure returns (string[] memory) {... */\n    tag_5:\n      tag_17\n      0x04\n      dup1\n      calldatasize\n      sub\n      dup2\n      add\n      swap1\n      tag_18\n      swap2\n      swap1\n      tag_8\n      jump\t// in\n    tag_18:\n      tag_19\n      jump\t// in\n    tag_17:\n      mload(0x40)\n      tag_20\n      swap2\n      swap1\n      tag_21\n      jump\t// in\n    tag_20:\n      mload(0x40)\n      dup1\n      swap2\n      sub\n      swap1\n      return\n        /* \"Day4/librarycreationeg2.sol\":499:652  function substringExists(string memory str, string memory substring) public pure returns (bool) {... */\n    tag_9:\n        /* \"Day4/librarycreationeg2.sol\":589:593  bool */\n      0x00\n        /* \"Day4/librarycreationeg2.sol\":605:648  str.toSlice().contains(substring.toSlice()) */\n      tag_23\n        /* \"Day4/librarycreationeg2.sol\":628:647  substring.toSlice() */\n      tag_24\n        /* \"Day4/librarycreationeg2.sol\":628:637  substring */\n      dup4\n        /* \"Day4/librarycreationeg2.sol\":628:645  substring.toSlice */\n      tag_25\n        /* \"Day4/librarycreationeg2.sol\":628:647  substring.toSlice() */\n      jump\t// in\n    tag_24:\n        /* \"Day4/librarycreationeg2.sol\":605:618  str.toSlice() */\n      tag_26\n        /* \"Day4/librarycreationeg2.sol\":605:608  str */\n      dup6\n        /* \"Day4/librarycreationeg2.sol\":605:616  str.toSlice */\n      tag_25\n        /* \"Day4/librarycreationeg2.sol\":605:618  str.toSlice() */\n      jump\t// in\n    tag_26:\n        /* \"Day4/librarycreationeg2.sol\":605:627  str.toSlice().contains */\n      tag_27\n      swap1\n        /* \"Day4/librarycreationeg2.sol\":605:648  str.toSlice().contains(substring.toSlice()) */\n      swap2\n      swap1\n      0xffffffff\n      and\n      jump\t// in\n    tag_23:\n        /* \"Day4/librarycreationeg2.sol\":598:648  return str.toSlice().contains(substring.toSlice()) */\n      swap1\n      pop\n        /* \"Day4/librarycreationeg2.sol\":499:652  function substringExists(string memory str, string memory substring) public pure returns (bool) {... */\n      swap3\n      swap2\n      pop\n      pop\n      jump\t// out\n        /* \"Day4/librarycreationeg2.sol\":359:495  function concatenate(string memory a, string memory b) public pure returns (string memory) {... */\n    tag_14:\n        /* \"Day4/librarycreationeg2.sol\":435:448  string memory */\n      0x60\n        /* \"Day4/librarycreationeg2.sol\":460:491  a.toSlice().concat(b.toSlice()) */\n      tag_29\n        /* \"Day4/librarycreationeg2.sol\":479:490  b.toSlice() */\n      tag_30\n        /* \"Day4/librarycreationeg2.sol\":479:480  b */\n      dup4\n        /* \"Day4/librarycreationeg2.sol\":479:488  b.toSlice */\n      tag_25\n        /* \"Day4/librarycreationeg2.sol\":479:490  b.toSlice() */\n      jump\t// in\n    tag_30:\n        /* \"Day4/librarycreationeg2.sol\":460:471  a.toSlice() */\n      tag_31\n        /* \"Day4/librarycreationeg2.sol\":460:461  a */\n      dup6\n        /* \"Day4/librarycreationeg2.sol\":460:469  a.toSlice */\n      tag_25\n        /* \"Day4/librarycreationeg2.sol\":460:471  a.toSlice() */\n      jump\t// in\n    tag_31:\n        /* \"Day4/librarycreationeg2.sol\":460:478  a.toSlice().concat */\n      tag_32\n      swap1\n        /* \"Day4/librarycreationeg2.sol\":460:491  a.toSlice().concat(b.toSlice()) */\n      swap2\n      swap1\n      0xffffffff\n      and\n      jump\t// in\n    tag_29:\n        /* \"Day4/librarycreationeg2.sol\":453:491  return a.toSlice().concat(b.toSlice()) */\n      swap1\n      pop\n        /* \"Day4/librarycreationeg2.sol\":359:495  function concatenate(string memory a, string memory b) public pure returns (string memory) {... */\n      swap3\n      swap2\n      pop\n      pop\n      jump\t// out\n        /* \"Day4/librarycreationeg2.sol\":656:1014  function splitString(string memory str, string memory delimiter) public pure returns (string[] memory) {... */\n    tag_19:\n        /* \"Day4/librarycreationeg2.sol\":742:757  string[] memory */\n      0x60\n        /* \"Day4/librarycreationeg2.sol\":762:784  strings.slice memory s */\n      0x00\n        /* \"Day4/librarycreationeg2.sol\":787:800  str.toSlice() */\n      tag_34\n        /* \"Day4/librarycreationeg2.sol\":787:790  str */\n      dup5\n        /* \"Day4/librarycreationeg2.sol\":787:798  str.toSlice */\n      tag_25\n        /* \"Day4/librarycreationeg2.sol\":787:800  str.toSlice() */\n      jump\t// in\n    tag_34:\n        /* \"Day4/librarycreationeg2.sol\":762:800  strings.slice memory s = str.toSlice() */\n      swap1\n      pop\n        /* \"Day4/librarycreationeg2.sol\":803:829  strings.slice memory delim */\n      0x00\n        /* \"Day4/librarycreationeg2.sol\":832:851  delimiter.toSlice() */\n      tag_35\n        /* \"Day4/librarycreationeg2.sol\":832:841  delimiter */\n      dup5\n        /* \"Day4/librarycreationeg2.sol\":832:849  delimiter.toSlice */\n      tag_25\n        /* \"Day4/librarycreationeg2.sol\":832:851  delimiter.toSlice() */\n      jump\t// in\n    tag_35:\n        /* \"Day4/librarycreationeg2.sol\":803:851  strings.slice memory delim = delimiter.toSlice() */\n      swap1\n      pop\n        /* \"Day4/librarycreationeg2.sol\":854:875  string[] memory parts */\n      0x00\n        /* \"Day4/librarycreationeg2.sol\":908:909  1 */\n      0x01\n        /* \"Day4/librarycreationeg2.sol\":891:905  s.count(delim) */\n      tag_36\n        /* \"Day4/librarycreationeg2.sol\":899:904  delim */\n      dup4\n        /* \"Day4/librarycreationeg2.sol\":891:892  s */\n      dup6\n        /* \"Day4/librarycreationeg2.sol\":891:898  s.count */\n      tag_37\n      swap1\n        /* \"Day4/librarycreationeg2.sol\":891:905  s.count(delim) */\n      swap2\n      swap1\n      0xffffffff\n      and\n      jump\t// in\n    tag_36:\n        /* \"Day4/librarycreationeg2.sol\":891:909  s.count(delim) + 1 */\n      tag_38\n      swap2\n      swap1\n      tag_39\n      jump\t// in\n    tag_38:\n        /* \"Day4/librarycreationeg2.sol\":878:910  new string[](s.count(delim) + 1) */\n      0xffffffffffffffff\n      dup2\n      gt\n      iszero\n      tag_40\n      jumpi\n      tag_41\n      tag_42\n      jump\t// in\n    tag_41:\n    tag_40:\n      mload(0x40)\n      swap1\n      dup1\n      dup3\n      mstore\n      dup1\n      0x20\n      mul\n      0x20\n      add\n      dup3\n      add\n      0x40\n      mstore\n      dup1\n      iszero\n      tag_43\n      jumpi\n      dup2\n      0x20\n      add\n    tag_44:\n      0x60\n      dup2\n      mstore\n      0x20\n      add\n      swap1\n      0x01\n      swap1\n      sub\n      swap1\n      dup2\n      tag_44\n      jumpi\n      swap1\n      pop\n    tag_43:\n      pop\n        /* \"Day4/librarycreationeg2.sol\":854:910  string[] memory parts = new string[](s.count(delim) + 1) */\n      swap1\n      pop\n        /* \"Day4/librarycreationeg2.sol\":918:924  uint i */\n      0x00\n        /* \"Day4/librarycreationeg2.sol\":927:928  0 */\n      0x00\n        /* \"Day4/librarycreationeg2.sol\":918:928  uint i = 0 */\n      swap1\n      pop\n        /* \"Day4/librarycreationeg2.sol\":913:996  for (uint i = 0; i < parts.length; i++) {... */\n    tag_45:\n        /* \"Day4/librarycreationeg2.sol\":934:939  parts */\n      dup2\n        /* \"Day4/librarycreationeg2.sol\":934:946  parts.length */\n      mload\n        /* \"Day4/librarycreationeg2.sol\":930:931  i */\n      dup2\n        /* \"Day4/librarycreationeg2.sol\":930:946  i < parts.length */\n      lt\n        /* \"Day4/librarycreationeg2.sol\":913:996  for (uint i = 0; i < parts.length; i++) {... */\n      iszero\n      tag_46\n      jumpi\n        /* \"Day4/librarycreationeg2.sol\":967:992  s.split(delim).toString() */\n      tag_48\n        /* \"Day4/librarycreationeg2.sol\":967:981  s.split(delim) */\n      tag_49\n        /* \"Day4/librarycreationeg2.sol\":975:980  delim */\n      dup5\n        /* \"Day4/librarycreationeg2.sol\":967:968  s */\n      dup7\n        /* \"Day4/librarycreationeg2.sol\":967:974  s.split */\n      tag_50\n      swap1\n        /* \"Day4/librarycreationeg2.sol\":967:981  s.split(delim) */\n      swap2\n      swap1\n      0xffffffff\n      and\n      jump\t// in\n    tag_49:\n        /* \"Day4/librarycreationeg2.sol\":967:990  s.split(delim).toString */\n      tag_51\n        /* \"Day4/librarycreationeg2.sol\":967:992  s.split(delim).toString() */\n      jump\t// in\n    tag_48:\n        /* \"Day4/librarycreationeg2.sol\":956:961  parts */\n      dup3\n        /* \"Day4/librarycreationeg2.sol\":962:963  i */\n      dup3\n        /* \"Day4/librarycreationeg2.sol\":956:964  parts[i] */\n      dup2\n      mload\n      dup2\n      lt\n      tag_52\n      jumpi\n      tag_53\n      tag_54\n      jump\t// in\n    tag_53:\n    tag_52:\n      0x20\n      mul\n      0x20\n      add\n      add\n        /* \"Day4/librarycreationeg2.sol\":956:992  parts[i] = s.split(delim).toString() */\n      dup2\n      swap1\n      mstore\n      pop\n        /* \"Day4/librarycreationeg2.sol\":948:951  i++ */\n      dup1\n      dup1\n      0x01\n      add\n      swap2\n      pop\n      pop\n        /* \"Day4/librarycreationeg2.sol\":913:996  for (uint i = 0; i < parts.length; i++) {... */\n      jump(tag_45)\n    tag_46:\n      pop\n        /* \"Day4/librarycreationeg2.sol\":1005:1010  parts */\n      dup1\n        /* \"Day4/librarycreationeg2.sol\":998:1010  return parts */\n      swap4\n      pop\n      pop\n      pop\n      pop\n        /* \"Day4/librarycreationeg2.sol\":656:1014  function splitString(string memory str, string memory delimiter) public pure returns (string[] memory) {... */\n      swap3\n      swap2\n      pop\n      pop\n      jump\t// out\n        /* \"github.com/Arachnid/solidity-stringutils/src/strings.sol\":2919:3129  function toSlice(string memory self) internal pure returns (slice memory) {... */\n    tag_25:\n        /* \"github.com/Arachnid/solidity-stringutils/src/strings.sol\":2979:2991  slice memory */\n      tag_55\n      tag_56\n      jump\t// in\n    tag_55:\n        /* \"github.com/Arachnid/solidity-stringutils/src/strings.sol\":3003:3011  uint ptr */\n      0x00\n        /* \"github.com/Arachnid/solidity-stringutils/src/strings.sol\":3061:3065  0x20 */\n      0x20\n        /* \"github.com/Arachnid/solidity-stringutils/src/strings.sol\":3055:3059  self */\n      dup4\n        /* \"github.com/Arachnid/solidity-stringutils/src/strings.sol\":3051:3066  add(self, 0x20) */\n      add\n        /* \"github.com/Arachnid/solidity-stringutils/src/strings.sol\":3044:3066  ptr := add(self, 0x20) */\n      swap1\n      pop\n        /* \"github.com/Arachnid/solidity-stringutils/src/strings.sol\":3092:3122  slice(bytes(self).length, ptr) */\n      mload(0x40)\n      dup1\n      0x40\n      add\n      0x40\n      mstore\n      dup1\n        /* \"github.com/Arachnid/solidity-stringutils/src/strings.sol\":3104:3108  self */\n      dup5\n        /* \"github.com/Arachnid/solidity-stringutils/src/strings.sol\":3098:3116  bytes(self).length */\n      mload\n        /* \"github.com/Arachnid/solidity-stringutils/src/strings.sol\":3092:3122  slice(bytes(self).length, ptr) */\n      dup2\n      mstore\n      0x20\n      add\n        /* \"github.com/Arachnid/solidity-stringutils/src/strings.sol\":3118:3121  ptr */\n      dup3\n        /* \"github.com/Arachnid/solidity-stringutils/src/strings.sol\":3092:3122  slice(bytes(self).length, ptr) */\n      dup2\n      mstore\n      pop\n        /* \"github.com/Arachnid/solidity-stringutils/src/strings.sol\":3085:3122  return slice(bytes(self).length, ptr) */\n      swap2\n      pop\n      pop\n        /* \"github.com/Arachnid/solidity-stringutils/src/strings.sol\":2919:3129  function toSlice(string memory self) internal pure returns (slice memory) {... */\n      swap2\n      swap1\n      pop\n      jump\t// out\n        /* \"github.com/Arachnid/solidity-stringutils/src/strings.sol\":23812:23992  function contains(slice memory self, slice memory needle) internal pure returns (bool) {... */\n    tag_27:\n        /* \"github.com/Arachnid/solidity-stringutils/src/strings.sol\":23893:23897  bool */\n      0x00\n        /* \"github.com/Arachnid/solidity-stringutils/src/strings.sol\":23976:23980  self */\n      dup3\n        /* \"github.com/Arachnid/solidity-stringutils/src/strings.sol\":23976:23985  self._ptr */\n      0x20\n      add\n      mload\n        /* \"github.com/Arachnid/solidity-stringutils/src/strings.sol\":23916:23972  rfindPtr(self._len, self._ptr, needle._len, needle._ptr) */\n      tag_59\n        /* \"github.com/Arachnid/solidity-stringutils/src/strings.sol\":23925:23929  self */\n      dup5\n        /* \"github.com/Arachnid/solidity-stringutils/src/strings.sol\":23925:23934  self._len */\n      0x00\n      add\n      mload\n        /* \"github.com/Arachnid/solidity-stringutils/src/strings.sol\":23936:23940  self */\n      dup6\n        /* \"github.com/Arachnid/solidity-stringutils/src/strings.sol\":23936:23945  self._ptr */\n      0x20\n      add\n      mload\n        /* \"github.com/Arachnid/solidity-stringutils/src/strings.sol\":23947:23953  needle */\n      dup6\n        /* \"github.com/Arachnid/solidity-stringutils/src/strings.sol\":23947:23958  needle._len */\n      0x00\n      add\n      mload\n        /* \"github.com/Arachnid/solidity-stringutils/src/strings.sol\":23960:23966  needle */\n      dup7\n        /* \"github.com/Arachnid/solidity-stringutils/src/strings.sol\":23960:23971  needle._ptr */\n      0x20\n      add\n      mload\n        /* \"github.com/Arachnid/solidity-stringutils/src/strings.sol\":23916:23924  rfindPtr */\n      tag_60\n        /* \"github.com/Arachnid/solidity-stringutils/src/strings.sol\":23916:23972  rfindPtr(self._len, self._ptr, needle._len, needle._ptr) */\n      jump\t// in\n    tag_59:\n        /* \"github.com/Arachnid/solidity-stringutils/src/strings.sol\":23916:23985  rfindPtr(self._len, self._ptr, needle._len, needle._ptr) != self._ptr */\n      eq\n      iszero\n        /* \"github.com/Arachnid/solidity-stringutils/src/strings.sol\":23909:23985  return rfindPtr(self._len, self._ptr, needle._len, needle._ptr) != self._ptr */\n      swap1\n      pop\n        /* \"github.com/Arachnid/solidity-stringutils/src/strings.sol\":23812:23992  function contains(slice memory self, slice memory needle) internal pure returns (bool) {... */\n      swap3\n      swap2\n      pop\n      pop\n      jump\t// out\n        /* \"github.com/Arachnid/solidity-stringutils/src/strings.sol\":24279:24634  function concat(slice memory self, slice memory other) internal pure returns (string memory) {... */\n    tag_32:\n        /* \"github.com/Arachnid/solidity-stringutils/src/strings.sol\":24357:24370  string memory */\n      0x60\n        /* \"github.com/Arachnid/solidity-stringutils/src/strings.sol\":24382:24399  string memory ret */\n      0x00\n        /* \"github.com/Arachnid/solidity-stringutils/src/strings.sol\":24425:24430  other */\n      dup3\n        /* \"github.com/Arachnid/solidity-stringutils/src/strings.sol\":24425:24435  other._len */\n      0x00\n      add\n      mload\n        /* \"github.com/Arachnid/solidity-stringutils/src/strings.sol\":24413:24417  self */\n      dup5\n        /* \"github.com/Arachnid/solidity-stringutils/src/strings.sol\":24413:24422  self._len */\n      0x00\n      add\n      mload\n        /* \"github.com/Arachnid/solidity-stringutils/src/strings.sol\":24413:24435  self._len + other._len */\n      tag_62\n      swap2\n      swap1\n      tag_39\n      jump\t// in\n    tag_62:\n        /* \"github.com/Arachnid/solidity-stringutils/src/strings.sol\":24402:24436  new string(self._len + other._len) */\n      0xffffffffffffffff\n      dup2\n      gt\n      iszero\n      tag_63\n      jumpi\n      tag_64\n      tag_42\n      jump\t// in\n    tag_64:\n    tag_63:\n      mload(0x40)\n      swap1\n      dup1\n      dup3\n      mstore\n      dup1\n      0x1f\n      add\n      not(0x1f)\n      and\n      0x20\n      add\n      dup3\n      add\n      0x40\n      mstore\n      dup1\n      iszero\n      tag_65\n      jumpi\n      dup2\n      0x20\n      add\n      0x01\n      dup3\n      mul\n      dup1\n      calldatasize\n      dup4\n      calldatacopy\n      dup1\n      dup3\n      add\n      swap2\n      pop\n      pop\n      swap1\n      pop\n    tag_65:\n      pop\n        /* \"github.com/Arachnid/solidity-stringutils/src/strings.sol\":24382:24436  string memory ret = new string(self._len + other._len) */\n      swap1\n      pop\n        /* \"github.com/Arachnid/solidity-stringutils/src/strings.sol\":24446:24457  uint retptr */\n      0x00\n        /* \"github.com/Arachnid/solidity-stringutils/src/strings.sol\":24497:24499  32 */\n      0x20\n        /* \"github.com/Arachnid/solidity-stringutils/src/strings.sol\":24492:24495  ret */\n      dup3\n        /* \"github.com/Arachnid/solidity-stringutils/src/strings.sol\":24488:24500  add(ret, 32) */\n      add\n        /* \"github.com/Arachnid/solidity-stringutils/src/strings.sol\":24478:24500  retptr := add(ret, 32) */\n      swap1\n      pop\n        /* \"github.com/Arachnid/solidity-stringutils/src/strings.sol\":24511:24547  memcpy(retptr, self._ptr, self._len) */\n      tag_66\n        /* \"github.com/Arachnid/solidity-stringutils/src/strings.sol\":24518:24524  retptr */\n      dup2\n        /* \"github.com/Arachnid/solidity-stringutils/src/strings.sol\":24526:24530  self */\n      dup7\n        /* \"github.com/Arachnid/solidity-stringutils/src/strings.sol\":24526:24535  self._ptr */\n      0x20\n      add\n      mload\n        /* \"github.com/Arachnid/solidity-stringutils/src/strings.sol\":24537:24541  self */\n      dup8\n        /* \"github.com/Arachnid/solidity-stringutils/src/strings.sol\":24537:24546  self._len */\n      0x00\n      add\n      mload\n        /* \"github.com/Arachnid/solidity-stringutils/src/strings.sol\":24511:24517  memcpy */\n      tag_67\n        /* \"github.com/Arachnid/solidity-stringutils/src/strings.sol\":24511:24547  memcpy(retptr, self._ptr, self._len) */\n      jump\t// in\n    tag_66:\n        /* \"github.com/Arachnid/solidity-stringutils/src/strings.sol\":24557:24607  memcpy(retptr + self._len, other._ptr, other._len) */\n      tag_68\n        /* \"github.com/Arachnid/solidity-stringutils/src/strings.sol\":24573:24577  self */\n      dup6\n        /* \"github.com/Arachnid/solidity-stringutils/src/strings.sol\":24573:24582  self._len */\n      0x00\n      add\n      mload\n        /* \"github.com/Arachnid/solidity-stringutils/src/strings.sol\":24564:24570  retptr */\n      dup3\n        /* \"github.com/Arachnid/solidity-stringutils/src/strings.sol\":24564:24582  retptr + self._len */\n      tag_69\n      swap2\n      swap1\n      tag_39\n      jump\t// in\n    tag_69:\n        /* \"github.com/Arachnid/solidity-stringutils/src/strings.sol\":24584:24589  other */\n      dup6\n        /* \"github.com/Arachnid/solidity-stringutils/src/strings.sol\":24584:24594  other._ptr */\n      0x20\n      add\n      mload\n        /* \"github.com/Arachnid/solidity-stringutils/src/strings.sol\":24596:24601  other */\n      dup7\n        /* \"github.com/Arachnid/solidity-stringutils/src/strings.sol\":24596:24606  other._len */\n      0x00\n      add\n      mload\n        /* \"github.com/Arachnid/solidity-stringutils/src/strings.sol\":24557:24563  memcpy */\n      tag_67\n        /* \"github.com/Arachnid/solidity-stringutils/src/strings.sol\":24557:24607  memcpy(retptr + self._len, other._ptr, other._len) */\n      jump\t// in\n    tag_68:\n        /* \"github.com/Arachnid/solidity-stringutils/src/strings.sol\":24624:24627  ret */\n      dup2\n        /* \"github.com/Arachnid/solidity-stringutils/src/strings.sol\":24617:24627  return ret */\n      swap3\n      pop\n      pop\n      pop\n        /* \"github.com/Arachnid/solidity-stringutils/src/strings.sol\":24279:24634  function concat(slice memory self, slice memory other) internal pure returns (string memory) {... */\n      swap3\n      swap2\n      pop\n      pop\n      jump\t// out\n        /* \"github.com/Arachnid/solidity-stringutils/src/strings.sol\":23209:23573  function count(slice memory self, slice memory needle) internal pure returns (uint cnt) {... */\n    tag_37:\n        /* \"github.com/Arachnid/solidity-stringutils/src/strings.sol\":23287:23295  uint cnt */\n      0x00\n        /* \"github.com/Arachnid/solidity-stringutils/src/strings.sol\":23307:23315  uint ptr */\n      0x00\n        /* \"github.com/Arachnid/solidity-stringutils/src/strings.sol\":23376:23382  needle */\n      dup3\n        /* \"github.com/Arachnid/solidity-stringutils/src/strings.sol\":23376:23387  needle._len */\n      0x00\n      add\n      mload\n        /* \"github.com/Arachnid/solidity-stringutils/src/strings.sol\":23318:23373  findPtr(self._len, self._ptr, needle._len, needle._ptr) */\n      tag_71\n        /* \"github.com/Arachnid/solidity-stringutils/src/strings.sol\":23326:23330  self */\n      dup6\n        /* \"github.com/Arachnid/solidity-stringutils/src/strings.sol\":23326:23335  self._len */\n      0x00\n      add\n      mload\n        /* \"github.com/Arachnid/solidity-stringutils/src/strings.sol\":23337:23341  self */\n      dup7\n        /* \"github.com/Arachnid/solidity-stringutils/src/strings.sol\":23337:23346  self._ptr */\n      0x20\n      add\n      mload\n        /* \"github.com/Arachnid/solidity-stringutils/src/strings.sol\":23348:23354  needle */\n      dup7\n        /* \"github.com/Arachnid/solidity-stringutils/src/strings.sol\":23348:23359  needle._len */\n      0x00\n      add\n      mload\n        /* \"github.com/Arachnid/solidity-stringutils/src/strings.sol\":23361:23367  needle */\n      dup8\n        /* \"github.com/Arachnid/solidity-stringutils/src/strings.sol\":23361:23372  needle._ptr */\n      0x20\n      add\n      mload\n        /* \"github.com/Arachnid/solidity-stringutils/src/strings.sol\":23318:23325  findPtr */\n      tag_72\n        /* \"github.com/Arachnid/solidity-stringutils/src/strings.sol\":23318:23373  findPtr(self._len, self._ptr, needle._len, needle._ptr) */\n      jump\t// in\n    tag_71:\n        /* \"github.com/Arachnid/solidity-stringutils/src/strings.sol\":23318:23387  findPtr(self._len, self._ptr, needle._len, needle._ptr) + needle._len */\n      tag_73\n      swap2\n      swap1\n      tag_39\n      jump\t// in\n    tag_73:\n        /* \"github.com/Arachnid/solidity-stringutils/src/strings.sol\":23307:23387  uint ptr = findPtr(self._len, self._ptr, needle._len, needle._ptr) + needle._len */\n      swap1\n      pop\n        /* \"github.com/Arachnid/solidity-stringutils/src/strings.sol\":23397:23567  while (ptr <= self._ptr + self._len) {... */\n    tag_74:\n        /* \"github.com/Arachnid/solidity-stringutils/src/strings.sol\":23423:23427  self */\n      dup4\n        /* \"github.com/Arachnid/solidity-stringutils/src/strings.sol\":23423:23432  self._len */\n      0x00\n      add\n      mload\n        /* \"github.com/Arachnid/solidity-stringutils/src/strings.sol\":23411:23415  self */\n      dup5\n        /* \"github.com/Arachnid/solidity-stringutils/src/strings.sol\":23411:23420  self._ptr */\n      0x20\n      add\n      mload\n        /* \"github.com/Arachnid/solidity-stringutils/src/strings.sol\":23411:23432  self._ptr + self._len */\n      tag_76\n      swap2\n      swap1\n      tag_39\n      jump\t// in\n    tag_76:\n        /* \"github.com/Arachnid/solidity-stringutils/src/strings.sol\":23404:23407  ptr */\n      dup2\n        /* \"github.com/Arachnid/solidity-stringutils/src/strings.sol\":23404:23432  ptr <= self._ptr + self._len */\n      gt\n        /* \"github.com/Arachnid/solidity-stringutils/src/strings.sol\":23397:23567  while (ptr <= self._ptr + self._len) {... */\n      tag_75\n      jumpi\n        /* \"github.com/Arachnid/solidity-stringutils/src/strings.sol\":23448:23453  cnt++ */\n      dup2\n      dup1\n      tag_77\n      swap1\n      tag_78\n      jump\t// in\n    tag_77:\n      swap3\n      pop\n      pop\n        /* \"github.com/Arachnid/solidity-stringutils/src/strings.sol\":23545:23551  needle */\n      dup3\n        /* \"github.com/Arachnid/solidity-stringutils/src/strings.sol\":23545:23556  needle._len */\n      0x00\n      add\n      mload\n        /* \"github.com/Arachnid/solidity-stringutils/src/strings.sol\":23473:23542  findPtr(self._len - (ptr - self._ptr), ptr, needle._len, needle._ptr) */\n      tag_79\n        /* \"github.com/Arachnid/solidity-stringutils/src/strings.sol\":23500:23504  self */\n      dup6\n        /* \"github.com/Arachnid/solidity-stringutils/src/strings.sol\":23500:23509  self._ptr */\n      0x20\n      add\n      mload\n        /* \"github.com/Arachnid/solidity-stringutils/src/strings.sol\":23494:23497  ptr */\n      dup4\n        /* \"github.com/Arachnid/solidity-stringutils/src/strings.sol\":23494:23509  ptr - self._ptr */\n      tag_80\n      swap2\n      swap1\n      tag_81\n      jump\t// in\n    tag_80:\n        /* \"github.com/Arachnid/solidity-stringutils/src/strings.sol\":23481:23485  self */\n      dup7\n        /* \"github.com/Arachnid/solidity-stringutils/src/strings.sol\":23481:23490  self._len */\n      0x00\n      add\n      mload\n        /* \"github.com/Arachnid/solidity-stringutils/src/strings.sol\":23481:23510  self._len - (ptr - self._ptr) */\n      tag_82\n      swap2\n      swap1\n      tag_81\n      jump\t// in\n    tag_82:\n        /* \"github.com/Arachnid/solidity-stringutils/src/strings.sol\":23512:23515  ptr */\n      dup4\n        /* \"github.com/Arachnid/solidity-stringutils/src/strings.sol\":23517:23523  needle */\n      dup7\n        /* \"github.com/Arachnid/solidity-stringutils/src/strings.sol\":23517:23528  needle._len */\n      0x00\n      add\n      mload\n        /* \"github.com/Arachnid/solidity-stringutils/src/strings.sol\":23530:23536  needle */\n      dup8\n        /* \"github.com/Arachnid/solidity-stringutils/src/strings.sol\":23530:23541  needle._ptr */\n      0x20\n      add\n      mload\n        /* \"github.com/Arachnid/solidity-stringutils/src/strings.sol\":23473:23480  findPtr */\n      tag_72\n        /* \"github.com/Arachnid/solidity-stringutils/src/strings.sol\":23473:23542  findPtr(self._len - (ptr - self._ptr), ptr, needle._len, needle._ptr) */\n      jump\t// in\n    tag_79:\n        /* \"github.com/Arachnid/solidity-stringutils/src/strings.sol\":23473:23556  findPtr(self._len - (ptr - self._ptr), ptr, needle._len, needle._ptr) + needle._len */\n      tag_83\n      swap2\n      swap1\n      tag_39\n      jump\t// in\n    tag_83:\n        /* \"github.com/Arachnid/solidity-stringutils/src/strings.sol\":23467:23556  ptr = findPtr(self._len - (ptr - self._ptr), ptr, needle._len, needle._ptr) + needle._len */\n      swap1\n      pop\n        /* \"github.com/Arachnid/solidity-stringutils/src/strings.sol\":23397:23567  while (ptr <= self._ptr + self._len) {... */\n      jump(tag_74)\n    tag_75:\n        /* \"github.com/Arachnid/solidity-stringutils/src/strings.sol\":23297:23573  {... */\n      pop\n        /* \"github.com/Arachnid/solidity-stringutils/src/strings.sol\":23209:23573  function count(slice memory self, slice memory needle) internal pure returns (uint cnt) {... */\n      swap3\n      swap2\n      pop\n      pop\n      jump\t// out\n        /* \"github.com/Arachnid/solidity-stringutils/src/strings.sol\":21223:21364  function split(slice memory self, slice memory needle) internal pure returns (slice memory token) {... */\n    tag_50:\n        /* \"github.com/Arachnid/solidity-stringutils/src/strings.sol\":21301:21319  slice memory token */\n      tag_84\n      tag_56\n      jump\t// in\n    tag_84:\n        /* \"github.com/Arachnid/solidity-stringutils/src/strings.sol\":21331:21357  split(self, needle, token) */\n      tag_86\n        /* \"github.com/Arachnid/solidity-stringutils/src/strings.sol\":21337:21341  self */\n      dup4\n        /* \"github.com/Arachnid/solidity-stringutils/src/strings.sol\":21343:21349  needle */\n      dup4\n        /* \"github.com/Arachnid/solidity-stringutils/src/strings.sol\":21351:21356  token */\n      dup4\n        /* \"github.com/Arachnid/solidity-stringutils/src/strings.sol\":21331:21336  split */\n      tag_87\n        /* \"github.com/Arachnid/solidity-stringutils/src/strings.sol\":21331:21357  split(self, needle, token) */\n      jump\t// in\n    tag_86:\n      pop\n        /* \"github.com/Arachnid/solidity-stringutils/src/strings.sol\":21223:21364  function split(slice memory self, slice memory needle) internal pure returns (slice memory token) {... */\n      swap3\n      swap2\n      pop\n      pop\n      jump\t// out\n        /* \"github.com/Arachnid/solidity-stringutils/src/strings.sol\":5301:5566  function toString(slice memory self) internal pure returns (string memory) {... */\n    tag_51:\n        /* \"github.com/Arachnid/solidity-stringutils/src/strings.sol\":5361:5374  string memory */\n      0x60\n        /* \"github.com/Arachnid/solidity-stringutils/src/strings.sol\":5386:5403  string memory ret */\n      0x00\n        /* \"github.com/Arachnid/solidity-stringutils/src/strings.sol\":5417:5421  self */\n      dup3\n        /* \"github.com/Arachnid/solidity-stringutils/src/strings.sol\":5417:5426  self._len */\n      0x00\n      add\n      mload\n        /* \"github.com/Arachnid/solidity-stringutils/src/strings.sol\":5406:5427  new string(self._len) */\n      0xffffffffffffffff\n      dup2\n      gt\n      iszero\n      tag_89\n      jumpi\n      tag_90\n      tag_42\n      jump\t// in\n    tag_90:\n    tag_89:\n      mload(0x40)\n      swap1\n      dup1\n      dup3\n      mstore\n      dup1\n      0x1f\n      add\n      not(0x1f)\n      and\n      0x20\n      add\n      dup3\n      add\n      0x40\n      mstore\n      dup1\n      iszero\n      tag_91\n      jumpi\n      dup2\n      0x20\n      add\n      0x01\n      dup3\n      mul\n      dup1\n      calldatasize\n      dup4\n      calldatacopy\n      dup1\n      dup3\n      add\n      swap2\n      pop\n      pop\n      swap1\n      pop\n    tag_91:\n      pop\n        /* \"github.com/Arachnid/solidity-stringutils/src/strings.sol\":5386:5427  string memory ret = new string(self._len) */\n      swap1\n      pop\n        /* \"github.com/Arachnid/solidity-stringutils/src/strings.sol\":5437:5448  uint retptr */\n      0x00\n        /* \"github.com/Arachnid/solidity-stringutils/src/strings.sol\":5488:5490  32 */\n      0x20\n        /* \"github.com/Arachnid/solidity-stringutils/src/strings.sol\":5483:5486  ret */\n      dup3\n        /* \"github.com/Arachnid/solidity-stringutils/src/strings.sol\":5479:5491  add(ret, 32) */\n      add\n        /* \"github.com/Arachnid/solidity-stringutils/src/strings.sol\":5469:5491  retptr := add(ret, 32) */\n      swap1\n      pop\n        /* \"github.com/Arachnid/solidity-stringutils/src/strings.sol\":5503:5539  memcpy(retptr, self._ptr, self._len) */\n      tag_92\n        /* \"github.com/Arachnid/solidity-stringutils/src/strings.sol\":5510:5516  retptr */\n      dup2\n        /* \"github.com/Arachnid/solidity-stringutils/src/strings.sol\":5518:5522  self */\n      dup6\n        /* \"github.com/Arachnid/solidity-stringutils/src/strings.sol\":5518:5527  self._ptr */\n      0x20\n      add\n      mload\n        /* \"github.com/Arachnid/solidity-stringutils/src/strings.sol\":5529:5533  self */\n      dup7\n        /* \"github.com/Arachnid/solidity-stringutils/src/strings.sol\":5529:5538  self._len */\n      0x00\n      add\n      mload\n        /* \"github.com/Arachnid/solidity-stringutils/src/strings.sol\":5503:5509  memcpy */\n      tag_67\n        /* \"github.com/Arachnid/solidity-stringutils/src/strings.sol\":5503:5539  memcpy(retptr, self._ptr, self._len) */\n      jump\t// in\n    tag_92:\n        /* \"github.com/Arachnid/solidity-stringutils/src/strings.sol\":5556:5559  ret */\n      dup2\n        /* \"github.com/Arachnid/solidity-stringutils/src/strings.sol\":5549:5559  return ret */\n      swap3\n      pop\n      pop\n      pop\n        /* \"github.com/Arachnid/solidity-stringutils/src/strings.sol\":5301:5566  function toString(slice memory self) internal pure returns (string memory) {... */\n      swap2\n      swap1\n      pop\n      jump\t// out\n        /* \"github.com/Arachnid/solidity-stringutils/src/strings.sol\":17098:18555  function rfindPtr(uint selflen, uint selfptr, uint needlelen, uint needleptr) private pure returns (uint) {... */\n    tag_60:\n        /* \"github.com/Arachnid/solidity-stringutils/src/strings.sol\":17198:17202  uint */\n      0x00\n        /* \"github.com/Arachnid/solidity-stringutils/src/strings.sol\":17214:17222  uint ptr */\n      0x00\n        /* \"github.com/Arachnid/solidity-stringutils/src/strings.sol\":17250:17257  selflen */\n      dup6\n        /* \"github.com/Arachnid/solidity-stringutils/src/strings.sol\":17237:17246  needlelen */\n      dup5\n        /* \"github.com/Arachnid/solidity-stringutils/src/strings.sol\":17237:17257  needlelen <= selflen */\n      gt\n        /* \"github.com/Arachnid/solidity-stringutils/src/strings.sol\":17233:18525  if (needlelen <= selflen) {... */\n      tag_94\n      jumpi\n        /* \"github.com/Arachnid/solidity-stringutils/src/strings.sol\":17290:17292  32 */\n      0x20\n        /* \"github.com/Arachnid/solidity-stringutils/src/strings.sol\":17277:17286  needlelen */\n      dup5\n        /* \"github.com/Arachnid/solidity-stringutils/src/strings.sol\":17277:17292  needlelen <= 32 */\n      gt\n        /* \"github.com/Arachnid/solidity-stringutils/src/strings.sol\":17273:18515  if (needlelen <= 32) {... */\n      tag_95\n      jumpi\n        /* \"github.com/Arachnid/solidity-stringutils/src/strings.sol\":17312:17324  bytes32 mask */\n      0x00\n        /* \"github.com/Arachnid/solidity-stringutils/src/strings.sol\":17358:17359  0 */\n      0x00\n        /* \"github.com/Arachnid/solidity-stringutils/src/strings.sol\":17346:17355  needlelen */\n      dup6\n        /* \"github.com/Arachnid/solidity-stringutils/src/strings.sol\":17346:17359  needlelen > 0 */\n      gt\n        /* \"github.com/Arachnid/solidity-stringutils/src/strings.sol\":17342:17452  if (needlelen > 0) {... */\n      iszero\n      tag_96\n      jumpi\n        /* \"github.com/Arachnid/solidity-stringutils/src/strings.sol\":17430:17431  1 */\n      0x01\n        /* \"github.com/Arachnid/solidity-stringutils/src/strings.sol\":17416:17425  needlelen */\n      dup6\n        /* \"github.com/Arachnid/solidity-stringutils/src/strings.sol\":17411:17413  32 */\n      0x20\n        /* \"github.com/Arachnid/solidity-stringutils/src/strings.sol\":17411:17425  32 - needlelen */\n      tag_97\n      swap2\n      swap1\n      tag_81\n      jump\t// in\n    tag_97:\n        /* \"github.com/Arachnid/solidity-stringutils/src/strings.sol\":17406:17407  8 */\n      0x08\n        /* \"github.com/Arachnid/solidity-stringutils/src/strings.sol\":17406:17426  8 * (32 - needlelen) */\n      tag_98\n      swap2\n      swap1\n      tag_99\n      jump\t// in\n    tag_98:\n        /* \"github.com/Arachnid/solidity-stringutils/src/strings.sol\":17400:17401  2 */\n      0x02\n        /* \"github.com/Arachnid/solidity-stringutils/src/strings.sol\":17400:17427  2 ** (8 * (32 - needlelen)) */\n      tag_100\n      swap2\n      swap1\n      tag_101\n      jump\t// in\n    tag_100:\n        /* \"github.com/Arachnid/solidity-stringutils/src/strings.sol\":17400:17431  2 ** (8 * (32 - needlelen)) - 1 */\n      tag_102\n      swap2\n      swap1\n      tag_81\n      jump\t// in\n    tag_102:\n        /* \"github.com/Arachnid/solidity-stringutils/src/strings.sol\":17398:17432  ~(2 ** (8 * (32 - needlelen)) - 1) */\n      not\n        /* \"github.com/Arachnid/solidity-stringutils/src/strings.sol\":17390:17433  bytes32(~(2 ** (8 * (32 - needlelen)) - 1)) */\n      0x00\n      shl\n        /* \"github.com/Arachnid/solidity-stringutils/src/strings.sol\":17383:17433  mask = bytes32(~(2 ** (8 * (32 - needlelen)) - 1)) */\n      swap1\n      pop\n        /* \"github.com/Arachnid/solidity-stringutils/src/strings.sol\":17342:17452  if (needlelen > 0) {... */\n    tag_96:\n        /* \"github.com/Arachnid/solidity-stringutils/src/strings.sol\":17470:17488  bytes32 needledata */\n      0x00\n        /* \"github.com/Arachnid/solidity-stringutils/src/strings.sol\":17553:17557  mask */\n      dup2\n        /* \"github.com/Arachnid/solidity-stringutils/src/strings.sol\":17541:17550  needleptr */\n      dup6\n        /* \"github.com/Arachnid/solidity-stringutils/src/strings.sol\":17535:17551  mload(needleptr) */\n      mload\n        /* \"github.com/Arachnid/solidity-stringutils/src/strings.sol\":17531:17558  and(mload(needleptr), mask) */\n      and\n        /* \"github.com/Arachnid/solidity-stringutils/src/strings.sol\":17517:17558  needledata := and(mload(needleptr), mask) */\n      swap1\n      pop\n        /* \"github.com/Arachnid/solidity-stringutils/src/strings.sol\":17604:17613  needlelen */\n      dup6\n        /* \"github.com/Arachnid/solidity-stringutils/src/strings.sol\":17594:17601  selflen */\n      dup9\n        /* \"github.com/Arachnid/solidity-stringutils/src/strings.sol\":17584:17591  selfptr */\n      dup9\n        /* \"github.com/Arachnid/solidity-stringutils/src/strings.sol\":17584:17601  selfptr + selflen */\n      tag_103\n      swap2\n      swap1\n      tag_39\n      jump\t// in\n    tag_103:\n        /* \"github.com/Arachnid/solidity-stringutils/src/strings.sol\":17584:17613  selfptr + selflen - needlelen */\n      tag_104\n      swap2\n      swap1\n      tag_81\n      jump\t// in\n    tag_104:\n        /* \"github.com/Arachnid/solidity-stringutils/src/strings.sol\":17578:17613  ptr = selfptr + selflen - needlelen */\n      swap3\n      pop\n        /* \"github.com/Arachnid/solidity-stringutils/src/strings.sol\":17631:17646  bytes32 ptrdata */\n      0x00\n        /* \"github.com/Arachnid/solidity-stringutils/src/strings.sol\":17702:17706  mask */\n      dup3\n        /* \"github.com/Arachnid/solidity-stringutils/src/strings.sol\":17696:17699  ptr */\n      dup5\n        /* \"github.com/Arachnid/solidity-stringutils/src/strings.sol\":17690:17700  mload(ptr) */\n      mload\n        /* \"github.com/Arachnid/solidity-stringutils/src/strings.sol\":17686:17707  and(mload(ptr), mask) */\n      and\n        /* \"github.com/Arachnid/solidity-stringutils/src/strings.sol\":17675:17707  ptrdata := and(mload(ptr), mask) */\n      swap1\n      pop\n        /* \"github.com/Arachnid/solidity-stringutils/src/strings.sol\":17727:17949  while (ptrdata != needledata) {... */\n    tag_105:\n        /* \"github.com/Arachnid/solidity-stringutils/src/strings.sol\":17745:17755  needledata */\n      dup2\n        /* \"github.com/Arachnid/solidity-stringutils/src/strings.sol\":17734:17741  ptrdata */\n      dup2\n        /* \"github.com/Arachnid/solidity-stringutils/src/strings.sol\":17734:17755  ptrdata != needledata */\n      eq\n        /* \"github.com/Arachnid/solidity-stringutils/src/strings.sol\":17727:17949  while (ptrdata != needledata) {... */\n      tag_106\n      jumpi\n        /* \"github.com/Arachnid/solidity-stringutils/src/strings.sol\":17790:17797  selfptr */\n      dup8\n        /* \"github.com/Arachnid/solidity-stringutils/src/strings.sol\":17783:17786  ptr */\n      dup5\n        /* \"github.com/Arachnid/solidity-stringutils/src/strings.sol\":17783:17797  ptr <= selfptr */\n      gt\n        /* \"github.com/Arachnid/solidity-stringutils/src/strings.sol\":17779:17837  if (ptr <= selfptr)... */\n      tag_107\n      jumpi\n        /* \"github.com/Arachnid/solidity-stringutils/src/strings.sol\":17830:17837  selfptr */\n      dup8\n        /* \"github.com/Arachnid/solidity-stringutils/src/strings.sol\":17823:17837  return selfptr */\n      swap5\n      pop\n      pop\n      pop\n      pop\n      pop\n      jump(tag_93)\n        /* \"github.com/Arachnid/solidity-stringutils/src/strings.sol\":17779:17837  if (ptr <= selfptr)... */\n    tag_107:\n        /* \"github.com/Arachnid/solidity-stringutils/src/strings.sol\":17859:17864  ptr-- */\n      dup4\n      dup1\n      tag_108\n      swap1\n      tag_109\n      jump\t// in\n    tag_108:\n      swap5\n      pop\n      pop\n        /* \"github.com/Arachnid/solidity-stringutils/src/strings.sol\":17924:17928  mask */\n      dup3\n        /* \"github.com/Arachnid/solidity-stringutils/src/strings.sol\":17918:17921  ptr */\n      dup5\n        /* \"github.com/Arachnid/solidity-stringutils/src/strings.sol\":17912:17922  mload(ptr) */\n      mload\n        /* \"github.com/Arachnid/solidity-stringutils/src/strings.sol\":17908:17929  and(mload(ptr), mask) */\n      and\n        /* \"github.com/Arachnid/solidity-stringutils/src/strings.sol\":17897:17929  ptrdata := and(mload(ptr), mask) */\n      swap1\n      pop\n        /* \"github.com/Arachnid/solidity-stringutils/src/strings.sol\":17727:17949  while (ptrdata != needledata) {... */\n      jump(tag_105)\n    tag_106:\n        /* \"github.com/Arachnid/solidity-stringutils/src/strings.sol\":17979:17988  needlelen */\n      dup7\n        /* \"github.com/Arachnid/solidity-stringutils/src/strings.sol\":17973:17976  ptr */\n      dup5\n        /* \"github.com/Arachnid/solidity-stringutils/src/strings.sol\":17973:17988  ptr + needlelen */\n      tag_110\n      swap2\n      swap1\n      tag_39\n      jump\t// in\n    tag_110:\n        /* \"github.com/Arachnid/solidity-stringutils/src/strings.sol\":17966:17988  return ptr + needlelen */\n      swap5\n      pop\n      pop\n      pop\n      pop\n      pop\n      jump(tag_93)\n        /* \"github.com/Arachnid/solidity-stringutils/src/strings.sol\":17273:18515  if (needlelen <= 32) {... */\n    tag_95:\n        /* \"github.com/Arachnid/solidity-stringutils/src/strings.sol\":18076:18088  bytes32 hash */\n      0x00\n        /* \"github.com/Arachnid/solidity-stringutils/src/strings.sol\":18146:18155  needlelen */\n      dup5\n        /* \"github.com/Arachnid/solidity-stringutils/src/strings.sol\":18135:18144  needleptr */\n      dup5\n        /* \"github.com/Arachnid/solidity-stringutils/src/strings.sol\":18125:18156  keccak256(needleptr, needlelen) */\n      keccak256\n        /* \"github.com/Arachnid/solidity-stringutils/src/strings.sol\":18117:18156  hash := keccak256(needleptr, needlelen) */\n      swap1\n      pop\n        /* \"github.com/Arachnid/solidity-stringutils/src/strings.sol\":18202:18211  needlelen */\n      dup5\n        /* \"github.com/Arachnid/solidity-stringutils/src/strings.sol\":18192:18199  selflen */\n      dup8\n        /* \"github.com/Arachnid/solidity-stringutils/src/strings.sol\":18192:18211  selflen - needlelen */\n      tag_112\n      swap2\n      swap1\n      tag_81\n      jump\t// in\n    tag_112:\n        /* \"github.com/Arachnid/solidity-stringutils/src/strings.sol\":18181:18188  selfptr */\n      dup7\n        /* \"github.com/Arachnid/solidity-stringutils/src/strings.sol\":18181:18212  selfptr + (selflen - needlelen) */\n      tag_113\n      swap2\n      swap1\n      tag_39\n      jump\t// in\n    tag_113:\n        /* \"github.com/Arachnid/solidity-stringutils/src/strings.sol\":18175:18212  ptr = selfptr + (selflen - needlelen) */\n      swap2\n      pop\n        /* \"github.com/Arachnid/solidity-stringutils/src/strings.sol\":18230:18501  while (ptr >= selfptr) {... */\n    tag_114:\n        /* \"github.com/Arachnid/solidity-stringutils/src/strings.sol\":18244:18251  selfptr */\n      dup6\n        /* \"github.com/Arachnid/solidity-stringutils/src/strings.sol\":18237:18240  ptr */\n      dup3\n        /* \"github.com/Arachnid/solidity-stringutils/src/strings.sol\":18237:18251  ptr >= selfptr */\n      lt\n        /* \"github.com/Arachnid/solidity-stringutils/src/strings.sol\":18230:18501  while (ptr >= selfptr) {... */\n      tag_115\n      jumpi\n        /* \"github.com/Arachnid/solidity-stringutils/src/strings.sol\":18275:18291  bytes32 testHash */\n      0x00\n        /* \"github.com/Arachnid/solidity-stringutils/src/strings.sol\":18351:18360  needlelen */\n      dup6\n        /* \"github.com/Arachnid/solidity-stringutils/src/strings.sol\":18346:18349  ptr */\n      dup4\n        /* \"github.com/Arachnid/solidity-stringutils/src/strings.sol\":18336:18361  keccak256(ptr, needlelen) */\n      keccak256\n        /* \"github.com/Arachnid/solidity-stringutils/src/strings.sol\":18324:18361  testHash := keccak256(ptr, needlelen) */\n      swap1\n      pop\n        /* \"github.com/Arachnid/solidity-stringutils/src/strings.sol\":18396:18404  testHash */\n      dup1\n        /* \"github.com/Arachnid/solidity-stringutils/src/strings.sol\":18388:18392  hash */\n      dup3\n        /* \"github.com/Arachnid/solidity-stringutils/src/strings.sol\":18388:18404  hash == testHash */\n      sub\n        /* \"github.com/Arachnid/solidity-stringutils/src/strings.sol\":18384:18452  if (hash == testHash)... */\n      tag_116\n      jumpi\n        /* \"github.com/Arachnid/solidity-stringutils/src/strings.sol\":18443:18452  needlelen */\n      dup6\n        /* \"github.com/Arachnid/solidity-stringutils/src/strings.sol\":18437:18440  ptr */\n      dup4\n        /* \"github.com/Arachnid/solidity-stringutils/src/strings.sol\":18437:18452  ptr + needlelen */\n      tag_117\n      swap2\n      swap1\n      tag_39\n      jump\t// in\n    tag_117:\n        /* \"github.com/Arachnid/solidity-stringutils/src/strings.sol\":18430:18452  return ptr + needlelen */\n      swap4\n      pop\n      pop\n      pop\n      pop\n      jump(tag_93)\n        /* \"github.com/Arachnid/solidity-stringutils/src/strings.sol\":18384:18452  if (hash == testHash)... */\n    tag_116:\n        /* \"github.com/Arachnid/solidity-stringutils/src/strings.sol\":18481:18482  1 */\n      0x01\n        /* \"github.com/Arachnid/solidity-stringutils/src/strings.sol\":18474:18482  ptr -= 1 */\n      dup4\n      tag_118\n      swap2\n      swap1\n      tag_81\n      jump\t// in\n    tag_118:\n      swap3\n      pop\n        /* \"github.com/Arachnid/solidity-stringutils/src/strings.sol\":18253:18501  {... */\n      pop\n        /* \"github.com/Arachnid/solidity-stringutils/src/strings.sol\":18230:18501  while (ptr >= selfptr) {... */\n      jump(tag_114)\n    tag_115:\n        /* \"github.com/Arachnid/solidity-stringutils/src/strings.sol\":18009:18515  {... */\n      pop\n        /* \"github.com/Arachnid/solidity-stringutils/src/strings.sol\":17233:18525  if (needlelen <= selflen) {... */\n    tag_94:\n        /* \"github.com/Arachnid/solidity-stringutils/src/strings.sol\":18541:18548  selfptr */\n      dup5\n        /* \"github.com/Arachnid/solidity-stringutils/src/strings.sol\":18534:18548  return selfptr */\n      swap2\n      pop\n      pop\n        /* \"github.com/Arachnid/solidity-stringutils/src/strings.sol\":17098:18555  function rfindPtr(uint selflen, uint selfptr, uint needlelen, uint needleptr) private pure returns (uint) {... */\n    tag_93:\n      swap5\n      swap4\n      pop\n      pop\n      pop\n      pop\n      jump\t// out\n        /* \"github.com/Arachnid/solidity-stringutils/src/strings.sol\":2088:2719  function memcpy(uint dest, uint src, uint length) private pure {... */\n    tag_67:\n        /* \"github.com/Arachnid/solidity-stringutils/src/strings.sol\":2211:2381  for(; length >= 32; length -= 32) {... */\n    tag_120:\n        /* \"github.com/Arachnid/solidity-stringutils/src/strings.sol\":2227:2229  32 */\n      0x20\n        /* \"github.com/Arachnid/solidity-stringutils/src/strings.sol\":2217:2223  length */\n      dup2\n        /* \"github.com/Arachnid/solidity-stringutils/src/strings.sol\":2217:2229  length >= 32 */\n      lt\n        /* \"github.com/Arachnid/solidity-stringutils/src/strings.sol\":2211:2381  for(; length >= 32; length -= 32) {... */\n      tag_121\n      jumpi\n        /* \"github.com/Arachnid/solidity-stringutils/src/strings.sol\":2305:2308  src */\n      dup2\n        /* \"github.com/Arachnid/solidity-stringutils/src/strings.sol\":2299:2309  mload(src) */\n      mload\n        /* \"github.com/Arachnid/solidity-stringutils/src/strings.sol\":2293:2297  dest */\n      dup4\n        /* \"github.com/Arachnid/solidity-stringutils/src/strings.sol\":2286:2310  mstore(dest, mload(src)) */\n      mstore\n        /* \"github.com/Arachnid/solidity-stringutils/src/strings.sol\":2345:2347  32 */\n      0x20\n        /* \"github.com/Arachnid/solidity-stringutils/src/strings.sol\":2337:2347  dest += 32 */\n      dup4\n      tag_123\n      swap2\n      swap1\n      tag_39\n      jump\t// in\n    tag_123:\n      swap3\n      pop\n        /* \"github.com/Arachnid/solidity-stringutils/src/strings.sol\":2368:2370  32 */\n      0x20\n        /* \"github.com/Arachnid/solidity-stringutils/src/strings.sol\":2361:2370  src += 32 */\n      dup3\n      tag_124\n      swap2\n      swap1\n      tag_39\n      jump\t// in\n    tag_124:\n      swap2\n      pop\n        /* \"github.com/Arachnid/solidity-stringutils/src/strings.sol\":2241:2243  32 */\n      0x20\n        /* \"github.com/Arachnid/solidity-stringutils/src/strings.sol\":2231:2243  length -= 32 */\n      dup2\n      tag_125\n      swap2\n      swap1\n      tag_81\n      jump\t// in\n    tag_125:\n      swap1\n      pop\n        /* \"github.com/Arachnid/solidity-stringutils/src/strings.sol\":2211:2381  for(; length >= 32; length -= 32) {... */\n      jump(tag_120)\n    tag_121:\n        /* \"github.com/Arachnid/solidity-stringutils/src/strings.sol\":2423:2432  uint mask */\n      0x00\n        /* \"github.com/Arachnid/solidity-stringutils/src/strings.sol\":2435:2449  type(uint).max */\n      0xffffffffffffffffffffffffffffffffffffffffffffffffffffffffffffffff\n        /* \"github.com/Arachnid/solidity-stringutils/src/strings.sol\":2423:2449  uint mask = type(uint).max */\n      swap1\n      pop\n        /* \"github.com/Arachnid/solidity-stringutils/src/strings.sol\":2472:2473  0 */\n      0x00\n        /* \"github.com/Arachnid/solidity-stringutils/src/strings.sol\":2463:2469  length */\n      dup3\n        /* \"github.com/Arachnid/solidity-stringutils/src/strings.sol\":2463:2473  length > 0 */\n      gt\n        /* \"github.com/Arachnid/solidity-stringutils/src/strings.sol\":2459:2531  if (length > 0) {... */\n      iszero\n      tag_126\n      jumpi\n        /* \"github.com/Arachnid/solidity-stringutils/src/strings.sol\":2519:2520  1 */\n      0x01\n        /* \"github.com/Arachnid/solidity-stringutils/src/strings.sol\":2509:2515  length */\n      dup3\n        /* \"github.com/Arachnid/solidity-stringutils/src/strings.sol\":2504:2506  32 */\n      0x20\n        /* \"github.com/Arachnid/solidity-stringutils/src/strings.sol\":2504:2515  32 - length */\n      tag_127\n      swap2\n      swap1\n      tag_81\n      jump\t// in\n    tag_127:\n        /* \"github.com/Arachnid/solidity-stringutils/src/strings.sol\":2496:2499  256 */\n      0x0100\n        /* \"github.com/Arachnid/solidity-stringutils/src/strings.sol\":2496:2516  256 ** (32 - length) */\n      tag_128\n      swap2\n      swap1\n      tag_101\n      jump\t// in\n    tag_128:\n        /* \"github.com/Arachnid/solidity-stringutils/src/strings.sol\":2496:2520  256 ** (32 - length) - 1 */\n      tag_129\n      swap2\n      swap1\n      tag_81\n      jump\t// in\n    tag_129:\n        /* \"github.com/Arachnid/solidity-stringutils/src/strings.sol\":2489:2520  mask = 256 ** (32 - length) - 1 */\n      swap1\n      pop\n        /* \"github.com/Arachnid/solidity-stringutils/src/strings.sol\":2459:2531  if (length > 0) {... */\n    tag_126:\n        /* \"github.com/Arachnid/solidity-stringutils/src/strings.sol\":2598:2602  mask */\n      dup1\n        /* \"github.com/Arachnid/solidity-stringutils/src/strings.sol\":2594:2603  not(mask) */\n      not\n        /* \"github.com/Arachnid/solidity-stringutils/src/strings.sol\":2588:2591  src */\n      dup4\n        /* \"github.com/Arachnid/solidity-stringutils/src/strings.sol\":2582:2592  mload(src) */\n      mload\n        /* \"github.com/Arachnid/solidity-stringutils/src/strings.sol\":2578:2604  and(mload(src), not(mask)) */\n      and\n        /* \"github.com/Arachnid/solidity-stringutils/src/strings.sol\":2650:2654  mask */\n      dup2\n        /* \"github.com/Arachnid/solidity-stringutils/src/strings.sol\":2643:2647  dest */\n      dup6\n        /* \"github.com/Arachnid/solidity-stringutils/src/strings.sol\":2637:2648  mload(dest) */\n      mload\n        /* \"github.com/Arachnid/solidity-stringutils/src/strings.sol\":2633:2655  and(mload(dest), mask) */\n      and\n        /* \"github.com/Arachnid/solidity-stringutils/src/strings.sol\":2694:2701  srcpart */\n      dup2\n        /* \"github.com/Arachnid/solidity-stringutils/src/strings.sol\":2684:2692  destpart */\n      dup2\n        /* \"github.com/Arachnid/solidity-stringutils/src/strings.sol\":2681:2702  or(destpart, srcpart) */\n      or\n        /* \"github.com/Arachnid/solidity-stringutils/src/strings.sol\":2675:2679  dest */\n      dup7\n        /* \"github.com/Arachnid/solidity-stringutils/src/strings.sol\":2668:2703  mstore(dest, or(destpart, srcpart)) */\n      mstore\n        /* \"github.com/Arachnid/solidity-stringutils/src/strings.sol\":2549:2713  {... */\n      pop\n      pop\n      pop\n        /* \"github.com/Arachnid/solidity-stringutils/src/strings.sol\":2088:2719  function memcpy(uint dest, uint src, uint length) private pure {... */\n      pop\n      pop\n      pop\n      jump\t// out\n        /* \"github.com/Arachnid/solidity-stringutils/src/strings.sol\":15492:16945  function findPtr(uint selflen, uint selfptr, uint needlelen, uint needleptr) private pure returns (uint) {... */\n    tag_72:\n        /* \"github.com/Arachnid/solidity-stringutils/src/strings.sol\":15591:15595  uint */\n      0x00\n        /* \"github.com/Arachnid/solidity-stringutils/src/strings.sol\":15607:15615  uint ptr */\n      0x00\n        /* \"github.com/Arachnid/solidity-stringutils/src/strings.sol\":15618:15625  selfptr */\n      dup5\n        /* \"github.com/Arachnid/solidity-stringutils/src/strings.sol\":15607:15625  uint ptr = selfptr */\n      swap1\n      pop\n        /* \"github.com/Arachnid/solidity-stringutils/src/strings.sol\":15635:15643  uint idx */\n      0x00\n        /* \"github.com/Arachnid/solidity-stringutils/src/strings.sol\":15671:15678  selflen */\n      dup7\n        /* \"github.com/Arachnid/solidity-stringutils/src/strings.sol\":15658:15667  needlelen */\n      dup6\n        /* \"github.com/Arachnid/solidity-stringutils/src/strings.sol\":15658:15678  needlelen <= selflen */\n      gt\n        /* \"github.com/Arachnid/solidity-stringutils/src/strings.sol\":15654:16905  if (needlelen <= selflen) {... */\n      tag_131\n      jumpi\n        /* \"github.com/Arachnid/solidity-stringutils/src/strings.sol\":15711:15713  32 */\n      0x20\n        /* \"github.com/Arachnid/solidity-stringutils/src/strings.sol\":15698:15707  needlelen */\n      dup6\n        /* \"github.com/Arachnid/solidity-stringutils/src/strings.sol\":15698:15713  needlelen <= 32 */\n      gt\n        /* \"github.com/Arachnid/solidity-stringutils/src/strings.sol\":15694:16895  if (needlelen <= 32) {... */\n      tag_132\n      jumpi\n        /* \"github.com/Arachnid/solidity-stringutils/src/strings.sol\":15733:15745  bytes32 mask */\n      0x00\n        /* \"github.com/Arachnid/solidity-stringutils/src/strings.sol\":15779:15780  0 */\n      0x00\n        /* \"github.com/Arachnid/solidity-stringutils/src/strings.sol\":15767:15776  needlelen */\n      dup7\n        /* \"github.com/Arachnid/solidity-stringutils/src/strings.sol\":15767:15780  needlelen > 0 */\n      gt\n        /* \"github.com/Arachnid/solidity-stringutils/src/strings.sol\":15763:15873  if (needlelen > 0) {... */\n      iszero\n      tag_133\n      jumpi\n        /* \"github.com/Arachnid/solidity-stringutils/src/strings.sol\":15851:15852  1 */\n      0x01\n        /* \"github.com/Arachnid/solidity-stringutils/src/strings.sol\":15837:15846  needlelen */\n      dup7\n        /* \"github.com/Arachnid/solidity-stringutils/src/strings.sol\":15832:15834  32 */\n      0x20\n        /* \"github.com/Arachnid/solidity-stringutils/src/strings.sol\":15832:15846  32 - needlelen */\n      tag_134\n      swap2\n      swap1\n      tag_81\n      jump\t// in\n    tag_134:\n        /* \"github.com/Arachnid/solidity-stringutils/src/strings.sol\":15827:15828  8 */\n      0x08\n        /* \"github.com/Arachnid/solidity-stringutils/src/strings.sol\":15827:15847  8 * (32 - needlelen) */\n      tag_135\n      swap2\n      swap1\n      tag_99\n      jump\t// in\n    tag_135:\n        /* \"github.com/Arachnid/solidity-stringutils/src/strings.sol\":15821:15822  2 */\n      0x02\n        /* \"github.com/Arachnid/solidity-stringutils/src/strings.sol\":15821:15848  2 ** (8 * (32 - needlelen)) */\n      tag_136\n      swap2\n      swap1\n      tag_101\n      jump\t// in\n    tag_136:\n        /* \"github.com/Arachnid/solidity-stringutils/src/strings.sol\":15821:15852  2 ** (8 * (32 - needlelen)) - 1 */\n      tag_137\n      swap2\n      swap1\n      tag_81\n      jump\t// in\n    tag_137:\n        /* \"github.com/Arachnid/solidity-stringutils/src/strings.sol\":15819:15853  ~(2 ** (8 * (32 - needlelen)) - 1) */\n      not\n        /* \"github.com/Arachnid/solidity-stringutils/src/strings.sol\":15811:15854  bytes32(~(2 ** (8 * (32 - needlelen)) - 1)) */\n      0x00\n      shl\n        /* \"github.com/Arachnid/solidity-stringutils/src/strings.sol\":15804:15854  mask = bytes32(~(2 ** (8 * (32 - needlelen)) - 1)) */\n      swap1\n      pop\n        /* \"github.com/Arachnid/solidity-stringutils/src/strings.sol\":15763:15873  if (needlelen > 0) {... */\n    tag_133:\n        /* \"github.com/Arachnid/solidity-stringutils/src/strings.sol\":15891:15909  bytes32 needledata */\n      0x00\n        /* \"github.com/Arachnid/solidity-stringutils/src/strings.sol\":15974:15978  mask */\n      dup2\n        /* \"github.com/Arachnid/solidity-stringutils/src/strings.sol\":15962:15971  needleptr */\n      dup7\n        /* \"github.com/Arachnid/solidity-stringutils/src/strings.sol\":15956:15972  mload(needleptr) */\n      mload\n        /* \"github.com/Arachnid/solidity-stringutils/src/strings.sol\":15952:15979  and(mload(needleptr), mask) */\n      and\n        /* \"github.com/Arachnid/solidity-stringutils/src/strings.sol\":15938:15979  needledata := and(mload(needleptr), mask) */\n      swap1\n      pop\n        /* \"github.com/Arachnid/solidity-stringutils/src/strings.sol\":15999:16007  uint end */\n      0x00\n        /* \"github.com/Arachnid/solidity-stringutils/src/strings.sol\":16030:16039  needlelen */\n      dup8\n        /* \"github.com/Arachnid/solidity-stringutils/src/strings.sol\":16020:16027  selflen */\n      dup11\n        /* \"github.com/Arachnid/solidity-stringutils/src/strings.sol\":16010:16017  selfptr */\n      dup11\n        /* \"github.com/Arachnid/solidity-stringutils/src/strings.sol\":16010:16027  selfptr + selflen */\n      tag_138\n      swap2\n      swap1\n      tag_39\n      jump\t// in\n    tag_138:\n        /* \"github.com/Arachnid/solidity-stringutils/src/strings.sol\":16010:16039  selfptr + selflen - needlelen */\n      tag_139\n      swap2\n      swap1\n      tag_81\n      jump\t// in\n    tag_139:\n        /* \"github.com/Arachnid/solidity-stringutils/src/strings.sol\":15999:16039  uint end = selfptr + selflen - needlelen */\n      swap1\n      pop\n        /* \"github.com/Arachnid/solidity-stringutils/src/strings.sol\":16057:16072  bytes32 ptrdata */\n      0x00\n        /* \"github.com/Arachnid/solidity-stringutils/src/strings.sol\":16128:16132  mask */\n      dup4\n        /* \"github.com/Arachnid/solidity-stringutils/src/strings.sol\":16122:16125  ptr */\n      dup7\n        /* \"github.com/Arachnid/solidity-stringutils/src/strings.sol\":16116:16126  mload(ptr) */\n      mload\n        /* \"github.com/Arachnid/solidity-stringutils/src/strings.sol\":16112:16133  and(mload(ptr), mask) */\n      and\n        /* \"github.com/Arachnid/solidity-stringutils/src/strings.sol\":16101:16133  ptrdata := and(mload(ptr), mask) */\n      swap1\n      pop\n        /* \"github.com/Arachnid/solidity-stringutils/src/strings.sol\":16153:16381  while (ptrdata != needledata) {... */\n    tag_140:\n        /* \"github.com/Arachnid/solidity-stringutils/src/strings.sol\":16171:16181  needledata */\n      dup3\n        /* \"github.com/Arachnid/solidity-stringutils/src/strings.sol\":16160:16167  ptrdata */\n      dup2\n        /* \"github.com/Arachnid/solidity-stringutils/src/strings.sol\":16160:16181  ptrdata != needledata */\n      eq\n        /* \"github.com/Arachnid/solidity-stringutils/src/strings.sol\":16153:16381  while (ptrdata != needledata) {... */\n      tag_141\n      jumpi\n        /* \"github.com/Arachnid/solidity-stringutils/src/strings.sol\":16216:16219  end */\n      dup2\n        /* \"github.com/Arachnid/solidity-stringutils/src/strings.sol\":16209:16212  ptr */\n      dup7\n        /* \"github.com/Arachnid/solidity-stringutils/src/strings.sol\":16209:16219  ptr >= end */\n      lt\n        /* \"github.com/Arachnid/solidity-stringutils/src/strings.sol\":16205:16269  if (ptr >= end)... */\n      tag_142\n      jumpi\n        /* \"github.com/Arachnid/solidity-stringutils/src/strings.sol\":16262:16269  selflen */\n      dup11\n        /* \"github.com/Arachnid/solidity-stringutils/src/strings.sol\":16252:16259  selfptr */\n      dup11\n        /* \"github.com/Arachnid/solidity-stringutils/src/strings.sol\":16252:16269  selfptr + selflen */\n      tag_143\n      swap2\n      swap1\n      tag_39\n      jump\t// in\n    tag_143:\n        /* \"github.com/Arachnid/solidity-stringutils/src/strings.sol\":16245:16269  return selfptr + selflen */\n      swap7\n      pop\n      pop\n      pop\n      pop\n      pop\n      pop\n      pop\n      jump(tag_130)\n        /* \"github.com/Arachnid/solidity-stringutils/src/strings.sol\":16205:16269  if (ptr >= end)... */\n    tag_142:\n        /* \"github.com/Arachnid/solidity-stringutils/src/strings.sol\":16291:16296  ptr++ */\n      dup6\n      dup1\n      tag_144\n      swap1\n      tag_78\n      jump\t// in\n    tag_144:\n      swap7\n      pop\n      pop\n        /* \"github.com/Arachnid/solidity-stringutils/src/strings.sol\":16356:16360  mask */\n      dup4\n        /* \"github.com/Arachnid/solidity-stringutils/src/strings.sol\":16350:16353  ptr */\n      dup7\n        /* \"github.com/Arachnid/solidity-stringutils/src/strings.sol\":16344:16354  mload(ptr) */\n      mload\n        /* \"github.com/Arachnid/solidity-stringutils/src/strings.sol\":16340:16361  and(mload(ptr), mask) */\n      and\n        /* \"github.com/Arachnid/solidity-stringutils/src/strings.sol\":16329:16361  ptrdata := and(mload(ptr), mask) */\n      swap1\n      pop\n        /* \"github.com/Arachnid/solidity-stringutils/src/strings.sol\":16153:16381  while (ptrdata != needledata) {... */\n      jump(tag_140)\n    tag_141:\n        /* \"github.com/Arachnid/solidity-stringutils/src/strings.sol\":16405:16408  ptr */\n      dup6\n        /* \"github.com/Arachnid/solidity-stringutils/src/strings.sol\":16398:16408  return ptr */\n      swap7\n      pop\n      pop\n      pop\n      pop\n      pop\n      pop\n      pop\n      jump(tag_130)\n        /* \"github.com/Arachnid/solidity-stringutils/src/strings.sol\":15694:16895  if (needlelen <= 32) {... */\n    tag_132:\n        /* \"github.com/Arachnid/solidity-stringutils/src/strings.sol\":16496:16508  bytes32 hash */\n      0x00\n        /* \"github.com/Arachnid/solidity-stringutils/src/strings.sol\":16566:16575  needlelen */\n      dup6\n        /* \"github.com/Arachnid/solidity-stringutils/src/strings.sol\":16555:16564  needleptr */\n      dup6\n        /* \"github.com/Arachnid/solidity-stringutils/src/strings.sol\":16545:16576  keccak256(needleptr, needlelen) */\n      keccak256\n        /* \"github.com/Arachnid/solidity-stringutils/src/strings.sol\":16537:16576  hash := keccak256(needleptr, needlelen) */\n      swap1\n      pop\n        /* \"github.com/Arachnid/solidity-stringutils/src/strings.sol\":16607:16608  0 */\n      0x00\n        /* \"github.com/Arachnid/solidity-stringutils/src/strings.sol\":16601:16608  idx = 0 */\n      swap2\n      pop\n        /* \"github.com/Arachnid/solidity-stringutils/src/strings.sol\":16596:16881  for (idx = 0; idx <= selflen - needlelen; idx++) {... */\n    tag_146:\n        /* \"github.com/Arachnid/solidity-stringutils/src/strings.sol\":16627:16636  needlelen */\n      dup6\n        /* \"github.com/Arachnid/solidity-stringutils/src/strings.sol\":16617:16624  selflen */\n      dup9\n        /* \"github.com/Arachnid/solidity-stringutils/src/strings.sol\":16617:16636  selflen - needlelen */\n      tag_149\n      swap2\n      swap1\n      tag_81\n      jump\t// in\n    tag_149:\n        /* \"github.com/Arachnid/solidity-stringutils/src/strings.sol\":16610:16613  idx */\n      dup3\n        /* \"github.com/Arachnid/solidity-stringutils/src/strings.sol\":16610:16636  idx <= selflen - needlelen */\n      gt\n        /* \"github.com/Arachnid/solidity-stringutils/src/strings.sol\":16596:16881  for (idx = 0; idx <= selflen - needlelen; idx++) {... */\n      tag_147\n      jumpi\n        /* \"github.com/Arachnid/solidity-stringutils/src/strings.sol\":16667:16683  bytes32 testHash */\n      0x00\n        /* \"github.com/Arachnid/solidity-stringutils/src/strings.sol\":16743:16752  needlelen */\n      dup7\n        /* \"github.com/Arachnid/solidity-stringutils/src/strings.sol\":16738:16741  ptr */\n      dup5\n        /* \"github.com/Arachnid/solidity-stringutils/src/strings.sol\":16728:16753  keccak256(ptr, needlelen) */\n      keccak256\n        /* \"github.com/Arachnid/solidity-stringutils/src/strings.sol\":16716:16753  testHash := keccak256(ptr, needlelen) */\n      swap1\n      pop\n        /* \"github.com/Arachnid/solidity-stringutils/src/strings.sol\":16788:16796  testHash */\n      dup1\n        /* \"github.com/Arachnid/solidity-stringutils/src/strings.sol\":16780:16784  hash */\n      dup3\n        /* \"github.com/Arachnid/solidity-stringutils/src/strings.sol\":16780:16796  hash == testHash */\n      sub\n        /* \"github.com/Arachnid/solidity-stringutils/src/strings.sol\":16776:16832  if (hash == testHash)... */\n      tag_150\n      jumpi\n        /* \"github.com/Arachnid/solidity-stringutils/src/strings.sol\":16829:16832  ptr */\n      dup4\n        /* \"github.com/Arachnid/solidity-stringutils/src/strings.sol\":16822:16832  return ptr */\n      swap5\n      pop\n      pop\n      pop\n      pop\n      pop\n      jump(tag_130)\n        /* \"github.com/Arachnid/solidity-stringutils/src/strings.sol\":16776:16832  if (hash == testHash)... */\n    tag_150:\n        /* \"github.com/Arachnid/solidity-stringutils/src/strings.sol\":16861:16862  1 */\n      0x01\n        /* \"github.com/Arachnid/solidity-stringutils/src/strings.sol\":16854:16862  ptr += 1 */\n      dup5\n      tag_151\n      swap2\n      swap1\n      tag_39\n      jump\t// in\n    tag_151:\n      swap4\n      pop\n        /* \"github.com/Arachnid/solidity-stringutils/src/strings.sol\":16645:16881  {... */\n      pop\n        /* \"github.com/Arachnid/solidity-stringutils/src/strings.sol\":16638:16643  idx++ */\n      dup2\n      dup1\n      tag_152\n      swap1\n      tag_78\n      jump\t// in\n    tag_152:\n      swap3\n      pop\n      pop\n        /* \"github.com/Arachnid/solidity-stringutils/src/strings.sol\":16596:16881  for (idx = 0; idx <= selflen - needlelen; idx++) {... */\n      jump(tag_146)\n    tag_147:\n        /* \"github.com/Arachnid/solidity-stringutils/src/strings.sol\":16429:16895  {... */\n      pop\n        /* \"github.com/Arachnid/solidity-stringutils/src/strings.sol\":15654:16905  if (needlelen <= selflen) {... */\n    tag_131:\n        /* \"github.com/Arachnid/solidity-stringutils/src/strings.sol\":16931:16938  selflen */\n      dup7\n        /* \"github.com/Arachnid/solidity-stringutils/src/strings.sol\":16921:16928  selfptr */\n      dup7\n        /* \"github.com/Arachnid/solidity-stringutils/src/strings.sol\":16921:16938  selfptr + selflen */\n      tag_153\n      swap2\n      swap1\n      tag_39\n      jump\t// in\n    tag_153:\n        /* \"github.com/Arachnid/solidity-stringutils/src/strings.sol\":16914:16938  return selfptr + selflen */\n      swap3\n      pop\n      pop\n      pop\n        /* \"github.com/Arachnid/solidity-stringutils/src/strings.sol\":15492:16945  function findPtr(uint selflen, uint selfptr, uint needlelen, uint needleptr) private pure returns (uint) {... */\n    tag_130:\n      swap5\n      swap4\n      pop\n      pop\n      pop\n      pop\n      jump\t// out\n        /* \"github.com/Arachnid/solidity-stringutils/src/strings.sol\":20248:20752  function split(slice memory self, slice memory needle, slice memory token) internal pure returns (slice memory) {... */\n    tag_87:\n        /* \"github.com/Arachnid/solidity-stringutils/src/strings.sol\":20346:20358  slice memory */\n      tag_154\n      tag_56\n      jump\t// in\n    tag_154:\n        /* \"github.com/Arachnid/solidity-stringutils/src/strings.sol\":20370:20378  uint ptr */\n      0x00\n        /* \"github.com/Arachnid/solidity-stringutils/src/strings.sol\":20381:20436  findPtr(self._len, self._ptr, needle._len, needle._ptr) */\n      tag_156\n        /* \"github.com/Arachnid/solidity-stringutils/src/strings.sol\":20389:20393  self */\n      dup6\n        /* \"github.com/Arachnid/solidity-stringutils/src/strings.sol\":20389:20398  self._len */\n      0x00\n      add\n      mload\n        /* \"github.com/Arachnid/solidity-stringutils/src/strings.sol\":20400:20404  self */\n      dup7\n        /* \"github.com/Arachnid/solidity-stringutils/src/strings.sol\":20400:20409  self._ptr */\n      0x20\n      add\n      mload\n        /* \"github.com/Arachnid/solidity-stringutils/src/strings.sol\":20411:20417  needle */\n      dup7\n        /* \"github.com/Arachnid/solidity-stringutils/src/strings.sol\":20411:20422  needle._len */\n      0x00\n      add\n      mload\n        /* \"github.com/Arachnid/solidity-stringutils/src/strings.sol\":20424:20430  needle */\n      dup8\n        /* \"github.com/Arachnid/solidity-stringutils/src/strings.sol\":20424:20435  needle._ptr */\n      0x20\n      add\n      mload\n        /* \"github.com/Arachnid/solidity-stringutils/src/strings.sol\":20381:20388  findPtr */\n      tag_72\n        /* \"github.com/Arachnid/solidity-stringutils/src/strings.sol\":20381:20436  findPtr(self._len, self._ptr, needle._len, needle._ptr) */\n      jump\t// in\n    tag_156:\n        /* \"github.com/Arachnid/solidity-stringutils/src/strings.sol\":20370:20436  uint ptr = findPtr(self._len, self._ptr, needle._len, needle._ptr) */\n      swap1\n      pop\n        /* \"github.com/Arachnid/solidity-stringutils/src/strings.sol\":20459:20463  self */\n      dup5\n        /* \"github.com/Arachnid/solidity-stringutils/src/strings.sol\":20459:20468  self._ptr */\n      0x20\n      add\n      mload\n        /* \"github.com/Arachnid/solidity-stringutils/src/strings.sol\":20446:20451  token */\n      dup4\n        /* \"github.com/Arachnid/solidity-stringutils/src/strings.sol\":20446:20456  token._ptr */\n      0x20\n      add\n        /* \"github.com/Arachnid/solidity-stringutils/src/strings.sol\":20446:20468  token._ptr = self._ptr */\n      dup2\n      dup2\n      mstore\n      pop\n      pop\n        /* \"github.com/Arachnid/solidity-stringutils/src/strings.sol\":20497:20501  self */\n      dup5\n        /* \"github.com/Arachnid/solidity-stringutils/src/strings.sol\":20497:20506  self._ptr */\n      0x20\n      add\n      mload\n        /* \"github.com/Arachnid/solidity-stringutils/src/strings.sol\":20491:20494  ptr */\n      dup2\n        /* \"github.com/Arachnid/solidity-stringutils/src/strings.sol\":20491:20506  ptr - self._ptr */\n      tag_157\n      swap2\n      swap1\n      tag_81\n      jump\t// in\n    tag_157:\n        /* \"github.com/Arachnid/solidity-stringutils/src/strings.sol\":20478:20483  token */\n      dup4\n        /* \"github.com/Arachnid/solidity-stringutils/src/strings.sol\":20478:20488  token._len */\n      0x00\n      add\n        /* \"github.com/Arachnid/solidity-stringutils/src/strings.sol\":20478:20506  token._len = ptr - self._ptr */\n      dup2\n      dup2\n      mstore\n      pop\n      pop\n        /* \"github.com/Arachnid/solidity-stringutils/src/strings.sol\":20539:20543  self */\n      dup5\n        /* \"github.com/Arachnid/solidity-stringutils/src/strings.sol\":20539:20548  self._len */\n      0x00\n      add\n      mload\n        /* \"github.com/Arachnid/solidity-stringutils/src/strings.sol\":20527:20531  self */\n      dup6\n        /* \"github.com/Arachnid/solidity-stringutils/src/strings.sol\":20527:20536  self._ptr */\n      0x20\n      add\n      mload\n        /* \"github.com/Arachnid/solidity-stringutils/src/strings.sol\":20527:20548  self._ptr + self._len */\n      tag_158\n      swap2\n      swap1\n      tag_39\n      jump\t// in\n    tag_158:\n        /* \"github.com/Arachnid/solidity-stringutils/src/strings.sol\":20520:20523  ptr */\n      dup2\n        /* \"github.com/Arachnid/solidity-stringutils/src/strings.sol\":20520:20548  ptr == self._ptr + self._len */\n      sub\n        /* \"github.com/Arachnid/solidity-stringutils/src/strings.sol\":20516:20724  if (ptr == self._ptr + self._len) {... */\n      tag_159\n      jumpi\n        /* \"github.com/Arachnid/solidity-stringutils/src/strings.sol\":20601:20602  0 */\n      0x00\n        /* \"github.com/Arachnid/solidity-stringutils/src/strings.sol\":20589:20593  self */\n      dup6\n        /* \"github.com/Arachnid/solidity-stringutils/src/strings.sol\":20589:20598  self._len */\n      0x00\n      add\n        /* \"github.com/Arachnid/solidity-stringutils/src/strings.sol\":20589:20602  self._len = 0 */\n      dup2\n      dup2\n      mstore\n      pop\n      pop\n        /* \"github.com/Arachnid/solidity-stringutils/src/strings.sol\":20516:20724  if (ptr == self._ptr + self._len) {... */\n      jump(tag_160)\n    tag_159:\n        /* \"github.com/Arachnid/solidity-stringutils/src/strings.sol\":20659:20665  needle */\n      dup4\n        /* \"github.com/Arachnid/solidity-stringutils/src/strings.sol\":20659:20670  needle._len */\n      0x00\n      add\n      mload\n        /* \"github.com/Arachnid/solidity-stringutils/src/strings.sol\":20646:20651  token */\n      dup4\n        /* \"github.com/Arachnid/solidity-stringutils/src/strings.sol\":20646:20656  token._len */\n      0x00\n      add\n      mload\n        /* \"github.com/Arachnid/solidity-stringutils/src/strings.sol\":20646:20670  token._len + needle._len */\n      tag_161\n      swap2\n      swap1\n      tag_39\n      jump\t// in\n    tag_161:\n        /* \"github.com/Arachnid/solidity-stringutils/src/strings.sol\":20633:20637  self */\n      dup6\n        /* \"github.com/Arachnid/solidity-stringutils/src/strings.sol\":20633:20642  self._len */\n      0x00\n      add\n        /* \"github.com/Arachnid/solidity-stringutils/src/strings.sol\":20633:20670  self._len -= token._len + needle._len */\n      dup2\n      dup2\n      mload\n      tag_162\n      swap2\n      swap1\n      tag_81\n      jump\t// in\n    tag_162:\n      swap2\n      pop\n      dup2\n      dup2\n      mstore\n      pop\n      pop\n        /* \"github.com/Arachnid/solidity-stringutils/src/strings.sol\":20702:20708  needle */\n      dup4\n        /* \"github.com/Arachnid/solidity-stringutils/src/strings.sol\":20702:20713  needle._len */\n      0x00\n      add\n      mload\n        /* \"github.com/Arachnid/solidity-stringutils/src/strings.sol\":20696:20699  ptr */\n      dup2\n        /* \"github.com/Arachnid/solidity-stringutils/src/strings.sol\":20696:20713  ptr + needle._len */\n      tag_163\n      swap2\n      swap1\n      tag_39\n      jump\t// in\n    tag_163:\n        /* \"github.com/Arachnid/solidity-stringutils/src/strings.sol\":20684:20688  self */\n      dup6\n        /* \"github.com/Arachnid/solidity-stringutils/src/strings.sol\":20684:20693  self._ptr */\n      0x20\n      add\n        /* \"github.com/Arachnid/solidity-stringutils/src/strings.sol\":20684:20713  self._ptr = ptr + needle._len */\n      dup2\n      dup2\n      mstore\n      pop\n      pop\n        /* \"github.com/Arachnid/solidity-stringutils/src/strings.sol\":20516:20724  if (ptr == self._ptr + self._len) {... */\n    tag_160:\n        /* \"github.com/Arachnid/solidity-stringutils/src/strings.sol\":20740:20745  token */\n      dup3\n        /* \"github.com/Arachnid/solidity-stringutils/src/strings.sol\":20733:20745  return token */\n      swap2\n      pop\n      pop\n        /* \"github.com/Arachnid/solidity-stringutils/src/strings.sol\":20248:20752  function split(slice memory self, slice memory needle, slice memory token) internal pure returns (slice memory) {... */\n      swap4\n      swap3\n      pop\n      pop\n      pop\n      jump\t// out\n    tag_56:\n      mload(0x40)\n      dup1\n      0x40\n      add\n      0x40\n      mstore\n      dup1\n      0x00\n      dup2\n      mstore\n      0x20\n      add\n      0x00\n      dup2\n      mstore\n      pop\n      swap1\n      jump\t// out\n        /* \"#utility.yul\":7:82   */\n    tag_164:\n        /* \"#utility.yul\":40:46   */\n      0x00\n        /* \"#utility.yul\":73:75   */\n      0x40\n        /* \"#utility.yul\":67:76   */\n      mload\n        /* \"#utility.yul\":57:76   */\n      swap1\n      pop\n        /* \"#utility.yul\":7:82   */\n      swap1\n      jump\t// out\n        /* \"#utility.yul\":88:205   */\n    tag_165:\n        /* \"#utility.yul\":197:198   */\n      0x00\n        /* \"#utility.yul\":194:195   */\n      0x00\n        /* \"#utility.yul\":187:199   */\n      revert\n        /* \"#utility.yul\":211:328   */\n    tag_166:\n        /* \"#utility.yul\":320:321   */\n      0x00\n        /* \"#utility.yul\":317:318   */\n      0x00\n        /* \"#utility.yul\":310:322   */\n      revert\n        /* \"#utility.yul\":334:451   */\n    tag_167:\n        /* \"#utility.yul\":443:444   */\n      0x00\n        /* \"#utility.yul\":440:441   */\n      0x00\n        /* \"#utility.yul\":433:445   */\n      revert\n        /* \"#utility.yul\":457:574   */\n    tag_168:\n        /* \"#utility.yul\":566:567   */\n      0x00\n        /* \"#utility.yul\":563:564   */\n      0x00\n        /* \"#utility.yul\":556:568   */\n      revert\n        /* \"#utility.yul\":580:682   */\n    tag_169:\n        /* \"#utility.yul\":621:627   */\n      0x00\n        /* \"#utility.yul\":672:674   */\n      0x1f\n        /* \"#utility.yul\":668:675   */\n      not\n        /* \"#utility.yul\":663:665   */\n      0x1f\n        /* \"#utility.yul\":656:661   */\n      dup4\n        /* \"#utility.yul\":652:666   */\n      add\n        /* \"#utility.yul\":648:676   */\n      and\n        /* \"#utility.yul\":638:676   */\n      swap1\n      pop\n        /* \"#utility.yul\":580:682   */\n      swap2\n      swap1\n      pop\n      jump\t// out\n        /* \"#utility.yul\":688:868   */\n    tag_42:\n        /* \"#utility.yul\":736:813   */\n      0x4e487b7100000000000000000000000000000000000000000000000000000000\n        /* \"#utility.yul\":733:734   */\n      0x00\n        /* \"#utility.yul\":726:814   */\n      mstore\n        /* \"#utility.yul\":833:837   */\n      0x41\n        /* \"#utility.yul\":830:831   */\n      0x04\n        /* \"#utility.yul\":823:838   */\n      mstore\n        /* \"#utility.yul\":857:861   */\n      0x24\n        /* \"#utility.yul\":854:855   */\n      0x00\n        /* \"#utility.yul\":847:862   */\n      revert\n        /* \"#utility.yul\":874:1155   */\n    tag_170:\n        /* \"#utility.yul\":957:984   */\n      tag_204\n        /* \"#utility.yul\":979:983   */\n      dup3\n        /* \"#utility.yul\":957:984   */\n      tag_169\n      jump\t// in\n    tag_204:\n        /* \"#utility.yul\":949:955   */\n      dup2\n        /* \"#utility.yul\":945:985   */\n      add\n        /* \"#utility.yul\":1087:1093   */\n      dup2\n        /* \"#utility.yul\":1075:1085   */\n      dup2\n        /* \"#utility.yul\":1072:1094   */\n      lt\n        /* \"#utility.yul\":1051:1069   */\n      0xffffffffffffffff\n        /* \"#utility.yul\":1039:1049   */\n      dup3\n        /* \"#utility.yul\":1036:1070   */\n      gt\n        /* \"#utility.yul\":1033:1095   */\n      or\n        /* \"#utility.yul\":1030:1118   */\n      iszero\n      tag_205\n      jumpi\n        /* \"#utility.yul\":1098:1116   */\n      tag_206\n      tag_42\n      jump\t// in\n    tag_206:\n        /* \"#utility.yul\":1030:1118   */\n    tag_205:\n        /* \"#utility.yul\":1138:1148   */\n      dup1\n        /* \"#utility.yul\":1134:1136   */\n      0x40\n        /* \"#utility.yul\":1127:1149   */\n      mstore\n        /* \"#utility.yul\":917:1155   */\n      pop\n        /* \"#utility.yul\":874:1155   */\n      pop\n      pop\n      jump\t// out\n        /* \"#utility.yul\":1161:1290   */\n    tag_171:\n        /* \"#utility.yul\":1195:1201   */\n      0x00\n        /* \"#utility.yul\":1222:1242   */\n      tag_208\n      tag_164\n      jump\t// in\n    tag_208:\n        /* \"#utility.yul\":1212:1242   */\n      swap1\n      pop\n        /* \"#utility.yul\":1251:1284   */\n      tag_209\n        /* \"#utility.yul\":1279:1283   */\n      dup3\n        /* \"#utility.yul\":1271:1277   */\n      dup3\n        /* \"#utility.yul\":1251:1284   */\n      tag_170\n      jump\t// in\n    tag_209:\n        /* \"#utility.yul\":1161:1290   */\n      swap2\n      swap1\n      pop\n      jump\t// out\n        /* \"#utility.yul\":1296:1604   */\n    tag_172:\n        /* \"#utility.yul\":1358:1362   */\n      0x00\n        /* \"#utility.yul\":1448:1466   */\n      0xffffffffffffffff\n        /* \"#utility.yul\":1440:1446   */\n      dup3\n        /* \"#utility.yul\":1437:1467   */\n      gt\n        /* \"#utility.yul\":1434:1490   */\n      iszero\n      tag_211\n      jumpi\n        /* \"#utility.yul\":1470:1488   */\n      tag_212\n      tag_42\n      jump\t// in\n    tag_212:\n        /* \"#utility.yul\":1434:1490   */\n    tag_211:\n        /* \"#utility.yul\":1508:1537   */\n      tag_213\n        /* \"#utility.yul\":1530:1536   */\n      dup3\n        /* \"#utility.yul\":1508:1537   */\n      tag_169\n      jump\t// in\n    tag_213:\n        /* \"#utility.yul\":1500:1537   */\n      swap1\n      pop\n        /* \"#utility.yul\":1592:1596   */\n      0x20\n        /* \"#utility.yul\":1586:1590   */\n      dup2\n        /* \"#utility.yul\":1582:1597   */\n      add\n        /* \"#utility.yul\":1574:1597   */\n      swap1\n      pop\n        /* \"#utility.yul\":1296:1604   */\n      swap2\n      swap1\n      pop\n      jump\t// out\n        /* \"#utility.yul\":1610:1758   */\n    tag_173:\n        /* \"#utility.yul\":1708:1714   */\n      dup3\n        /* \"#utility.yul\":1703:1706   */\n      dup2\n        /* \"#utility.yul\":1698:1701   */\n      dup4\n        /* \"#utility.yul\":1685:1715   */\n      calldatacopy\n        /* \"#utility.yul\":1749:1750   */\n      0x00\n        /* \"#utility.yul\":1740:1746   */\n      dup4\n        /* \"#utility.yul\":1735:1738   */\n      dup4\n        /* \"#utility.yul\":1731:1747   */\n      add\n        /* \"#utility.yul\":1724:1751   */\n      mstore\n        /* \"#utility.yul\":1610:1758   */\n      pop\n      pop\n      pop\n      jump\t// out\n        /* \"#utility.yul\":1764:2189   */\n    tag_174:\n        /* \"#utility.yul\":1842:1847   */\n      0x00\n        /* \"#utility.yul\":1867:1933   */\n      tag_216\n        /* \"#utility.yul\":1883:1932   */\n      tag_217\n        /* \"#utility.yul\":1925:1931   */\n      dup5\n        /* \"#utility.yul\":1883:1932   */\n      tag_172\n      jump\t// in\n    tag_217:\n        /* \"#utility.yul\":1867:1933   */\n      tag_171\n      jump\t// in\n    tag_216:\n        /* \"#utility.yul\":1858:1933   */\n      swap1\n      pop\n        /* \"#utility.yul\":1956:1962   */\n      dup3\n        /* \"#utility.yul\":1949:1954   */\n      dup2\n        /* \"#utility.yul\":1942:1963   */\n      mstore\n        /* \"#utility.yul\":1994:1998   */\n      0x20\n        /* \"#utility.yul\":1987:1992   */\n      dup2\n        /* \"#utility.yul\":1983:1999   */\n      add\n        /* \"#utility.yul\":2032:2035   */\n      dup5\n        /* \"#utility.yul\":2023:2029   */\n      dup5\n        /* \"#utility.yul\":2018:2021   */\n      dup5\n        /* \"#utility.yul\":2014:2030   */\n      add\n        /* \"#utility.yul\":2011:2036   */\n      gt\n        /* \"#utility.yul\":2008:2120   */\n      iszero\n      tag_218\n      jumpi\n        /* \"#utility.yul\":2039:2118   */\n      tag_219\n      tag_168\n      jump\t// in\n    tag_219:\n        /* \"#utility.yul\":2008:2120   */\n    tag_218:\n        /* \"#utility.yul\":2129:2183   */\n      tag_220\n        /* \"#utility.yul\":2176:2182   */\n      dup5\n        /* \"#utility.yul\":2171:2174   */\n      dup3\n        /* \"#utility.yul\":2166:2169   */\n      dup6\n        /* \"#utility.yul\":2129:2183   */\n      tag_173\n      jump\t// in\n    tag_220:\n        /* \"#utility.yul\":1848:2189   */\n      pop\n        /* \"#utility.yul\":1764:2189   */\n      swap4\n      swap3\n      pop\n      pop\n      pop\n      jump\t// out\n        /* \"#utility.yul\":2209:2549   */\n    tag_175:\n        /* \"#utility.yul\":2265:2270   */\n      0x00\n        /* \"#utility.yul\":2314:2317   */\n      dup3\n        /* \"#utility.yul\":2307:2311   */\n      0x1f\n        /* \"#utility.yul\":2299:2305   */\n      dup4\n        /* \"#utility.yul\":2295:2312   */\n      add\n        /* \"#utility.yul\":2291:2318   */\n      slt\n        /* \"#utility.yul\":2281:2403   */\n      tag_222\n      jumpi\n        /* \"#utility.yul\":2322:2401   */\n      tag_223\n      tag_167\n      jump\t// in\n    tag_223:\n        /* \"#utility.yul\":2281:2403   */\n    tag_222:\n        /* \"#utility.yul\":2439:2445   */\n      dup2\n        /* \"#utility.yul\":2426:2446   */\n      calldataload\n        /* \"#utility.yul\":2464:2543   */\n      tag_224\n        /* \"#utility.yul\":2539:2542   */\n      dup5\n        /* \"#utility.yul\":2531:2537   */\n      dup3\n        /* \"#utility.yul\":2524:2528   */\n      0x20\n        /* \"#utility.yul\":2516:2522   */\n      dup7\n        /* \"#utility.yul\":2512:2529   */\n      add\n        /* \"#utility.yul\":2464:2543   */\n      tag_174\n      jump\t// in\n    tag_224:\n        /* \"#utility.yul\":2455:2543   */\n      swap2\n      pop\n        /* \"#utility.yul\":2271:2549   */\n      pop\n        /* \"#utility.yul\":2209:2549   */\n      swap3\n      swap2\n      pop\n      pop\n      jump\t// out\n        /* \"#utility.yul\":2555:3389   */\n    tag_8:\n        /* \"#utility.yul\":2643:2649   */\n      0x00\n        /* \"#utility.yul\":2651:2657   */\n      0x00\n        /* \"#utility.yul\":2700:2702   */\n      0x40\n        /* \"#utility.yul\":2688:2697   */\n      dup4\n        /* \"#utility.yul\":2679:2686   */\n      dup6\n        /* \"#utility.yul\":2675:2698   */\n      sub\n        /* \"#utility.yul\":2671:2703   */\n      slt\n        /* \"#utility.yul\":2668:2787   */\n      iszero\n      tag_226\n      jumpi\n        /* \"#utility.yul\":2706:2785   */\n      tag_227\n      tag_165\n      jump\t// in\n    tag_227:\n        /* \"#utility.yul\":2668:2787   */\n    tag_226:\n        /* \"#utility.yul\":2854:2855   */\n      0x00\n        /* \"#utility.yul\":2843:2852   */\n      dup4\n        /* \"#utility.yul\":2839:2856   */\n      add\n        /* \"#utility.yul\":2826:2857   */\n      calldataload\n        /* \"#utility.yul\":2884:2902   */\n      0xffffffffffffffff\n        /* \"#utility.yul\":2876:2882   */\n      dup2\n        /* \"#utility.yul\":2873:2903   */\n      gt\n        /* \"#utility.yul\":2870:2987   */\n      iszero\n      tag_228\n      jumpi\n        /* \"#utility.yul\":2906:2985   */\n      tag_229\n      tag_166\n      jump\t// in\n    tag_229:\n        /* \"#utility.yul\":2870:2987   */\n    tag_228:\n        /* \"#utility.yul\":3011:3074   */\n      tag_230\n        /* \"#utility.yul\":3066:3073   */\n      dup6\n        /* \"#utility.yul\":3057:3063   */\n      dup3\n        /* \"#utility.yul\":3046:3055   */\n      dup7\n        /* \"#utility.yul\":3042:3064   */\n      add\n        /* \"#utility.yul\":3011:3074   */\n      tag_175\n      jump\t// in\n    tag_230:\n        /* \"#utility.yul\":3001:3074   */\n      swap3\n      pop\n        /* \"#utility.yul\":2797:3084   */\n      pop\n        /* \"#utility.yul\":3151:3153   */\n      0x20\n        /* \"#utility.yul\":3140:3149   */\n      dup4\n        /* \"#utility.yul\":3136:3154   */\n      add\n        /* \"#utility.yul\":3123:3155   */\n      calldataload\n        /* \"#utility.yul\":3182:3200   */\n      0xffffffffffffffff\n        /* \"#utility.yul\":3174:3180   */\n      dup2\n        /* \"#utility.yul\":3171:3201   */\n      gt\n        /* \"#utility.yul\":3168:3285   */\n      iszero\n      tag_231\n      jumpi\n        /* \"#utility.yul\":3204:3283   */\n      tag_232\n      tag_166\n      jump\t// in\n    tag_232:\n        /* \"#utility.yul\":3168:3285   */\n    tag_231:\n        /* \"#utility.yul\":3309:3372   */\n      tag_233\n        /* \"#utility.yul\":3364:3371   */\n      dup6\n        /* \"#utility.yul\":3355:3361   */\n      dup3\n        /* \"#utility.yul\":3344:3353   */\n      dup7\n        /* \"#utility.yul\":3340:3362   */\n      add\n        /* \"#utility.yul\":3309:3372   */\n      tag_175\n      jump\t// in\n    tag_233:\n        /* \"#utility.yul\":3299:3372   */\n      swap2\n      pop\n        /* \"#utility.yul\":3094:3382   */\n      pop\n        /* \"#utility.yul\":2555:3389   */\n      swap3\n      pop\n      swap3\n      swap1\n      pop\n      jump\t// out\n        /* \"#utility.yul\":3395:3485   */\n    tag_176:\n        /* \"#utility.yul\":3429:3436   */\n      0x00\n        /* \"#utility.yul\":3472:3477   */\n      dup2\n        /* \"#utility.yul\":3465:3478   */\n      iszero\n        /* \"#utility.yul\":3458:3479   */\n      iszero\n        /* \"#utility.yul\":3447:3479   */\n      swap1\n      pop\n        /* \"#utility.yul\":3395:3485   */\n      swap2\n      swap1\n      pop\n      jump\t// out\n        /* \"#utility.yul\":3491:3600   */\n    tag_177:\n        /* \"#utility.yul\":3572:3593   */\n      tag_236\n        /* \"#utility.yul\":3587:3592   */\n      dup2\n        /* \"#utility.yul\":3572:3593   */\n      tag_176\n      jump\t// in\n    tag_236:\n        /* \"#utility.yul\":3567:3570   */\n      dup3\n        /* \"#utility.yul\":3560:3594   */\n      mstore\n        /* \"#utility.yul\":3491:3600   */\n      pop\n      pop\n      jump\t// out\n        /* \"#utility.yul\":3606:3816   */\n    tag_11:\n        /* \"#utility.yul\":3693:3697   */\n      0x00\n        /* \"#utility.yul\":3731:3733   */\n      0x20\n        /* \"#utility.yul\":3720:3729   */\n      dup3\n        /* \"#utility.yul\":3716:3734   */\n      add\n        /* \"#utility.yul\":3708:3734   */\n      swap1\n      pop\n        /* \"#utility.yul\":3744:3809   */\n      tag_238\n        /* \"#utility.yul\":3806:3807   */\n      0x00\n        /* \"#utility.yul\":3795:3804   */\n      dup4\n        /* \"#utility.yul\":3791:3808   */\n      add\n        /* \"#utility.yul\":3782:3788   */\n      dup5\n        /* \"#utility.yul\":3744:3809   */\n      tag_177\n      jump\t// in\n    tag_238:\n        /* \"#utility.yul\":3606:3816   */\n      swap3\n      swap2\n      pop\n      pop\n      jump\t// out\n        /* \"#utility.yul\":3822:3921   */\n    tag_178:\n        /* \"#utility.yul\":3874:3880   */\n      0x00\n        /* \"#utility.yul\":3908:3913   */\n      dup2\n        /* \"#utility.yul\":3902:3914   */\n      mload\n        /* \"#utility.yul\":3892:3914   */\n      swap1\n      pop\n        /* \"#utility.yul\":3822:3921   */\n      swap2\n      swap1\n      pop\n      jump\t// out\n        /* \"#utility.yul\":3927:4096   */\n    tag_179:\n        /* \"#utility.yul\":4011:4022   */\n      0x00\n        /* \"#utility.yul\":4045:4051   */\n      dup3\n        /* \"#utility.yul\":4040:4043   */\n      dup3\n        /* \"#utility.yul\":4033:4052   */\n      mstore\n        /* \"#utility.yul\":4085:4089   */\n      0x20\n        /* \"#utility.yul\":4080:4083   */\n      dup3\n        /* \"#utility.yul\":4076:4090   */\n      add\n        /* \"#utility.yul\":4061:4090   */\n      swap1\n      pop\n        /* \"#utility.yul\":3927:4096   */\n      swap3\n      swap2\n      pop\n      pop\n      jump\t// out\n        /* \"#utility.yul\":4102:4241   */\n    tag_180:\n        /* \"#utility.yul\":4191:4197   */\n      dup3\n        /* \"#utility.yul\":4186:4189   */\n      dup2\n        /* \"#utility.yul\":4181:4184   */\n      dup4\n        /* \"#utility.yul\":4175:4198   */\n      mcopy\n        /* \"#utility.yul\":4232:4233   */\n      0x00\n        /* \"#utility.yul\":4223:4229   */\n      dup4\n        /* \"#utility.yul\":4218:4221   */\n      dup4\n        /* \"#utility.yul\":4214:4230   */\n      add\n        /* \"#utility.yul\":4207:4234   */\n      mstore\n        /* \"#utility.yul\":4102:4241   */\n      pop\n      pop\n      pop\n      jump\t// out\n        /* \"#utility.yul\":4247:4624   */\n    tag_181:\n        /* \"#utility.yul\":4335:4338   */\n      0x00\n        /* \"#utility.yul\":4363:4402   */\n      tag_243\n        /* \"#utility.yul\":4396:4401   */\n      dup3\n        /* \"#utility.yul\":4363:4402   */\n      tag_178\n      jump\t// in\n    tag_243:\n        /* \"#utility.yul\":4418:4489   */\n      tag_244\n        /* \"#utility.yul\":4482:4488   */\n      dup2\n        /* \"#utility.yul\":4477:4480   */\n      dup6\n        /* \"#utility.yul\":4418:4489   */\n      tag_179\n      jump\t// in\n    tag_244:\n        /* \"#utility.yul\":4411:4489   */\n      swap4\n      pop\n        /* \"#utility.yul\":4498:4563   */\n      tag_245\n        /* \"#utility.yul\":4556:4562   */\n      dup2\n        /* \"#utility.yul\":4551:4554   */\n      dup6\n        /* \"#utility.yul\":4544:4548   */\n      0x20\n        /* \"#utility.yul\":4537:4542   */\n      dup7\n        /* \"#utility.yul\":4533:4549   */\n      add\n        /* \"#utility.yul\":4498:4563   */\n      tag_180\n      jump\t// in\n    tag_245:\n        /* \"#utility.yul\":4588:4617   */\n      tag_246\n        /* \"#utility.yul\":4610:4616   */\n      dup2\n        /* \"#utility.yul\":4588:4617   */\n      tag_169\n      jump\t// in\n    tag_246:\n        /* \"#utility.yul\":4583:4586   */\n      dup5\n        /* \"#utility.yul\":4579:4618   */\n      add\n        /* \"#utility.yul\":4572:4618   */\n      swap2\n      pop\n        /* \"#utility.yul\":4339:4624   */\n      pop\n        /* \"#utility.yul\":4247:4624   */\n      swap3\n      swap2\n      pop\n      pop\n      jump\t// out\n        /* \"#utility.yul\":4630:4943   */\n    tag_16:\n        /* \"#utility.yul\":4743:4747   */\n      0x00\n        /* \"#utility.yul\":4781:4783   */\n      0x20\n        /* \"#utility.yul\":4770:4779   */\n      dup3\n        /* \"#utility.yul\":4766:4784   */\n      add\n        /* \"#utility.yul\":4758:4784   */\n      swap1\n      pop\n        /* \"#utility.yul\":4830:4839   */\n      dup2\n        /* \"#utility.yul\":4824:4828   */\n      dup2\n        /* \"#utility.yul\":4820:4840   */\n      sub\n        /* \"#utility.yul\":4816:4817   */\n      0x00\n        /* \"#utility.yul\":4805:4814   */\n      dup4\n        /* \"#utility.yul\":4801:4818   */\n      add\n        /* \"#utility.yul\":4794:4841   */\n      mstore\n        /* \"#utility.yul\":4858:4936   */\n      tag_248\n        /* \"#utility.yul\":4931:4935   */\n      dup2\n        /* \"#utility.yul\":4922:4928   */\n      dup5\n        /* \"#utility.yul\":4858:4936   */\n      tag_181\n      jump\t// in\n    tag_248:\n        /* \"#utility.yul\":4850:4936   */\n      swap1\n      pop\n        /* \"#utility.yul\":4630:4943   */\n      swap3\n      swap2\n      pop\n      pop\n      jump\t// out\n        /* \"#utility.yul\":4949:5073   */\n    tag_182:\n        /* \"#utility.yul\":5026:5032   */\n      0x00\n        /* \"#utility.yul\":5060:5065   */\n      dup2\n        /* \"#utility.yul\":5054:5066   */\n      mload\n        /* \"#utility.yul\":5044:5066   */\n      swap1\n      pop\n        /* \"#utility.yul\":4949:5073   */\n      swap2\n      swap1\n      pop\n      jump\t// out\n        /* \"#utility.yul\":5079:5273   */\n    tag_183:\n        /* \"#utility.yul\":5188:5199   */\n      0x00\n        /* \"#utility.yul\":5222:5228   */\n      dup3\n        /* \"#utility.yul\":5217:5220   */\n      dup3\n        /* \"#utility.yul\":5210:5229   */\n      mstore\n        /* \"#utility.yul\":5262:5266   */\n      0x20\n        /* \"#utility.yul\":5257:5260   */\n      dup3\n        /* \"#utility.yul\":5253:5267   */\n      add\n        /* \"#utility.yul\":5238:5267   */\n      swap1\n      pop\n        /* \"#utility.yul\":5079:5273   */\n      swap3\n      swap2\n      pop\n      pop\n      jump\t// out\n        /* \"#utility.yul\":5279:5421   */\n    tag_184:\n        /* \"#utility.yul\":5356:5360   */\n      0x00\n        /* \"#utility.yul\":5379:5382   */\n      dup2\n        /* \"#utility.yul\":5371:5382   */\n      swap1\n      pop\n        /* \"#utility.yul\":5409:5413   */\n      0x20\n        /* \"#utility.yul\":5404:5407   */\n      dup3\n        /* \"#utility.yul\":5400:5414   */\n      add\n        /* \"#utility.yul\":5392:5414   */\n      swap1\n      pop\n        /* \"#utility.yul\":5279:5421   */\n      swap2\n      swap1\n      pop\n      jump\t// out\n        /* \"#utility.yul\":5427:5586   */\n    tag_185:\n        /* \"#utility.yul\":5501:5512   */\n      0x00\n        /* \"#utility.yul\":5535:5541   */\n      dup3\n        /* \"#utility.yul\":5530:5533   */\n      dup3\n        /* \"#utility.yul\":5523:5542   */\n      mstore\n        /* \"#utility.yul\":5575:5579   */\n      0x20\n        /* \"#utility.yul\":5570:5573   */\n      dup3\n        /* \"#utility.yul\":5566:5580   */\n      add\n        /* \"#utility.yul\":5551:5580   */\n      swap1\n      pop\n        /* \"#utility.yul\":5427:5586   */\n      swap3\n      swap2\n      pop\n      pop\n      jump\t// out\n        /* \"#utility.yul\":5592:5949   */\n    tag_186:\n        /* \"#utility.yul\":5670:5673   */\n      0x00\n        /* \"#utility.yul\":5698:5737   */\n      tag_254\n        /* \"#utility.yul\":5731:5736   */\n      dup3\n        /* \"#utility.yul\":5698:5737   */\n      tag_178\n      jump\t// in\n    tag_254:\n        /* \"#utility.yul\":5753:5814   */\n      tag_255\n        /* \"#utility.yul\":5807:5813   */\n      dup2\n        /* \"#utility.yul\":5802:5805   */\n      dup6\n        /* \"#utility.yul\":5753:5814   */\n      tag_185\n      jump\t// in\n    tag_255:\n        /* \"#utility.yul\":5746:5814   */\n      swap4\n      pop\n        /* \"#utility.yul\":5823:5888   */\n      tag_256\n        /* \"#utility.yul\":5881:5887   */\n      dup2\n        /* \"#utility.yul\":5876:5879   */\n      dup6\n        /* \"#utility.yul\":5869:5873   */\n      0x20\n        /* \"#utility.yul\":5862:5867   */\n      dup7\n        /* \"#utility.yul\":5858:5874   */\n      add\n        /* \"#utility.yul\":5823:5888   */\n      tag_180\n      jump\t// in\n    tag_256:\n        /* \"#utility.yul\":5913:5942   */\n      tag_257\n        /* \"#utility.yul\":5935:5941   */\n      dup2\n        /* \"#utility.yul\":5913:5942   */\n      tag_169\n      jump\t// in\n    tag_257:\n        /* \"#utility.yul\":5908:5911   */\n      dup5\n        /* \"#utility.yul\":5904:5943   */\n      add\n        /* \"#utility.yul\":5897:5943   */\n      swap2\n      pop\n        /* \"#utility.yul\":5674:5949   */\n      pop\n        /* \"#utility.yul\":5592:5949   */\n      swap3\n      swap2\n      pop\n      pop\n      jump\t// out\n        /* \"#utility.yul\":5955:6151   */\n    tag_187:\n        /* \"#utility.yul\":6044:6054   */\n      0x00\n        /* \"#utility.yul\":6079:6145   */\n      tag_259\n        /* \"#utility.yul\":6141:6144   */\n      dup4\n        /* \"#utility.yul\":6133:6139   */\n      dup4\n        /* \"#utility.yul\":6079:6145   */\n      tag_186\n      jump\t// in\n    tag_259:\n        /* \"#utility.yul\":6065:6145   */\n      swap1\n      pop\n        /* \"#utility.yul\":5955:6151   */\n      swap3\n      swap2\n      pop\n      pop\n      jump\t// out\n        /* \"#utility.yul\":6157:6280   */\n    tag_188:\n        /* \"#utility.yul\":6237:6241   */\n      0x00\n        /* \"#utility.yul\":6269:6273   */\n      0x20\n        /* \"#utility.yul\":6264:6267   */\n      dup3\n        /* \"#utility.yul\":6260:6274   */\n      add\n        /* \"#utility.yul\":6252:6274   */\n      swap1\n      pop\n        /* \"#utility.yul\":6157:6280   */\n      swap2\n      swap1\n      pop\n      jump\t// out\n        /* \"#utility.yul\":6314:7305   */\n    tag_189:\n        /* \"#utility.yul\":6453:6456   */\n      0x00\n        /* \"#utility.yul\":6482:6546   */\n      tag_262\n        /* \"#utility.yul\":6540:6545   */\n      dup3\n        /* \"#utility.yul\":6482:6546   */\n      tag_182\n      jump\t// in\n    tag_262:\n        /* \"#utility.yul\":6562:6658   */\n      tag_263\n        /* \"#utility.yul\":6651:6657   */\n      dup2\n        /* \"#utility.yul\":6646:6649   */\n      dup6\n        /* \"#utility.yul\":6562:6658   */\n      tag_183\n      jump\t// in\n    tag_263:\n        /* \"#utility.yul\":6555:6658   */\n      swap4\n      pop\n        /* \"#utility.yul\":6684:6687   */\n      dup4\n        /* \"#utility.yul\":6729:6733   */\n      0x20\n        /* \"#utility.yul\":6721:6727   */\n      dup3\n        /* \"#utility.yul\":6717:6734   */\n      mul\n        /* \"#utility.yul\":6712:6715   */\n      dup6\n        /* \"#utility.yul\":6708:6735   */\n      add\n        /* \"#utility.yul\":6759:6825   */\n      tag_264\n        /* \"#utility.yul\":6819:6824   */\n      dup6\n        /* \"#utility.yul\":6759:6825   */\n      tag_184\n      jump\t// in\n    tag_264:\n        /* \"#utility.yul\":6848:6855   */\n      dup1\n        /* \"#utility.yul\":6879:6880   */\n      0x00\n        /* \"#utility.yul\":6864:7260   */\n    tag_265:\n        /* \"#utility.yul\":6889:6895   */\n      dup6\n        /* \"#utility.yul\":6886:6887   */\n      dup2\n        /* \"#utility.yul\":6883:6896   */\n      lt\n        /* \"#utility.yul\":6864:7260   */\n      iszero\n      tag_267\n      jumpi\n        /* \"#utility.yul\":6960:6969   */\n      dup5\n        /* \"#utility.yul\":6954:6958   */\n      dup5\n        /* \"#utility.yul\":6950:6970   */\n      sub\n        /* \"#utility.yul\":6945:6948   */\n      dup10\n        /* \"#utility.yul\":6938:6971   */\n      mstore\n        /* \"#utility.yul\":7011:7017   */\n      dup2\n        /* \"#utility.yul\":7005:7018   */\n      mload\n        /* \"#utility.yul\":7039:7123   */\n      tag_268\n        /* \"#utility.yul\":7118:7122   */\n      dup6\n        /* \"#utility.yul\":7103:7116   */\n      dup3\n        /* \"#utility.yul\":7039:7123   */\n      tag_187\n      jump\t// in\n    tag_268:\n        /* \"#utility.yul\":7031:7123   */\n      swap5\n      pop\n        /* \"#utility.yul\":7146:7216   */\n      tag_269\n        /* \"#utility.yul\":7209:7215   */\n      dup4\n        /* \"#utility.yul\":7146:7216   */\n      tag_188\n      jump\t// in\n    tag_269:\n        /* \"#utility.yul\":7136:7216   */\n      swap3\n      pop\n        /* \"#utility.yul\":7245:7249   */\n      0x20\n        /* \"#utility.yul\":7240:7243   */\n      dup11\n        /* \"#utility.yul\":7236:7250   */\n      add\n        /* \"#utility.yul\":7229:7250   */\n      swap10\n      pop\n        /* \"#utility.yul\":6924:7260   */\n      pop\n        /* \"#utility.yul\":6911:6912   */\n      0x01\n        /* \"#utility.yul\":6908:6909   */\n      dup2\n        /* \"#utility.yul\":6904:6913   */\n      add\n        /* \"#utility.yul\":6899:6913   */\n      swap1\n      pop\n        /* \"#utility.yul\":6864:7260   */\n      jump(tag_265)\n    tag_267:\n        /* \"#utility.yul\":6868:6882   */\n      pop\n        /* \"#utility.yul\":7276:7280   */\n      dup3\n        /* \"#utility.yul\":7269:7280   */\n      swap8\n      pop\n        /* \"#utility.yul\":7296:7299   */\n      dup8\n        /* \"#utility.yul\":7289:7299   */\n      swap6\n      pop\n        /* \"#utility.yul\":6458:7305   */\n      pop\n      pop\n      pop\n      pop\n      pop\n        /* \"#utility.yul\":6314:7305   */\n      swap3\n      swap2\n      pop\n      pop\n      jump\t// out\n        /* \"#utility.yul\":7311:7724   */\n    tag_21:\n        /* \"#utility.yul\":7474:7478   */\n      0x00\n        /* \"#utility.yul\":7512:7514   */\n      0x20\n        /* \"#utility.yul\":7501:7510   */\n      dup3\n        /* \"#utility.yul\":7497:7515   */\n      add\n        /* \"#utility.yul\":7489:7515   */\n      swap1\n      pop\n        /* \"#utility.yul\":7561:7570   */\n      dup2\n        /* \"#utility.yul\":7555:7559   */\n      dup2\n        /* \"#utility.yul\":7551:7571   */\n      sub\n        /* \"#utility.yul\":7547:7548   */\n      0x00\n        /* \"#utility.yul\":7536:7545   */\n      dup4\n        /* \"#utility.yul\":7532:7549   */\n      add\n        /* \"#utility.yul\":7525:7572   */\n      mstore\n        /* \"#utility.yul\":7589:7717   */\n      tag_271\n        /* \"#utility.yul\":7712:7716   */\n      dup2\n        /* \"#utility.yul\":7703:7709   */\n      dup5\n        /* \"#utility.yul\":7589:7717   */\n      tag_189\n      jump\t// in\n    tag_271:\n        /* \"#utility.yul\":7581:7717   */\n      swap1\n      pop\n        /* \"#utility.yul\":7311:7724   */\n      swap3\n      swap2\n      pop\n      pop\n      jump\t// out\n        /* \"#utility.yul\":7730:7807   */\n    tag_190:\n        /* \"#utility.yul\":7767:7774   */\n      0x00\n        /* \"#utility.yul\":7796:7801   */\n      dup2\n        /* \"#utility.yul\":7785:7801   */\n      swap1\n      pop\n        /* \"#utility.yul\":7730:7807   */\n      swap2\n      swap1\n      pop\n      jump\t// out\n        /* \"#utility.yul\":7813:7993   */\n    tag_191:\n        /* \"#utility.yul\":7861:7938   */\n      0x4e487b7100000000000000000000000000000000000000000000000000000000\n        /* \"#utility.yul\":7858:7859   */\n      0x00\n        /* \"#utility.yul\":7851:7939   */\n      mstore\n        /* \"#utility.yul\":7958:7962   */\n      0x11\n        /* \"#utility.yul\":7955:7956   */\n      0x04\n        /* \"#utility.yul\":7948:7963   */\n      mstore\n        /* \"#utility.yul\":7982:7986   */\n      0x24\n        /* \"#utility.yul\":7979:7980   */\n      0x00\n        /* \"#utility.yul\":7972:7987   */\n      revert\n        /* \"#utility.yul\":7999:8190   */\n    tag_39:\n        /* \"#utility.yul\":8039:8042   */\n      0x00\n        /* \"#utility.yul\":8058:8078   */\n      tag_275\n        /* \"#utility.yul\":8076:8077   */\n      dup3\n        /* \"#utility.yul\":8058:8078   */\n      tag_190\n      jump\t// in\n    tag_275:\n        /* \"#utility.yul\":8053:8078   */\n      swap2\n      pop\n        /* \"#utility.yul\":8092:8112   */\n      tag_276\n        /* \"#utility.yul\":8110:8111   */\n      dup4\n        /* \"#utility.yul\":8092:8112   */\n      tag_190\n      jump\t// in\n    tag_276:\n        /* \"#utility.yul\":8087:8112   */\n      swap3\n      pop\n        /* \"#utility.yul\":8135:8136   */\n      dup3\n        /* \"#utility.yul\":8132:8133   */\n      dup3\n        /* \"#utility.yul\":8128:8137   */\n      add\n        /* \"#utility.yul\":8121:8137   */\n      swap1\n      pop\n        /* \"#utility.yul\":8156:8159   */\n      dup1\n        /* \"#utility.yul\":8153:8154   */\n      dup3\n        /* \"#utility.yul\":8150:8160   */\n      gt\n        /* \"#utility.yul\":8147:8183   */\n      iszero\n      tag_277\n      jumpi\n        /* \"#utility.yul\":8163:8181   */\n      tag_278\n      tag_191\n      jump\t// in\n    tag_278:\n        /* \"#utility.yul\":8147:8183   */\n    tag_277:\n        /* \"#utility.yul\":7999:8190   */\n      swap3\n      swap2\n      pop\n      pop\n      jump\t// out\n        /* \"#utility.yul\":8196:8376   */\n    tag_54:\n        /* \"#utility.yul\":8244:8321   */\n      0x4e487b7100000000000000000000000000000000000000000000000000000000\n        /* \"#utility.yul\":8241:8242   */\n      0x00\n        /* \"#utility.yul\":8234:8322   */\n      mstore\n        /* \"#utility.yul\":8341:8345   */\n      0x32\n        /* \"#utility.yul\":8338:8339   */\n      0x04\n        /* \"#utility.yul\":8331:8346   */\n      mstore\n        /* \"#utility.yul\":8365:8369   */\n      0x24\n        /* \"#utility.yul\":8362:8363   */\n      0x00\n        /* \"#utility.yul\":8355:8370   */\n      revert\n        /* \"#utility.yul\":8382:8615   */\n    tag_78:\n        /* \"#utility.yul\":8421:8424   */\n      0x00\n        /* \"#utility.yul\":8444:8468   */\n      tag_281\n        /* \"#utility.yul\":8462:8467   */\n      dup3\n        /* \"#utility.yul\":8444:8468   */\n      tag_190\n      jump\t// in\n    tag_281:\n        /* \"#utility.yul\":8435:8468   */\n      swap2\n      pop\n        /* \"#utility.yul\":8490:8556   */\n      0xffffffffffffffffffffffffffffffffffffffffffffffffffffffffffffffff\n        /* \"#utility.yul\":8483:8488   */\n      dup3\n        /* \"#utility.yul\":8480:8557   */\n      sub\n        /* \"#utility.yul\":8477:8580   */\n      tag_282\n      jumpi\n        /* \"#utility.yul\":8560:8578   */\n      tag_283\n      tag_191\n      jump\t// in\n    tag_283:\n        /* \"#utility.yul\":8477:8580   */\n    tag_282:\n        /* \"#utility.yul\":8607:8608   */\n      0x01\n        /* \"#utility.yul\":8600:8605   */\n      dup3\n        /* \"#utility.yul\":8596:8609   */\n      add\n        /* \"#utility.yul\":8589:8609   */\n      swap1\n      pop\n        /* \"#utility.yul\":8382:8615   */\n      swap2\n      swap1\n      pop\n      jump\t// out\n        /* \"#utility.yul\":8621:8815   */\n    tag_81:\n        /* \"#utility.yul\":8661:8665   */\n      0x00\n        /* \"#utility.yul\":8681:8701   */\n      tag_285\n        /* \"#utility.yul\":8699:8700   */\n      dup3\n        /* \"#utility.yul\":8681:8701   */\n      tag_190\n      jump\t// in\n    tag_285:\n        /* \"#utility.yul\":8676:8701   */\n      swap2\n      pop\n        /* \"#utility.yul\":8715:8735   */\n      tag_286\n        /* \"#utility.yul\":8733:8734   */\n      dup4\n        /* \"#utility.yul\":8715:8735   */\n      tag_190\n      jump\t// in\n    tag_286:\n        /* \"#utility.yul\":8710:8735   */\n      swap3\n      pop\n        /* \"#utility.yul\":8759:8760   */\n      dup3\n        /* \"#utility.yul\":8756:8757   */\n      dup3\n        /* \"#utility.yul\":8752:8761   */\n      sub\n        /* \"#utility.yul\":8744:8761   */\n      swap1\n      pop\n        /* \"#utility.yul\":8783:8784   */\n      dup2\n        /* \"#utility.yul\":8777:8781   */\n      dup2\n        /* \"#utility.yul\":8774:8785   */\n      gt\n        /* \"#utility.yul\":8771:8808   */\n      iszero\n      tag_287\n      jumpi\n        /* \"#utility.yul\":8788:8806   */\n      tag_288\n      tag_191\n      jump\t// in\n    tag_288:\n        /* \"#utility.yul\":8771:8808   */\n    tag_287:\n        /* \"#utility.yul\":8621:8815   */\n      swap3\n      swap2\n      pop\n      pop\n      jump\t// out\n        /* \"#utility.yul\":8821:9231   */\n    tag_99:\n        /* \"#utility.yul\":8861:8868   */\n      0x00\n        /* \"#utility.yul\":8884:8904   */\n      tag_290\n        /* \"#utility.yul\":8902:8903   */\n      dup3\n        /* \"#utility.yul\":8884:8904   */\n      tag_190\n      jump\t// in\n    tag_290:\n        /* \"#utility.yul\":8879:8904   */\n      swap2\n      pop\n        /* \"#utility.yul\":8918:8938   */\n      tag_291\n        /* \"#utility.yul\":8936:8937   */\n      dup4\n        /* \"#utility.yul\":8918:8938   */\n      tag_190\n      jump\t// in\n    tag_291:\n        /* \"#utility.yul\":8913:8938   */\n      swap3\n      pop\n        /* \"#utility.yul\":8973:8974   */\n      dup3\n        /* \"#utility.yul\":8970:8971   */\n      dup3\n        /* \"#utility.yul\":8966:8975   */\n      mul\n        /* \"#utility.yul\":8995:9025   */\n      tag_292\n        /* \"#utility.yul\":9013:9024   */\n      dup2\n        /* \"#utility.yul\":8995:9025   */\n      tag_190\n      jump\t// in\n    tag_292:\n        /* \"#utility.yul\":8984:9025   */\n      swap2\n      pop\n        /* \"#utility.yul\":9174:9175   */\n      dup3\n        /* \"#utility.yul\":9165:9172   */\n      dup3\n        /* \"#utility.yul\":9161:9176   */\n      div\n        /* \"#utility.yul\":9158:9159   */\n      dup5\n        /* \"#utility.yul\":9155:9177   */\n      eq\n        /* \"#utility.yul\":9135:9136   */\n      dup4\n        /* \"#utility.yul\":9128:9137   */\n      iszero\n        /* \"#utility.yul\":9108:9191   */\n      or\n        /* \"#utility.yul\":9085:9224   */\n      tag_293\n      jumpi\n        /* \"#utility.yul\":9204:9222   */\n      tag_294\n      tag_191\n      jump\t// in\n    tag_294:\n        /* \"#utility.yul\":9085:9224   */\n    tag_293:\n        /* \"#utility.yul\":8869:9231   */\n      pop\n        /* \"#utility.yul\":8821:9231   */\n      swap3\n      swap2\n      pop\n      pop\n      jump\t// out\n        /* \"#utility.yul\":9237:9339   */\n    tag_192:\n        /* \"#utility.yul\":9279:9287   */\n      0x00\n        /* \"#utility.yul\":9326:9331   */\n      dup2\n        /* \"#utility.yul\":9323:9324   */\n      0x01\n        /* \"#utility.yul\":9319:9332   */\n      shr\n        /* \"#utility.yul\":9298:9332   */\n      swap1\n      pop\n        /* \"#utility.yul\":9237:9339   */\n      swap2\n      swap1\n      pop\n      jump\t// out\n        /* \"#utility.yul\":9345:10193   */\n    tag_193:\n        /* \"#utility.yul\":9406:9411   */\n      0x00\n        /* \"#utility.yul\":9413:9417   */\n      0x00\n        /* \"#utility.yul\":9437:9443   */\n      dup3\n        /* \"#utility.yul\":9428:9443   */\n      swap2\n      pop\n        /* \"#utility.yul\":9461:9466   */\n      dup4\n        /* \"#utility.yul\":9452:9466   */\n      swap1\n      pop\n        /* \"#utility.yul\":9475:10187   */\n    tag_297:\n        /* \"#utility.yul\":9496:9497   */\n      0x01\n        /* \"#utility.yul\":9486:9494   */\n      dup6\n        /* \"#utility.yul\":9483:9498   */\n      gt\n        /* \"#utility.yul\":9475:10187   */\n      iszero\n      tag_299\n      jumpi\n        /* \"#utility.yul\":9591:9595   */\n      dup1\n        /* \"#utility.yul\":9586:9589   */\n      dup7\n        /* \"#utility.yul\":9582:9596   */\n      div\n        /* \"#utility.yul\":9576:9580   */\n      dup2\n        /* \"#utility.yul\":9573:9597   */\n      gt\n        /* \"#utility.yul\":9570:9620   */\n      iszero\n      tag_300\n      jumpi\n        /* \"#utility.yul\":9600:9618   */\n      tag_301\n      tag_191\n      jump\t// in\n    tag_301:\n        /* \"#utility.yul\":9570:9620   */\n    tag_300:\n        /* \"#utility.yul\":9650:9651   */\n      0x01\n        /* \"#utility.yul\":9640:9648   */\n      dup6\n        /* \"#utility.yul\":9636:9652   */\n      and\n        /* \"#utility.yul\":9633:10084   */\n      iszero\n      tag_302\n      jumpi\n        /* \"#utility.yul\":10065:10069   */\n      dup1\n        /* \"#utility.yul\":10058:10063   */\n      dup3\n        /* \"#utility.yul\":10054:10070   */\n      mul\n        /* \"#utility.yul\":10045:10070   */\n      swap2\n      pop\n        /* \"#utility.yul\":9633:10084   */\n    tag_302:\n        /* \"#utility.yul\":10115:10119   */\n      dup1\n        /* \"#utility.yul\":10109:10113   */\n      dup2\n        /* \"#utility.yul\":10105:10120   */\n      mul\n        /* \"#utility.yul\":10097:10120   */\n      swap1\n      pop\n        /* \"#utility.yul\":10145:10177   */\n      tag_303\n        /* \"#utility.yul\":10168:10176   */\n      dup6\n        /* \"#utility.yul\":10145:10177   */\n      tag_192\n      jump\t// in\n    tag_303:\n        /* \"#utility.yul\":10133:10177   */\n      swap5\n      pop\n        /* \"#utility.yul\":9475:10187   */\n      jump(tag_297)\n    tag_299:\n        /* \"#utility.yul\":9345:10193   */\n      swap5\n      pop\n      swap5\n      swap3\n      pop\n      pop\n      pop\n      jump\t// out\n        /* \"#utility.yul\":10199:11272   */\n    tag_194:\n        /* \"#utility.yul\":10253:10258   */\n      0x00\n        /* \"#utility.yul\":10444:10452   */\n      dup3\n        /* \"#utility.yul\":10434:10474   */\n      tag_305\n      jumpi\n        /* \"#utility.yul\":10465:10466   */\n      0x01\n        /* \"#utility.yul\":10456:10466   */\n      swap1\n      pop\n        /* \"#utility.yul\":10467:10472   */\n      jump(tag_304)\n        /* \"#utility.yul\":10434:10474   */\n    tag_305:\n        /* \"#utility.yul\":10493:10497   */\n      dup2\n        /* \"#utility.yul\":10483:10519   */\n      tag_306\n      jumpi\n        /* \"#utility.yul\":10510:10511   */\n      0x00\n        /* \"#utility.yul\":10501:10511   */\n      swap1\n      pop\n        /* \"#utility.yul\":10512:10517   */\n      jump(tag_304)\n        /* \"#utility.yul\":10483:10519   */\n    tag_306:\n        /* \"#utility.yul\":10579:10583   */\n      dup2\n        /* \"#utility.yul\":10627:10628   */\n      0x01\n        /* \"#utility.yul\":10622:10649   */\n      dup2\n      eq\n      tag_308\n      jumpi\n        /* \"#utility.yul\":10663:10664   */\n      0x02\n        /* \"#utility.yul\":10658:10849   */\n      dup2\n      eq\n      tag_309\n      jumpi\n        /* \"#utility.yul\":10572:10849   */\n      jump(tag_307)\n        /* \"#utility.yul\":10622:10649   */\n    tag_308:\n        /* \"#utility.yul\":10640:10641   */\n      0x01\n        /* \"#utility.yul\":10631:10641   */\n      swap2\n      pop\n        /* \"#utility.yul\":10642:10647   */\n      pop\n      jump(tag_304)\n        /* \"#utility.yul\":10658:10849   */\n    tag_309:\n        /* \"#utility.yul\":10703:10706   */\n      0xff\n        /* \"#utility.yul\":10693:10701   */\n      dup5\n        /* \"#utility.yul\":10690:10707   */\n      gt\n        /* \"#utility.yul\":10687:10730   */\n      iszero\n      tag_310\n      jumpi\n        /* \"#utility.yul\":10710:10728   */\n      tag_311\n      tag_191\n      jump\t// in\n    tag_311:\n        /* \"#utility.yul\":10687:10730   */\n    tag_310:\n        /* \"#utility.yul\":10759:10767   */\n      dup4\n        /* \"#utility.yul\":10756:10757   */\n      0x02\n        /* \"#utility.yul\":10752:10768   */\n      exp\n        /* \"#utility.yul\":10743:10768   */\n      swap2\n      pop\n        /* \"#utility.yul\":10794:10797   */\n      dup5\n        /* \"#utility.yul\":10787:10792   */\n      dup3\n        /* \"#utility.yul\":10784:10798   */\n      gt\n        /* \"#utility.yul\":10781:10821   */\n      iszero\n      tag_312\n      jumpi\n        /* \"#utility.yul\":10801:10819   */\n      tag_313\n      tag_191\n      jump\t// in\n    tag_313:\n        /* \"#utility.yul\":10781:10821   */\n    tag_312:\n        /* \"#utility.yul\":10834:10839   */\n      pop\n      jump(tag_304)\n        /* \"#utility.yul\":10572:10849   */\n    tag_307:\n      pop\n        /* \"#utility.yul\":10958:10960   */\n      0x20\n        /* \"#utility.yul\":10948:10956   */\n      dup4\n        /* \"#utility.yul\":10945:10961   */\n      lt\n        /* \"#utility.yul\":10939:10942   */\n      0x0133\n        /* \"#utility.yul\":10933:10937   */\n      dup4\n        /* \"#utility.yul\":10930:10943   */\n      lt\n        /* \"#utility.yul\":10926:10962   */\n      and\n        /* \"#utility.yul\":10908:10910   */\n      0x4e\n        /* \"#utility.yul\":10898:10906   */\n      dup5\n        /* \"#utility.yul\":10895:10911   */\n      lt\n        /* \"#utility.yul\":10890:10892   */\n      0x0b\n        /* \"#utility.yul\":10884:10888   */\n      dup5\n        /* \"#utility.yul\":10881:10893   */\n      lt\n        /* \"#utility.yul\":10877:10912   */\n      and\n        /* \"#utility.yul\":10861:10972   */\n      or\n        /* \"#utility.yul\":10858:11104   */\n      iszero\n      tag_314\n      jumpi\n        /* \"#utility.yul\":11014:11022   */\n      dup3\n        /* \"#utility.yul\":11008:11012   */\n      dup3\n        /* \"#utility.yul\":11004:11023   */\n      exp\n        /* \"#utility.yul\":10995:11023   */\n      swap1\n      pop\n        /* \"#utility.yul\":11049:11052   */\n      dup4\n        /* \"#utility.yul\":11042:11047   */\n      dup2\n        /* \"#utility.yul\":11039:11053   */\n      gt\n        /* \"#utility.yul\":11036:11076   */\n      iszero\n      tag_315\n      jumpi\n        /* \"#utility.yul\":11056:11074   */\n      tag_316\n      tag_191\n      jump\t// in\n    tag_316:\n        /* \"#utility.yul\":11036:11076   */\n    tag_315:\n        /* \"#utility.yul\":11089:11094   */\n      jump(tag_304)\n        /* \"#utility.yul\":10858:11104   */\n    tag_314:\n        /* \"#utility.yul\":11129:11171   */\n      tag_317\n        /* \"#utility.yul\":11167:11170   */\n      dup5\n        /* \"#utility.yul\":11157:11165   */\n      dup5\n        /* \"#utility.yul\":11151:11155   */\n      dup5\n        /* \"#utility.yul\":11148:11149   */\n      0x01\n        /* \"#utility.yul\":11129:11171   */\n      tag_193\n      jump\t// in\n    tag_317:\n        /* \"#utility.yul\":11114:11171   */\n      swap3\n      pop\n      swap1\n      pop\n        /* \"#utility.yul\":11203:11207   */\n      dup2\n        /* \"#utility.yul\":11198:11201   */\n      dup5\n        /* \"#utility.yul\":11194:11208   */\n      div\n        /* \"#utility.yul\":11187:11192   */\n      dup2\n        /* \"#utility.yul\":11184:11209   */\n      gt\n        /* \"#utility.yul\":11181:11232   */\n      iszero\n      tag_318\n      jumpi\n        /* \"#utility.yul\":11212:11230   */\n      tag_319\n      tag_191\n      jump\t// in\n    tag_319:\n        /* \"#utility.yul\":11181:11232   */\n    tag_318:\n        /* \"#utility.yul\":11261:11265   */\n      dup2\n        /* \"#utility.yul\":11254:11259   */\n      dup2\n        /* \"#utility.yul\":11250:11266   */\n      mul\n        /* \"#utility.yul\":11241:11266   */\n      swap1\n      pop\n        /* \"#utility.yul\":10199:11272   */\n    tag_304:\n      swap4\n      swap3\n      pop\n      pop\n      pop\n      jump\t// out\n        /* \"#utility.yul\":11278:11563   */\n    tag_101:\n        /* \"#utility.yul\":11338:11343   */\n      0x00\n        /* \"#utility.yul\":11362:11385   */\n      tag_321\n        /* \"#utility.yul\":11380:11384   */\n      dup3\n        /* \"#utility.yul\":11362:11385   */\n      tag_190\n      jump\t// in\n    tag_321:\n        /* \"#utility.yul\":11354:11385   */\n      swap2\n      pop\n        /* \"#utility.yul\":11406:11433   */\n      tag_322\n        /* \"#utility.yul\":11424:11432   */\n      dup4\n        /* \"#utility.yul\":11406:11433   */\n      tag_190\n      jump\t// in\n    tag_322:\n        /* \"#utility.yul\":11394:11433   */\n      swap3\n      pop\n        /* \"#utility.yul\":11452:11556   */\n      tag_323\n        /* \"#utility.yul\":11489:11555   */\n      0xffffffffffffffffffffffffffffffffffffffffffffffffffffffffffffffff\n        /* \"#utility.yul\":11479:11487   */\n      dup5\n        /* \"#utility.yul\":11473:11477   */\n      dup5\n        /* \"#utility.yul\":11452:11556   */\n      tag_194\n      jump\t// in\n    tag_323:\n        /* \"#utility.yul\":11443:11556   */\n      swap1\n      pop\n        /* \"#utility.yul\":11278:11563   */\n      swap3\n      swap2\n      pop\n      pop\n      jump\t// out\n        /* \"#utility.yul\":11569:11740   */\n    tag_109:\n        /* \"#utility.yul\":11608:11611   */\n      0x00\n        /* \"#utility.yul\":11631:11655   */\n      tag_325\n        /* \"#utility.yul\":11649:11654   */\n      dup3\n        /* \"#utility.yul\":11631:11655   */\n      tag_190\n      jump\t// in\n    tag_325:\n        /* \"#utility.yul\":11622:11655   */\n      swap2\n      pop\n        /* \"#utility.yul\":11677:11681   */\n      0x00\n        /* \"#utility.yul\":11670:11675   */\n      dup3\n        /* \"#utility.yul\":11667:11682   */\n      sub\n        /* \"#utility.yul\":11664:11705   */\n      tag_326\n      jumpi\n        /* \"#utility.yul\":11685:11703   */\n      tag_327\n      tag_191\n      jump\t// in\n    tag_327:\n        /* \"#utility.yul\":11664:11705   */\n    tag_326:\n        /* \"#utility.yul\":11732:11733   */\n      0x01\n        /* \"#utility.yul\":11725:11730   */\n      dup3\n        /* \"#utility.yul\":11721:11734   */\n      sub\n        /* \"#utility.yul\":11714:11734   */\n      swap1\n      pop\n        /* \"#utility.yul\":11569:11740   */\n      swap2\n      swap1\n      pop\n      jump\t// out\n\n    auxdata: 0xa26469706673582212207b7c479f92defcbc7bdb7f09c40fb6c3ef12d13a7755897db618bfec7b511bed64736f6c634300081e0033\n}\n",
				"bytecode": {
					"linkReferences": {},
					"object": "6080604052348015600e575f5ffd5b50610ef78061001c5f395ff3fe608060405234801561000f575f5ffd5b506004361061003f575f3560e01c806310abbf8414610043578063266001d314610073578063f4311138146100a3575b5f5ffd5b61005d60048036038101906100589190610984565b6100d3565b60405161006a9190610a14565b60405180910390f35b61008d60048036038101906100889190610984565b6100ff565b60405161009a9190610a8d565b60405180910390f35b6100bd60048036038101906100b89190610984565b61012c565b6040516100ca9190610bb0565b60405180910390f35b5f6100f76100e083610216565b6100e985610216565b61024390919063ffffffff16565b905092915050565b606061012461010d83610216565b61011685610216565b61026d90919063ffffffff16565b905092915050565b60605f61013884610216565b90505f61014484610216565b90505f600161015c838561031490919063ffffffff16565b6101669190610c06565b67ffffffffffffffff81111561017f5761017e610860565b5b6040519080825280602002602001820160405280156101b257816020015b606081526020019060019003908161019d5790505b5090505f5f90505b8151811015610209576101de6101d984866103b490919063ffffffff16565b6103ce565b8282815181106101f1576101f0610c39565b5b602002602001018190525080806001019150506101ba565b5080935050505092915050565b61021e61081f565b5f60208301905060405180604001604052808451815260200182815250915050919050565b5f8260200151610263845f01518560200151855f01518660200151610446565b1415905092915050565b60605f825f0151845f01516102829190610c06565b67ffffffffffffffff81111561029b5761029a610860565b5b6040519080825280601f01601f1916602001820160405280156102cd5781602001600182028036833780820191505090505b5090505f6020820190506102e9818660200151875f0151610577565b610309855f0151826102fb9190610c06565b8560200151865f0151610577565b819250505092915050565b5f5f825f0151610334855f01518660200151865f01518760200151610621565b61033e9190610c06565b90505b835f015184602001516103549190610c06565b81116103ad57818061036590610c66565b925050825f015161039c85602001518361037f9190610cad565b865f015161038d9190610cad565b83865f01518760200151610621565b6103a69190610c06565b9050610341565b5092915050565b6103bc61081f565b6103c7838383610760565b5092915050565b60605f825f015167ffffffffffffffff8111156103ee576103ed610860565b5b6040519080825280601f01601f1916602001820160405280156104205781602001600182028036833780820191505090505b5090505f60208201905061043c818560200151865f0151610577565b8192505050919050565b5f5f85841161056a5760208411610509575f5f85111561049757600185602061046f9190610cad565b600861047b9190610ce0565b60026104879190610e50565b6104919190610cad565b195f1b90505b5f8185511690508588886104ab9190610c06565b6104b59190610cad565b92505f8284511690505b8181146104f2578784116104d9578794505050505061056f565b83806104e490610e9a565b9450508284511690506104bf565b86846104fe9190610c06565b94505050505061056f565b5f8484209050848761051b9190610cad565b866105269190610c06565b91505b858210610568575f85832090508082036105535785836105499190610c06565b935050505061056f565b6001836105609190610cad565b925050610529565b505b849150505b949350505050565b5b602081106105b657815183526020836105919190610c06565b92506020826105a09190610c06565b91506020816105af9190610cad565b9050610578565b5f7fffffffffffffffffffffffffffffffffffffffffffffffffffffffffffffffff90505f82111561060b5760018260206105f19190610cad565b6101006105fe9190610e50565b6106089190610cad565b90505b8019835116818551168181178652505050505050565b5f5f8490505f86851161074757602085116106ed575f5f86111561067657600186602061064e9190610cad565b600861065a9190610ce0565b60026106669190610e50565b6106709190610cad565b195f1b90505b5f8186511690505f878a8a61068b9190610c06565b6106959190610cad565b90505f8386511690505b8281146106df578186106106c6578a8a6106b99190610c06565b9650505050505050610758565b85806106d190610c66565b96505083865116905061069f565b859650505050505050610758565b5f85852090505f91505b85886107039190610cad565b8211610745575f86842090508082036107225783945050505050610758565b60018461072f9190610c06565b935050818061073d90610c66565b9250506106f7565b505b86866107539190610c06565b925050505b949350505050565b61076861081f565b5f610783855f01518660200151865f01518760200151610621565b905084602001518360200181815250508460200151816107a39190610cad565b835f018181525050845f015185602001516107be9190610c06565b81036107d2575f855f018181525050610814565b835f0151835f01516107e49190610c06565b855f018181516107f49190610cad565b91508181525050835f01518161080a9190610c06565b8560200181815250505b829150509392505050565b60405180604001604052805f81526020015f81525090565b5f604051905090565b5f5ffd5b5f5ffd5b5f5ffd5b5f5ffd5b5f601f19601f8301169050919050565b7f4e487b71000000000000000000000000000000000000000000000000000000005f52604160045260245ffd5b61089682610850565b810181811067ffffffffffffffff821117156108b5576108b4610860565b5b80604052505050565b5f6108c7610837565b90506108d3828261088d565b919050565b5f67ffffffffffffffff8211156108f2576108f1610860565b5b6108fb82610850565b9050602081019050919050565b828183375f83830152505050565b5f610928610923846108d8565b6108be565b9050828152602081018484840111156109445761094361084c565b5b61094f848285610908565b509392505050565b5f82601f83011261096b5761096a610848565b5b813561097b848260208601610916565b91505092915050565b5f5f6040838503121561099a57610999610840565b5b5f83013567ffffffffffffffff8111156109b7576109b6610844565b5b6109c385828601610957565b925050602083013567ffffffffffffffff8111156109e4576109e3610844565b5b6109f085828601610957565b9150509250929050565b5f8115159050919050565b610a0e816109fa565b82525050565b5f602082019050610a275f830184610a05565b92915050565b5f81519050919050565b5f82825260208201905092915050565b8281835e5f83830152505050565b5f610a5f82610a2d565b610a698185610a37565b9350610a79818560208601610a47565b610a8281610850565b840191505092915050565b5f6020820190508181035f830152610aa58184610a55565b905092915050565b5f81519050919050565b5f82825260208201905092915050565b5f819050602082019050919050565b5f82825260208201905092915050565b5f610af082610a2d565b610afa8185610ad6565b9350610b0a818560208601610a47565b610b1381610850565b840191505092915050565b5f610b298383610ae6565b905092915050565b5f602082019050919050565b5f610b4782610aad565b610b518185610ab7565b935083602082028501610b6385610ac7565b805f5b85811015610b9e5784840389528151610b7f8582610b1e565b9450610b8a83610b31565b925060208a01995050600181019050610b66565b50829750879550505050505092915050565b5f6020820190508181035f830152610bc88184610b3d565b905092915050565b5f819050919050565b7f4e487b71000000000000000000000000000000000000000000000000000000005f52601160045260245ffd5b5f610c1082610bd0565b9150610c1b83610bd0565b9250828201905080821115610c3357610c32610bd9565b5b92915050565b7f4e487b71000000000000000000000000000000000000000000000000000000005f52603260045260245ffd5b5f610c7082610bd0565b91507fffffffffffffffffffffffffffffffffffffffffffffffffffffffffffffffff8203610ca257610ca1610bd9565b5b600182019050919050565b5f610cb782610bd0565b9150610cc283610bd0565b9250828203905081811115610cda57610cd9610bd9565b5b92915050565b5f610cea82610bd0565b9150610cf583610bd0565b9250828202610d0381610bd0565b91508282048414831517610d1a57610d19610bd9565b5b5092915050565b5f8160011c9050919050565b5f5f8291508390505b6001851115610d7657808604811115610d5257610d51610bd9565b5b6001851615610d615780820291505b8081029050610d6f85610d21565b9450610d36565b94509492505050565b5f82610d8e5760019050610e49565b81610d9b575f9050610e49565b8160018114610db15760028114610dbb57610dea565b6001915050610e49565b60ff841115610dcd57610dcc610bd9565b5b8360020a915084821115610de457610de3610bd9565b5b50610e49565b5060208310610133831016604e8410600b8410161715610e1f5782820a905083811115610e1a57610e19610bd9565b5b610e49565b610e2c8484846001610d2d565b92509050818404811115610e4357610e42610bd9565b5b81810290505b9392505050565b5f610e5a82610bd0565b9150610e6583610bd0565b9250610e927fffffffffffffffffffffffffffffffffffffffffffffffffffffffffffffffff8484610d7f565b905092915050565b5f610ea482610bd0565b91505f8203610eb657610eb5610bd9565b5b60018203905091905056fea26469706673582212207b7c479f92defcbc7bdb7f09c40fb6c3ef12d13a7755897db618bfec7b511bed64736f6c634300081e0033",
					"opcodes": "PUSH1 0x80 PUSH1 0x40 MSTORE CALLVALUE DUP1 ISZERO PUSH1 0xE JUMPI PUSH0 PUSH0 REVERT JUMPDEST POP PUSH2 0xEF7 DUP1 PUSH2 0x1C PUSH0 CODECOPY PUSH0 RETURN INVALID PUSH1 0x80 PUSH1 0x40 MSTORE CALLVALUE DUP1 ISZERO PUSH2 0xF JUMPI PUSH0 PUSH0 REVERT JUMPDEST POP PUSH1 0x4 CALLDATASIZE LT PUSH2 0x3F JUMPI PUSH0 CALLDATALOAD PUSH1 0xE0 SHR DUP1 PUSH4 0x10ABBF84 EQ PUSH2 0x43 JUMPI DUP1 PUSH4 0x266001D3 EQ PUSH2 0x73 JUMPI DUP1 PUSH4 0xF4311138 EQ PUSH2 0xA3 JUMPI JUMPDEST PUSH0 PUSH0 REVERT JUMPDEST PUSH2 0x5D PUSH1 0x4 DUP1 CALLDATASIZE SUB DUP2 ADD SWAP1 PUSH2 0x58 SWAP2 SWAP1 PUSH2 0x984 JUMP JUMPDEST PUSH2 0xD3 JUMP JUMPDEST PUSH1 0x40 MLOAD PUSH2 0x6A SWAP2 SWAP1 PUSH2 0xA14 JUMP JUMPDEST PUSH1 0x40 MLOAD DUP1 SWAP2 SUB SWAP1 RETURN JUMPDEST PUSH2 0x8D PUSH1 0x4 DUP1 CALLDATASIZE SUB DUP2 ADD SWAP1 PUSH2 0x88 SWAP2 SWAP1 PUSH2 0x984 JUMP JUMPDEST PUSH2 0xFF JUMP JUMPDEST PUSH1 0x40 MLOAD PUSH2 0x9A SWAP2 SWAP1 PUSH2 0xA8D JUMP JUMPDEST PUSH1 0x40 MLOAD DUP1 SWAP2 SUB SWAP1 RETURN JUMPDEST PUSH2 0xBD PUSH1 0x4 DUP1 CALLDATASIZE SUB DUP2 ADD SWAP1 PUSH2 0xB8 SWAP2 SWAP1 PUSH2 0x984 JUMP JUMPDEST PUSH2 0x12C JUMP JUMPDEST PUSH1 0x40 MLOAD PUSH2 0xCA SWAP2 SWAP1 PUSH2 0xBB0 JUMP JUMPDEST PUSH1 0x40 MLOAD DUP1 SWAP2 SUB SWAP1 RETURN JUMPDEST PUSH0 PUSH2 0xF7 PUSH2 0xE0 DUP4 PUSH2 0x216 JUMP JUMPDEST PUSH2 0xE9 DUP6 PUSH2 0x216 JUMP JUMPDEST PUSH2 0x243 SWAP1 SWAP2 SWAP1 PUSH4 0xFFFFFFFF AND JUMP JUMPDEST SWAP1 POP SWAP3 SWAP2 POP POP JUMP JUMPDEST PUSH1 0x60 PUSH2 0x124 PUSH2 0x10D DUP4 PUSH2 0x216 JUMP JUMPDEST PUSH2 0x116 DUP6 PUSH2 0x216 JUMP JUMPDEST PUSH2 0x26D SWAP1 SWAP2 SWAP1 PUSH4 0xFFFFFFFF AND JUMP JUMPDEST SWAP1 POP SWAP3 SWAP2 POP POP JUMP JUMPDEST PUSH1 0x60 PUSH0 PUSH2 0x138 DUP5 PUSH2 0x216 JUMP JUMPDEST SWAP1 POP PUSH0 PUSH2 0x144 DUP5 PUSH2 0x216 JUMP JUMPDEST SWAP1 POP PUSH0 PUSH1 0x1 PUSH2 0x15C DUP4 DUP6 PUSH2 0x314 SWAP1 SWAP2 SWAP1 PUSH4 0xFFFFFFFF AND JUMP JUMPDEST PUSH2 0x166 SWAP2 SWAP1 PUSH2 0xC06 JUMP JUMPDEST PUSH8 0xFFFFFFFFFFFFFFFF DUP2 GT ISZERO PUSH2 0x17F JUMPI PUSH2 0x17E PUSH2 0x860 JUMP JUMPDEST JUMPDEST PUSH1 0x40 MLOAD SWAP1 DUP1 DUP3 MSTORE DUP1 PUSH1 0x20 MUL PUSH1 0x20 ADD DUP3 ADD PUSH1 0x40 MSTORE DUP1 ISZERO PUSH2 0x1B2 JUMPI DUP2 PUSH1 0x20 ADD JUMPDEST PUSH1 0x60 DUP2 MSTORE PUSH1 0x20 ADD SWAP1 PUSH1 0x1 SWAP1 SUB SWAP1 DUP2 PUSH2 0x19D JUMPI SWAP1 POP JUMPDEST POP SWAP1 POP PUSH0 PUSH0 SWAP1 POP JUMPDEST DUP2 MLOAD DUP2 LT ISZERO PUSH2 0x209 JUMPI PUSH2 0x1DE PUSH2 0x1D9 DUP5 DUP7 PUSH2 0x3B4 SWAP1 SWAP2 SWAP1 PUSH4 0xFFFFFFFF AND JUMP JUMPDEST PUSH2 0x3CE JUMP JUMPDEST DUP3 DUP3 DUP2 MLOAD DUP2 LT PUSH2 0x1F1 JUMPI PUSH2 0x1F0 PUSH2 0xC39 JUMP JUMPDEST JUMPDEST PUSH1 0x20 MUL PUSH1 0x20 ADD ADD DUP2 SWAP1 MSTORE POP DUP1 DUP1 PUSH1 0x1 ADD SWAP2 POP POP PUSH2 0x1BA JUMP JUMPDEST POP DUP1 SWAP4 POP POP POP POP SWAP3 SWAP2 POP POP JUMP JUMPDEST PUSH2 0x21E PUSH2 0x81F JUMP JUMPDEST PUSH0 PUSH1 0x20 DUP4 ADD SWAP1 POP PUSH1 0x40 MLOAD DUP1 PUSH1 0x40 ADD PUSH1 0x40 MSTORE DUP1 DUP5 MLOAD DUP2 MSTORE PUSH1 0x20 ADD DUP3 DUP2 MSTORE POP SWAP2 POP POP SWAP2 SWAP1 POP JUMP JUMPDEST PUSH0 DUP3 PUSH1 0x20 ADD MLOAD PUSH2 0x263 DUP5 PUSH0 ADD MLOAD DUP6 PUSH1 0x20 ADD MLOAD DUP6 PUSH0 ADD MLOAD DUP7 PUSH1 0x20 ADD MLOAD PUSH2 0x446 JUMP JUMPDEST EQ ISZERO SWAP1 POP SWAP3 SWAP2 POP POP JUMP JUMPDEST PUSH1 0x60 PUSH0 DUP3 PUSH0 ADD MLOAD DUP5 PUSH0 ADD MLOAD PUSH2 0x282 SWAP2 SWAP1 PUSH2 0xC06 JUMP JUMPDEST PUSH8 0xFFFFFFFFFFFFFFFF DUP2 GT ISZERO PUSH2 0x29B JUMPI PUSH2 0x29A PUSH2 0x860 JUMP JUMPDEST JUMPDEST PUSH1 0x40 MLOAD SWAP1 DUP1 DUP3 MSTORE DUP1 PUSH1 0x1F ADD PUSH1 0x1F NOT AND PUSH1 0x20 ADD DUP3 ADD PUSH1 0x40 MSTORE DUP1 ISZERO PUSH2 0x2CD JUMPI DUP2 PUSH1 0x20 ADD PUSH1 0x1 DUP3 MUL DUP1 CALLDATASIZE DUP4 CALLDATACOPY DUP1 DUP3 ADD SWAP2 POP POP SWAP1 POP JUMPDEST POP SWAP1 POP PUSH0 PUSH1 0x20 DUP3 ADD SWAP1 POP PUSH2 0x2E9 DUP2 DUP7 PUSH1 0x20 ADD MLOAD DUP8 PUSH0 ADD MLOAD PUSH2 0x577 JUMP JUMPDEST PUSH2 0x309 DUP6 PUSH0 ADD MLOAD DUP3 PUSH2 0x2FB SWAP2 SWAP1 PUSH2 0xC06 JUMP JUMPDEST DUP6 PUSH1 0x20 ADD MLOAD DUP7 PUSH0 ADD MLOAD PUSH2 0x577 JUMP JUMPDEST DUP2 SWAP3 POP POP POP SWAP3 SWAP2 POP POP JUMP JUMPDEST PUSH0 PUSH0 DUP3 PUSH0 ADD MLOAD PUSH2 0x334 DUP6 PUSH0 ADD MLOAD DUP7 PUSH1 0x20 ADD MLOAD DUP7 PUSH0 ADD MLOAD DUP8 PUSH1 0x20 ADD MLOAD PUSH2 0x621 JUMP JUMPDEST PUSH2 0x33E SWAP2 SWAP1 PUSH2 0xC06 JUMP JUMPDEST SWAP1 POP JUMPDEST DUP4 PUSH0 ADD MLOAD DUP5 PUSH1 0x20 ADD MLOAD PUSH2 0x354 SWAP2 SWAP1 PUSH2 0xC06 JUMP JUMPDEST DUP2 GT PUSH2 0x3AD JUMPI DUP2 DUP1 PUSH2 0x365 SWAP1 PUSH2 0xC66 JUMP JUMPDEST SWAP3 POP POP DUP3 PUSH0 ADD MLOAD PUSH2 0x39C DUP6 PUSH1 0x20 ADD MLOAD DUP4 PUSH2 0x37F SWAP2 SWAP1 PUSH2 0xCAD JUMP JUMPDEST DUP7 PUSH0 ADD MLOAD PUSH2 0x38D SWAP2 SWAP1 PUSH2 0xCAD JUMP JUMPDEST DUP4 DUP7 PUSH0 ADD MLOAD DUP8 PUSH1 0x20 ADD MLOAD PUSH2 0x621 JUMP JUMPDEST PUSH2 0x3A6 SWAP2 SWAP1 PUSH2 0xC06 JUMP JUMPDEST SWAP1 POP PUSH2 0x341 JUMP JUMPDEST POP SWAP3 SWAP2 POP POP JUMP JUMPDEST PUSH2 0x3BC PUSH2 0x81F JUMP JUMPDEST PUSH2 0x3C7 DUP4 DUP4 DUP4 PUSH2 0x760 JUMP JUMPDEST POP SWAP3 SWAP2 POP POP JUMP JUMPDEST PUSH1 0x60 PUSH0 DUP3 PUSH0 ADD MLOAD PUSH8 0xFFFFFFFFFFFFFFFF DUP2 GT ISZERO PUSH2 0x3EE JUMPI PUSH2 0x3ED PUSH2 0x860 JUMP JUMPDEST JUMPDEST PUSH1 0x40 MLOAD SWAP1 DUP1 DUP3 MSTORE DUP1 PUSH1 0x1F ADD PUSH1 0x1F NOT AND PUSH1 0x20 ADD DUP3 ADD PUSH1 0x40 MSTORE DUP1 ISZERO PUSH2 0x420 JUMPI DUP2 PUSH1 0x20 ADD PUSH1 0x1 DUP3 MUL DUP1 CALLDATASIZE DUP4 CALLDATACOPY DUP1 DUP3 ADD SWAP2 POP POP SWAP1 POP JUMPDEST POP SWAP1 POP PUSH0 PUSH1 0x20 DUP3 ADD SWAP1 POP PUSH2 0x43C DUP2 DUP6 PUSH1 0x20 ADD MLOAD DUP7 PUSH0 ADD MLOAD PUSH2 0x577 JUMP JUMPDEST DUP2 SWAP3 POP POP POP SWAP2 SWAP1 POP JUMP JUMPDEST PUSH0 PUSH0 DUP6 DUP5 GT PUSH2 0x56A JUMPI PUSH1 0x20 DUP5 GT PUSH2 0x509 JUMPI PUSH0 PUSH0 DUP6 GT ISZERO PUSH2 0x497 JUMPI PUSH1 0x1 DUP6 PUSH1 0x20 PUSH2 0x46F SWAP2 SWAP1 PUSH2 0xCAD JUMP JUMPDEST PUSH1 0x8 PUSH2 0x47B SWAP2 SWAP1 PUSH2 0xCE0 JUMP JUMPDEST PUSH1 0x2 PUSH2 0x487 SWAP2 SWAP1 PUSH2 0xE50 JUMP JUMPDEST PUSH2 0x491 SWAP2 SWAP1 PUSH2 0xCAD JUMP JUMPDEST NOT PUSH0 SHL SWAP1 POP JUMPDEST PUSH0 DUP2 DUP6 MLOAD AND SWAP1 POP DUP6 DUP9 DUP9 PUSH2 0x4AB SWAP2 SWAP1 PUSH2 0xC06 JUMP JUMPDEST PUSH2 0x4B5 SWAP2 SWAP1 PUSH2 0xCAD JUMP JUMPDEST SWAP3 POP PUSH0 DUP3 DUP5 MLOAD AND SWAP1 POP JUMPDEST DUP2 DUP2 EQ PUSH2 0x4F2 JUMPI DUP8 DUP5 GT PUSH2 0x4D9 JUMPI DUP8 SWAP5 POP POP POP POP POP PUSH2 0x56F JUMP JUMPDEST DUP4 DUP1 PUSH2 0x4E4 SWAP1 PUSH2 0xE9A JUMP JUMPDEST SWAP5 POP POP DUP3 DUP5 MLOAD AND SWAP1 POP PUSH2 0x4BF JUMP JUMPDEST DUP7 DUP5 PUSH2 0x4FE SWAP2 SWAP1 PUSH2 0xC06 JUMP JUMPDEST SWAP5 POP POP POP POP POP PUSH2 0x56F JUMP JUMPDEST PUSH0 DUP5 DUP5 KECCAK256 SWAP1 POP DUP5 DUP8 PUSH2 0x51B SWAP2 SWAP1 PUSH2 0xCAD JUMP JUMPDEST DUP7 PUSH2 0x526 SWAP2 SWAP1 PUSH2 0xC06 JUMP JUMPDEST SWAP2 POP JUMPDEST DUP6 DUP3 LT PUSH2 0x568 JUMPI PUSH0 DUP6 DUP4 KECCAK256 SWAP1 POP DUP1 DUP3 SUB PUSH2 0x553 JUMPI DUP6 DUP4 PUSH2 0x549 SWAP2 SWAP1 PUSH2 0xC06 JUMP JUMPDEST SWAP4 POP POP POP POP PUSH2 0x56F JUMP JUMPDEST PUSH1 0x1 DUP4 PUSH2 0x560 SWAP2 SWAP1 PUSH2 0xCAD JUMP JUMPDEST SWAP3 POP POP PUSH2 0x529 JUMP JUMPDEST POP JUMPDEST DUP5 SWAP2 POP POP JUMPDEST SWAP5 SWAP4 POP POP POP POP JUMP JUMPDEST JUMPDEST PUSH1 0x20 DUP2 LT PUSH2 0x5B6 JUMPI DUP2 MLOAD DUP4 MSTORE PUSH1 0x20 DUP4 PUSH2 0x591 SWAP2 SWAP1 PUSH2 0xC06 JUMP JUMPDEST SWAP3 POP PUSH1 0x20 DUP3 PUSH2 0x5A0 SWAP2 SWAP1 PUSH2 0xC06 JUMP JUMPDEST SWAP2 POP PUSH1 0x20 DUP2 PUSH2 0x5AF SWAP2 SWAP1 PUSH2 0xCAD JUMP JUMPDEST SWAP1 POP PUSH2 0x578 JUMP JUMPDEST PUSH0 PUSH32 0xFFFFFFFFFFFFFFFFFFFFFFFFFFFFFFFFFFFFFFFFFFFFFFFFFFFFFFFFFFFFFFFF SWAP1 POP PUSH0 DUP3 GT ISZERO PUSH2 0x60B JUMPI PUSH1 0x1 DUP3 PUSH1 0x20 PUSH2 0x5F1 SWAP2 SWAP1 PUSH2 0xCAD JUMP JUMPDEST PUSH2 0x100 PUSH2 0x5FE SWAP2 SWAP1 PUSH2 0xE50 JUMP JUMPDEST PUSH2 0x608 SWAP2 SWAP1 PUSH2 0xCAD JUMP JUMPDEST SWAP1 POP JUMPDEST DUP1 NOT DUP4 MLOAD AND DUP2 DUP6 MLOAD AND DUP2 DUP2 OR DUP7 MSTORE POP POP POP POP POP POP JUMP JUMPDEST PUSH0 PUSH0 DUP5 SWAP1 POP PUSH0 DUP7 DUP6 GT PUSH2 0x747 JUMPI PUSH1 0x20 DUP6 GT PUSH2 0x6ED JUMPI PUSH0 PUSH0 DUP7 GT ISZERO PUSH2 0x676 JUMPI PUSH1 0x1 DUP7 PUSH1 0x20 PUSH2 0x64E SWAP2 SWAP1 PUSH2 0xCAD JUMP JUMPDEST PUSH1 0x8 PUSH2 0x65A SWAP2 SWAP1 PUSH2 0xCE0 JUMP JUMPDEST PUSH1 0x2 PUSH2 0x666 SWAP2 SWAP1 PUSH2 0xE50 JUMP JUMPDEST PUSH2 0x670 SWAP2 SWAP1 PUSH2 0xCAD JUMP JUMPDEST NOT PUSH0 SHL SWAP1 POP JUMPDEST PUSH0 DUP2 DUP7 MLOAD AND SWAP1 POP PUSH0 DUP8 DUP11 DUP11 PUSH2 0x68B SWAP2 SWAP1 PUSH2 0xC06 JUMP JUMPDEST PUSH2 0x695 SWAP2 SWAP1 PUSH2 0xCAD JUMP JUMPDEST SWAP1 POP PUSH0 DUP4 DUP7 MLOAD AND SWAP1 POP JUMPDEST DUP3 DUP2 EQ PUSH2 0x6DF JUMPI DUP2 DUP7 LT PUSH2 0x6C6 JUMPI DUP11 DUP11 PUSH2 0x6B9 SWAP2 SWAP1 PUSH2 0xC06 JUMP JUMPDEST SWAP7 POP POP POP POP POP POP POP PUSH2 0x758 JUMP JUMPDEST DUP6 DUP1 PUSH2 0x6D1 SWAP1 PUSH2 0xC66 JUMP JUMPDEST SWAP7 POP POP DUP4 DUP7 MLOAD AND SWAP1 POP PUSH2 0x69F JUMP JUMPDEST DUP6 SWAP7 POP POP POP POP POP POP POP PUSH2 0x758 JUMP JUMPDEST PUSH0 DUP6 DUP6 KECCAK256 SWAP1 POP PUSH0 SWAP2 POP JUMPDEST DUP6 DUP9 PUSH2 0x703 SWAP2 SWAP1 PUSH2 0xCAD JUMP JUMPDEST DUP3 GT PUSH2 0x745 JUMPI PUSH0 DUP7 DUP5 KECCAK256 SWAP1 POP DUP1 DUP3 SUB PUSH2 0x722 JUMPI DUP4 SWAP5 POP POP POP POP POP PUSH2 0x758 JUMP JUMPDEST PUSH1 0x1 DUP5 PUSH2 0x72F SWAP2 SWAP1 PUSH2 0xC06 JUMP JUMPDEST SWAP4 POP POP DUP2 DUP1 PUSH2 0x73D SWAP1 PUSH2 0xC66 JUMP JUMPDEST SWAP3 POP POP PUSH2 0x6F7 JUMP JUMPDEST POP JUMPDEST DUP7 DUP7 PUSH2 0x753 SWAP2 SWAP1 PUSH2 0xC06 JUMP JUMPDEST SWAP3 POP POP POP JUMPDEST SWAP5 SWAP4 POP POP POP POP JUMP JUMPDEST PUSH2 0x768 PUSH2 0x81F JUMP JUMPDEST PUSH0 PUSH2 0x783 DUP6 PUSH0 ADD MLOAD DUP7 PUSH1 0x20 ADD MLOAD DUP7 PUSH0 ADD MLOAD DUP8 PUSH1 0x20 ADD MLOAD PUSH2 0x621 JUMP JUMPDEST SWAP1 POP DUP5 PUSH1 0x20 ADD MLOAD DUP4 PUSH1 0x20 ADD DUP2 DUP2 MSTORE POP POP DUP5 PUSH1 0x20 ADD MLOAD DUP2 PUSH2 0x7A3 SWAP2 SWAP1 PUSH2 0xCAD JUMP JUMPDEST DUP4 PUSH0 ADD DUP2 DUP2 MSTORE POP POP DUP5 PUSH0 ADD MLOAD DUP6 PUSH1 0x20 ADD MLOAD PUSH2 0x7BE SWAP2 SWAP1 PUSH2 0xC06 JUMP JUMPDEST DUP2 SUB PUSH2 0x7D2 JUMPI PUSH0 DUP6 PUSH0 ADD DUP2 DUP2 MSTORE POP POP PUSH2 0x814 JUMP JUMPDEST DUP4 PUSH0 ADD MLOAD DUP4 PUSH0 ADD MLOAD PUSH2 0x7E4 SWAP2 SWAP1 PUSH2 0xC06 JUMP JUMPDEST DUP6 PUSH0 ADD DUP2 DUP2 MLOAD PUSH2 0x7F4 SWAP2 SWAP1 PUSH2 0xCAD JUMP JUMPDEST SWAP2 POP DUP2 DUP2 MSTORE POP POP DUP4 PUSH0 ADD MLOAD DUP2 PUSH2 0x80A SWAP2 SWAP1 PUSH2 0xC06 JUMP JUMPDEST DUP6 PUSH1 0x20 ADD DUP2 DUP2 MSTORE POP POP JUMPDEST DUP3 SWAP2 POP POP SWAP4 SWAP3 POP POP POP JUMP JUMPDEST PUSH1 0x40 MLOAD DUP1 PUSH1 0x40 ADD PUSH1 0x40 MSTORE DUP1 PUSH0 DUP2 MSTORE PUSH1 0x20 ADD PUSH0 DUP2 MSTORE POP SWAP1 JUMP JUMPDEST PUSH0 PUSH1 0x40 MLOAD SWAP1 POP SWAP1 JUMP JUMPDEST PUSH0 PUSH0 REVERT JUMPDEST PUSH0 PUSH0 REVERT JUMPDEST PUSH0 PUSH0 REVERT JUMPDEST PUSH0 PUSH0 REVERT JUMPDEST PUSH0 PUSH1 0x1F NOT PUSH1 0x1F DUP4 ADD AND SWAP1 POP SWAP2 SWAP1 POP JUMP JUMPDEST PUSH32 0x4E487B7100000000000000000000000000000000000000000000000000000000 PUSH0 MSTORE PUSH1 0x41 PUSH1 0x4 MSTORE PUSH1 0x24 PUSH0 REVERT JUMPDEST PUSH2 0x896 DUP3 PUSH2 0x850 JUMP JUMPDEST DUP2 ADD DUP2 DUP2 LT PUSH8 0xFFFFFFFFFFFFFFFF DUP3 GT OR ISZERO PUSH2 0x8B5 JUMPI PUSH2 0x8B4 PUSH2 0x860 JUMP JUMPDEST JUMPDEST DUP1 PUSH1 0x40 MSTORE POP POP POP JUMP JUMPDEST PUSH0 PUSH2 0x8C7 PUSH2 0x837 JUMP JUMPDEST SWAP1 POP PUSH2 0x8D3 DUP3 DUP3 PUSH2 0x88D JUMP JUMPDEST SWAP2 SWAP1 POP JUMP JUMPDEST PUSH0 PUSH8 0xFFFFFFFFFFFFFFFF DUP3 GT ISZERO PUSH2 0x8F2 JUMPI PUSH2 0x8F1 PUSH2 0x860 JUMP JUMPDEST JUMPDEST PUSH2 0x8FB DUP3 PUSH2 0x850 JUMP JUMPDEST SWAP1 POP PUSH1 0x20 DUP2 ADD SWAP1 POP SWAP2 SWAP1 POP JUMP JUMPDEST DUP3 DUP2 DUP4 CALLDATACOPY PUSH0 DUP4 DUP4 ADD MSTORE POP POP POP JUMP JUMPDEST PUSH0 PUSH2 0x928 PUSH2 0x923 DUP5 PUSH2 0x8D8 JUMP JUMPDEST PUSH2 0x8BE JUMP JUMPDEST SWAP1 POP DUP3 DUP2 MSTORE PUSH1 0x20 DUP2 ADD DUP5 DUP5 DUP5 ADD GT ISZERO PUSH2 0x944 JUMPI PUSH2 0x943 PUSH2 0x84C JUMP JUMPDEST JUMPDEST PUSH2 0x94F DUP5 DUP3 DUP6 PUSH2 0x908 JUMP JUMPDEST POP SWAP4 SWAP3 POP POP POP JUMP JUMPDEST PUSH0 DUP3 PUSH1 0x1F DUP4 ADD SLT PUSH2 0x96B JUMPI PUSH2 0x96A PUSH2 0x848 JUMP JUMPDEST JUMPDEST DUP2 CALLDATALOAD PUSH2 0x97B DUP5 DUP3 PUSH1 0x20 DUP7 ADD PUSH2 0x916 JUMP JUMPDEST SWAP2 POP POP SWAP3 SWAP2 POP POP JUMP JUMPDEST PUSH0 PUSH0 PUSH1 0x40 DUP4 DUP6 SUB SLT ISZERO PUSH2 0x99A JUMPI PUSH2 0x999 PUSH2 0x840 JUMP JUMPDEST JUMPDEST PUSH0 DUP4 ADD CALLDATALOAD PUSH8 0xFFFFFFFFFFFFFFFF DUP2 GT ISZERO PUSH2 0x9B7 JUMPI PUSH2 0x9B6 PUSH2 0x844 JUMP JUMPDEST JUMPDEST PUSH2 0x9C3 DUP6 DUP3 DUP7 ADD PUSH2 0x957 JUMP JUMPDEST SWAP3 POP POP PUSH1 0x20 DUP4 ADD CALLDATALOAD PUSH8 0xFFFFFFFFFFFFFFFF DUP2 GT ISZERO PUSH2 0x9E4 JUMPI PUSH2 0x9E3 PUSH2 0x844 JUMP JUMPDEST JUMPDEST PUSH2 0x9F0 DUP6 DUP3 DUP7 ADD PUSH2 0x957 JUMP JUMPDEST SWAP2 POP POP SWAP3 POP SWAP3 SWAP1 POP JUMP JUMPDEST PUSH0 DUP2 ISZERO ISZERO SWAP1 POP SWAP2 SWAP1 POP JUMP JUMPDEST PUSH2 0xA0E DUP2 PUSH2 0x9FA JUMP JUMPDEST DUP3 MSTORE POP POP JUMP JUMPDEST PUSH0 PUSH1 0x20 DUP3 ADD SWAP1 POP PUSH2 0xA27 PUSH0 DUP4 ADD DUP5 PUSH2 0xA05 JUMP JUMPDEST SWAP3 SWAP2 POP POP JUMP JUMPDEST PUSH0 DUP2 MLOAD SWAP1 POP SWAP2 SWAP1 POP JUMP JUMPDEST PUSH0 DUP3 DUP3 MSTORE PUSH1 0x20 DUP3 ADD SWAP1 POP SWAP3 SWAP2 POP POP JUMP JUMPDEST DUP3 DUP2 DUP4 MCOPY PUSH0 DUP4 DUP4 ADD MSTORE POP POP POP JUMP JUMPDEST PUSH0 PUSH2 0xA5F DUP3 PUSH2 0xA2D JUMP JUMPDEST PUSH2 0xA69 DUP2 DUP6 PUSH2 0xA37 JUMP JUMPDEST SWAP4 POP PUSH2 0xA79 DUP2 DUP6 PUSH1 0x20 DUP7 ADD PUSH2 0xA47 JUMP JUMPDEST PUSH2 0xA82 DUP2 PUSH2 0x850 JUMP JUMPDEST DUP5 ADD SWAP2 POP POP SWAP3 SWAP2 POP POP JUMP JUMPDEST PUSH0 PUSH1 0x20 DUP3 ADD SWAP1 POP DUP2 DUP2 SUB PUSH0 DUP4 ADD MSTORE PUSH2 0xAA5 DUP2 DUP5 PUSH2 0xA55 JUMP JUMPDEST SWAP1 POP SWAP3 SWAP2 POP POP JUMP JUMPDEST PUSH0 DUP2 MLOAD SWAP1 POP SWAP2 SWAP1 POP JUMP JUMPDEST PUSH0 DUP3 DUP3 MSTORE PUSH1 0x20 DUP3 ADD SWAP1 POP SWAP3 SWAP2 POP POP JUMP JUMPDEST PUSH0 DUP2 SWAP1 POP PUSH1 0x20 DUP3 ADD SWAP1 POP SWAP2 SWAP1 POP JUMP JUMPDEST PUSH0 DUP3 DUP3 MSTORE PUSH1 0x20 DUP3 ADD SWAP1 POP SWAP3 SWAP2 POP POP JUMP JUMPDEST PUSH0 PUSH2 0xAF0 DUP3 PUSH2 0xA2D JUMP JUMPDEST PUSH2 0xAFA DUP2 DUP6 PUSH2 0xAD6 JUMP JUMPDEST SWAP4 POP PUSH2 0xB0A DUP2 DUP6 PUSH1 0x20 DUP7 ADD PUSH2 0xA47 JUMP JUMPDEST PUSH2 0xB13 DUP2 PUSH2 0x850 JUMP JUMPDEST DUP5 ADD SWAP2 POP POP SWAP3 SWAP2 POP POP JUMP JUMPDEST PUSH0 PUSH2 0xB29 DUP4 DUP4 PUSH2 0xAE6 JUMP JUMPDEST SWAP1 POP SWAP3 SWAP2 POP POP JUMP JUMPDEST PUSH0 PUSH1 0x20 DUP3 ADD SWAP1 POP SWAP2 SWAP1 POP JUMP JUMPDEST PUSH0 PUSH2 0xB47 DUP3 PUSH2 0xAAD JUMP JUMPDEST PUSH2 0xB51 DUP2 DUP6 PUSH2 0xAB7 JUMP JUMPDEST SWAP4 POP DUP4 PUSH1 0x20 DUP3 MUL DUP6 ADD PUSH2 0xB63 DUP6 PUSH2 0xAC7 JUMP JUMPDEST DUP1 PUSH0 JUMPDEST DUP6 DUP2 LT ISZERO PUSH2 0xB9E JUMPI DUP5 DUP5 SUB DUP10 MSTORE DUP2 MLOAD PUSH2 0xB7F DUP6 DUP3 PUSH2 0xB1E JUMP JUMPDEST SWAP5 POP PUSH2 0xB8A DUP4 PUSH2 0xB31 JUMP JUMPDEST SWAP3 POP PUSH1 0x20 DUP11 ADD SWAP10 POP POP PUSH1 0x1 DUP2 ADD SWAP1 POP PUSH2 0xB66 JUMP JUMPDEST POP DUP3 SWAP8 POP DUP8 SWAP6 POP POP POP POP POP POP SWAP3 SWAP2 POP POP JUMP JUMPDEST PUSH0 PUSH1 0x20 DUP3 ADD SWAP1 POP DUP2 DUP2 SUB PUSH0 DUP4 ADD MSTORE PUSH2 0xBC8 DUP2 DUP5 PUSH2 0xB3D JUMP JUMPDEST SWAP1 POP SWAP3 SWAP2 POP POP JUMP JUMPDEST PUSH0 DUP2 SWAP1 POP SWAP2 SWAP1 POP JUMP JUMPDEST PUSH32 0x4E487B7100000000000000000000000000000000000000000000000000000000 PUSH0 MSTORE PUSH1 0x11 PUSH1 0x4 MSTORE PUSH1 0x24 PUSH0 REVERT JUMPDEST PUSH0 PUSH2 0xC10 DUP3 PUSH2 0xBD0 JUMP JUMPDEST SWAP2 POP PUSH2 0xC1B DUP4 PUSH2 0xBD0 JUMP JUMPDEST SWAP3 POP DUP3 DUP3 ADD SWAP1 POP DUP1 DUP3 GT ISZERO PUSH2 0xC33 JUMPI PUSH2 0xC32 PUSH2 0xBD9 JUMP JUMPDEST JUMPDEST SWAP3 SWAP2 POP POP JUMP JUMPDEST PUSH32 0x4E487B7100000000000000000000000000000000000000000000000000000000 PUSH0 MSTORE PUSH1 0x32 PUSH1 0x4 MSTORE PUSH1 0x24 PUSH0 REVERT JUMPDEST PUSH0 PUSH2 0xC70 DUP3 PUSH2 0xBD0 JUMP JUMPDEST SWAP2 POP PUSH32 0xFFFFFFFFFFFFFFFFFFFFFFFFFFFFFFFFFFFFFFFFFFFFFFFFFFFFFFFFFFFFFFFF DUP3 SUB PUSH2 0xCA2 JUMPI PUSH2 0xCA1 PUSH2 0xBD9 JUMP JUMPDEST JUMPDEST PUSH1 0x1 DUP3 ADD SWAP1 POP SWAP2 SWAP1 POP JUMP JUMPDEST PUSH0 PUSH2 0xCB7 DUP3 PUSH2 0xBD0 JUMP JUMPDEST SWAP2 POP PUSH2 0xCC2 DUP4 PUSH2 0xBD0 JUMP JUMPDEST SWAP3 POP DUP3 DUP3 SUB SWAP1 POP DUP2 DUP2 GT ISZERO PUSH2 0xCDA JUMPI PUSH2 0xCD9 PUSH2 0xBD9 JUMP JUMPDEST JUMPDEST SWAP3 SWAP2 POP POP JUMP JUMPDEST PUSH0 PUSH2 0xCEA DUP3 PUSH2 0xBD0 JUMP JUMPDEST SWAP2 POP PUSH2 0xCF5 DUP4 PUSH2 0xBD0 JUMP JUMPDEST SWAP3 POP DUP3 DUP3 MUL PUSH2 0xD03 DUP2 PUSH2 0xBD0 JUMP JUMPDEST SWAP2 POP DUP3 DUP3 DIV DUP5 EQ DUP4 ISZERO OR PUSH2 0xD1A JUMPI PUSH2 0xD19 PUSH2 0xBD9 JUMP JUMPDEST JUMPDEST POP SWAP3 SWAP2 POP POP JUMP JUMPDEST PUSH0 DUP2 PUSH1 0x1 SHR SWAP1 POP SWAP2 SWAP1 POP JUMP JUMPDEST PUSH0 PUSH0 DUP3 SWAP2 POP DUP4 SWAP1 POP JUMPDEST PUSH1 0x1 DUP6 GT ISZERO PUSH2 0xD76 JUMPI DUP1 DUP7 DIV DUP2 GT ISZERO PUSH2 0xD52 JUMPI PUSH2 0xD51 PUSH2 0xBD9 JUMP JUMPDEST JUMPDEST PUSH1 0x1 DUP6 AND ISZERO PUSH2 0xD61 JUMPI DUP1 DUP3 MUL SWAP2 POP JUMPDEST DUP1 DUP2 MUL SWAP1 POP PUSH2 0xD6F DUP6 PUSH2 0xD21 JUMP JUMPDEST SWAP5 POP PUSH2 0xD36 JUMP JUMPDEST SWAP5 POP SWAP5 SWAP3 POP POP POP JUMP JUMPDEST PUSH0 DUP3 PUSH2 0xD8E JUMPI PUSH1 0x1 SWAP1 POP PUSH2 0xE49 JUMP JUMPDEST DUP2 PUSH2 0xD9B JUMPI PUSH0 SWAP1 POP PUSH2 0xE49 JUMP JUMPDEST DUP2 PUSH1 0x1 DUP2 EQ PUSH2 0xDB1 JUMPI PUSH1 0x2 DUP2 EQ PUSH2 0xDBB JUMPI PUSH2 0xDEA JUMP JUMPDEST PUSH1 0x1 SWAP2 POP POP PUSH2 0xE49 JUMP JUMPDEST PUSH1 0xFF DUP5 GT ISZERO PUSH2 0xDCD JUMPI PUSH2 0xDCC PUSH2 0xBD9 JUMP JUMPDEST JUMPDEST DUP4 PUSH1 0x2 EXP SWAP2 POP DUP5 DUP3 GT ISZERO PUSH2 0xDE4 JUMPI PUSH2 0xDE3 PUSH2 0xBD9 JUMP JUMPDEST JUMPDEST POP PUSH2 0xE49 JUMP JUMPDEST POP PUSH1 0x20 DUP4 LT PUSH2 0x133 DUP4 LT AND PUSH1 0x4E DUP5 LT PUSH1 0xB DUP5 LT AND OR ISZERO PUSH2 0xE1F JUMPI DUP3 DUP3 EXP SWAP1 POP DUP4 DUP2 GT ISZERO PUSH2 0xE1A JUMPI PUSH2 0xE19 PUSH2 0xBD9 JUMP JUMPDEST JUMPDEST PUSH2 0xE49 JUMP JUMPDEST PUSH2 0xE2C DUP5 DUP5 DUP5 PUSH1 0x1 PUSH2 0xD2D JUMP JUMPDEST SWAP3 POP SWAP1 POP DUP2 DUP5 DIV DUP2 GT ISZERO PUSH2 0xE43 JUMPI PUSH2 0xE42 PUSH2 0xBD9 JUMP JUMPDEST JUMPDEST DUP2 DUP2 MUL SWAP1 POP JUMPDEST SWAP4 SWAP3 POP POP POP JUMP JUMPDEST PUSH0 PUSH2 0xE5A DUP3 PUSH2 0xBD0 JUMP JUMPDEST SWAP2 POP PUSH2 0xE65 DUP4 PUSH2 0xBD0 JUMP JUMPDEST SWAP3 POP PUSH2 0xE92 PUSH32 0xFFFFFFFFFFFFFFFFFFFFFFFFFFFFFFFFFFFFFFFFFFFFFFFFFFFFFFFFFFFFFFFF DUP5 DUP5 PUSH2 0xD7F JUMP JUMPDEST SWAP1 POP SWAP3 SWAP2 POP POP JUMP JUMPDEST PUSH0 PUSH2 0xEA4 DUP3 PUSH2 0xBD0 JUMP JUMPDEST SWAP2 POP PUSH0 DUP3 SUB PUSH2 0xEB6 JUMPI PUSH2 0xEB5 PUSH2 0xBD9 JUMP JUMPDEST JUMPDEST PUSH1 0x1 DUP3 SUB SWAP1 POP SWAP2 SWAP1 POP JUMP INVALID LOG2 PUSH5 0x6970667358 0x22 SLT KECCAK256 PUSH28 0x7C479F92DEFCBC7BDB7F09C40FB6C3EF12D13A7755897DB618BFEC7B MLOAD SHL 0xED PUSH5 0x736F6C6343 STOP ADDMOD 0x1E STOP CALLER "
				},
				"gasEstimates": {
					"creation": {
						"codeDepositCost": "766200",
						"executionCost": "797",
						"totalCost": "766997"
					},
					"external": {
						"concatenate(string,string)": "infinite",
						"splitString(string,string)": "infinite",
						"substringExists(string,string)": "infinite"
					}
				},
				"methodIdentifiers": {
					"concatenate(string,string)": "266001d3",
					"splitString(string,string)": "f4311138",
					"substringExists(string,string)": "10abbf84"
				}
			},
			"storageLayout": {
				"storage": [],
				"types": null
			},
			"userdoc": {
				"kind": "user",
				"methods": {},
				"version": 1
			}
		}
	}
}