{
	"varvisibilitywitheg.sol": {
		"DerivedVisibilityExample": {
			"abi": [
				{
					"inputs": [],
					"name": "callBaseInternalFunction",
					"outputs": [
						{
							"internalType": "string",
							"name": "",
							"type": "string"
						}
					],
					"stateMutability": "pure",
					"type": "function"
				},
				{
					"inputs": [],
					"name": "callInternalFunction",
					"outputs": [
						{
							"internalType": "string",
							"name": "",
							"type": "string"
						}
					],
					"stateMutability": "pure",
					"type": "function"
				},
				{
					"inputs": [],
					"name": "callPrivateFunction",
					"outputs": [
						{
							"internalType": "string",
							"name": "",
							"type": "string"
						}
					],
					"stateMutability": "pure",
					"type": "function"
				},
				{
					"inputs": [],
					"name": "externalFunction",
					"outputs": [
						{
							"internalType": "string",
							"name": "",
							"type": "string"
						}
					],
					"stateMutability": "pure",
					"type": "function"
				},
				{
					"inputs": [],
					"name": "publicFunction",
					"outputs": [
						{
							"internalType": "string",
							"name": "",
							"type": "string"
						}
					],
					"stateMutability": "pure",
					"type": "function"
				}
			],
			"devdoc": {
				"kind": "dev",
				"methods": {},
				"version": 1
			},
			"evm": {
				"assembly": "    /* \"varvisibilitywitheg.sol\":1165:1630  contract DerivedVisibilityExample is VisibilityExample {... */\n  mstore(0x40, 0x80)\n  callvalue\n  dup1\n  iszero\n  tag_1\n  jumpi\n  revert(0x00, 0x00)\ntag_1:\n  pop\n  dataSize(sub_0)\n  dup1\n  dataOffset(sub_0)\n  0x00\n  codecopy\n  0x00\n  return\nstop\n\nsub_0: assembly {\n        /* \"varvisibilitywitheg.sol\":1165:1630  contract DerivedVisibilityExample is VisibilityExample {... */\n      mstore(0x40, 0x80)\n      callvalue\n      dup1\n      iszero\n      tag_1\n      jumpi\n      revert(0x00, 0x00)\n    tag_1:\n      pop\n      jumpi(tag_2, lt(calldatasize, 0x04))\n      shr(0xe0, calldataload(0x00))\n      dup1\n      0x04f4fc12\n      eq\n      tag_3\n      jumpi\n      dup1\n      0x3a32b549\n      eq\n      tag_4\n      jumpi\n      dup1\n      0x7b5d520b\n      eq\n      tag_5\n      jumpi\n      dup1\n      0x8701f8ca\n      eq\n      tag_6\n      jumpi\n      dup1\n      0x974e84a4\n      eq\n      tag_7\n      jumpi\n    tag_2:\n      revert(0x00, 0x00)\n        /* \"varvisibilitywitheg.sol\":1285:1389  function callBaseInternalFunction() public pure returns (string memory) {... */\n    tag_3:\n      tag_8\n      tag_9\n      jump\t// in\n    tag_8:\n      mload(0x40)\n      tag_10\n      swap2\n      swap1\n      tag_11\n      jump\t// in\n    tag_10:\n      mload(0x40)\n      dup1\n      swap2\n      sub\n      swap1\n      return\n        /* \"varvisibilitywitheg.sol\":710:820  function externalFunction() external pure returns (string memory) {... */\n    tag_4:\n      tag_12\n      tag_13\n      jump\t// in\n    tag_12:\n      mload(0x40)\n      tag_14\n      swap2\n      swap1\n      tag_11\n      jump\t// in\n    tag_14:\n      mload(0x40)\n      dup1\n      swap2\n      sub\n      swap1\n      return\n        /* \"varvisibilitywitheg.sol\":151:254  function publicFunction() public pure returns (string memory) {... */\n    tag_5:\n      tag_15\n      tag_16\n      jump\t// in\n    tag_15:\n      mload(0x40)\n      tag_17\n      swap2\n      swap1\n      tag_11\n      jump\t// in\n    tag_17:\n      mload(0x40)\n      dup1\n      swap2\n      sub\n      swap1\n      return\n        /* \"varvisibilitywitheg.sol\":891:991  function callInternalFunction() public pure returns (string memory) {... */\n    tag_6:\n      tag_18\n      tag_19\n      jump\t// in\n    tag_18:\n      mload(0x40)\n      tag_20\n      swap2\n      swap1\n      tag_11\n      jump\t// in\n    tag_20:\n      mload(0x40)\n      dup1\n      swap2\n      sub\n      swap1\n      return\n        /* \"varvisibilitywitheg.sol\":995:1093  function callPrivateFunction() public pure returns (string memory) {... */\n    tag_7:\n      tag_21\n      tag_22\n      jump\t// in\n    tag_21:\n      mload(0x40)\n      tag_23\n      swap2\n      swap1\n      tag_11\n      jump\t// in\n    tag_23:\n      mload(0x40)\n      dup1\n      swap2\n      sub\n      swap1\n      return\n        /* \"varvisibilitywitheg.sol\":1285:1389  function callBaseInternalFunction() public pure returns (string memory) {... */\n    tag_9:\n        /* \"varvisibilitywitheg.sol\":1342:1355  string memory */\n      0x60\n        /* \"varvisibilitywitheg.sol\":1367:1385  internalFunction() */\n      tag_25\n        /* \"varvisibilitywitheg.sol\":1367:1383  internalFunction */\n      tag_26\n        /* \"varvisibilitywitheg.sol\":1367:1385  internalFunction() */\n      jump\t// in\n    tag_25:\n        /* \"varvisibilitywitheg.sol\":1360:1385  return internalFunction() */\n      swap1\n      pop\n        /* \"varvisibilitywitheg.sol\":1285:1389  function callBaseInternalFunction() public pure returns (string memory) {... */\n      swap1\n      jump\t// out\n        /* \"varvisibilitywitheg.sol\":710:820  function externalFunction() external pure returns (string memory) {... */\n    tag_13:\n        /* \"varvisibilitywitheg.sol\":761:774  string memory */\n      0x60\n        /* \"varvisibilitywitheg.sol\":779:816  return \"This is an external function\" */\n      mload(0x40)\n      dup1\n      0x40\n      add\n      0x40\n      mstore\n      dup1\n      0x1c\n      dup2\n      mstore\n      0x20\n      add\n      0x5468697320697320616e2065787465726e616c2066756e6374696f6e00000000\n      dup2\n      mstore\n      pop\n      swap1\n      pop\n        /* \"varvisibilitywitheg.sol\":710:820  function externalFunction() external pure returns (string memory) {... */\n      swap1\n      jump\t// out\n        /* \"varvisibilitywitheg.sol\":151:254  function publicFunction() public pure returns (string memory) {... */\n    tag_16:\n        /* \"varvisibilitywitheg.sol\":198:211  string memory */\n      0x60\n        /* \"varvisibilitywitheg.sol\":216:250  return \"This is a public function\" */\n      mload(0x40)\n      dup1\n      0x40\n      add\n      0x40\n      mstore\n      dup1\n      0x19\n      dup2\n      mstore\n      0x20\n      add\n      0x546869732069732061207075626c69632066756e6374696f6e00000000000000\n      dup2\n      mstore\n      pop\n      swap1\n      pop\n        /* \"varvisibilitywitheg.sol\":151:254  function publicFunction() public pure returns (string memory) {... */\n      swap1\n      jump\t// out\n        /* \"varvisibilitywitheg.sol\":891:991  function callInternalFunction() public pure returns (string memory) {... */\n    tag_19:\n        /* \"varvisibilitywitheg.sol\":944:957  string memory */\n      0x60\n        /* \"varvisibilitywitheg.sol\":969:987  internalFunction() */\n      tag_30\n        /* \"varvisibilitywitheg.sol\":969:985  internalFunction */\n      tag_26\n        /* \"varvisibilitywitheg.sol\":969:987  internalFunction() */\n      jump\t// in\n    tag_30:\n        /* \"varvisibilitywitheg.sol\":962:987  return internalFunction() */\n      swap1\n      pop\n        /* \"varvisibilitywitheg.sol\":891:991  function callInternalFunction() public pure returns (string memory) {... */\n      swap1\n      jump\t// out\n        /* \"varvisibilitywitheg.sol\":995:1093  function callPrivateFunction() public pure returns (string memory) {... */\n    tag_22:\n        /* \"varvisibilitywitheg.sol\":1047:1060  string memory */\n      0x60\n        /* \"varvisibilitywitheg.sol\":1072:1089  privateFunction() */\n      tag_32\n        /* \"varvisibilitywitheg.sol\":1072:1087  privateFunction */\n      tag_33\n        /* \"varvisibilitywitheg.sol\":1072:1089  privateFunction() */\n      jump\t// in\n    tag_32:\n        /* \"varvisibilitywitheg.sol\":1065:1089  return privateFunction() */\n      swap1\n      pop\n        /* \"varvisibilitywitheg.sol\":995:1093  function callPrivateFunction() public pure returns (string memory) {... */\n      swap1\n      jump\t// out\n        /* \"varvisibilitywitheg.sol\":342:452  function internalFunction() internal pure returns (string memory) {... */\n    tag_26:\n        /* \"varvisibilitywitheg.sol\":393:406  string memory */\n      0x60\n        /* \"varvisibilitywitheg.sol\":411:448  return \"This is an internal function\" */\n      mload(0x40)\n      dup1\n      0x40\n      add\n      0x40\n      mstore\n      dup1\n      0x1c\n      dup2\n      mstore\n      0x20\n      add\n      0x5468697320697320616e20696e7465726e616c2066756e6374696f6e00000000\n      dup2\n      mstore\n      pop\n      swap1\n      pop\n        /* \"varvisibilitywitheg.sol\":342:452  function internalFunction() internal pure returns (string memory) {... */\n      swap1\n      jump\t// out\n        /* \"varvisibilitywitheg.sol\":518:624  function privateFunction() private pure returns (string memory) {... */\n    tag_33:\n        /* \"varvisibilitywitheg.sol\":567:580  string memory */\n      0x60\n        /* \"varvisibilitywitheg.sol\":585:620  return \"This is a private function\" */\n      mload(0x40)\n      dup1\n      0x40\n      add\n      0x40\n      mstore\n      dup1\n      0x1a\n      dup2\n      mstore\n      0x20\n      add\n      0x54686973206973206120707269766174652066756e6374696f6e000000000000\n      dup2\n      mstore\n      pop\n      swap1\n      pop\n        /* \"varvisibilitywitheg.sol\":518:624  function privateFunction() private pure returns (string memory) {... */\n      swap1\n      jump\t// out\n        /* \"#utility.yul\":7:106   */\n    tag_36:\n        /* \"#utility.yul\":59:65   */\n      0x00\n        /* \"#utility.yul\":93:98   */\n      dup2\n        /* \"#utility.yul\":87:99   */\n      mload\n        /* \"#utility.yul\":77:99   */\n      swap1\n      pop\n        /* \"#utility.yul\":7:106   */\n      swap2\n      swap1\n      pop\n      jump\t// out\n        /* \"#utility.yul\":112:281   */\n    tag_37:\n        /* \"#utility.yul\":196:207   */\n      0x00\n        /* \"#utility.yul\":230:236   */\n      dup3\n        /* \"#utility.yul\":225:228   */\n      dup3\n        /* \"#utility.yul\":218:237   */\n      mstore\n        /* \"#utility.yul\":270:274   */\n      0x20\n        /* \"#utility.yul\":265:268   */\n      dup3\n        /* \"#utility.yul\":261:275   */\n      add\n        /* \"#utility.yul\":246:275   */\n      swap1\n      pop\n        /* \"#utility.yul\":112:281   */\n      swap3\n      swap2\n      pop\n      pop\n      jump\t// out\n        /* \"#utility.yul\":287:426   */\n    tag_38:\n        /* \"#utility.yul\":376:382   */\n      dup3\n        /* \"#utility.yul\":371:374   */\n      dup2\n        /* \"#utility.yul\":366:369   */\n      dup4\n        /* \"#utility.yul\":360:383   */\n      mcopy\n        /* \"#utility.yul\":417:418   */\n      0x00\n        /* \"#utility.yul\":408:414   */\n      dup4\n        /* \"#utility.yul\":403:406   */\n      dup4\n        /* \"#utility.yul\":399:415   */\n      add\n        /* \"#utility.yul\":392:419   */\n      mstore\n        /* \"#utility.yul\":287:426   */\n      pop\n      pop\n      pop\n      jump\t// out\n        /* \"#utility.yul\":432:534   */\n    tag_39:\n        /* \"#utility.yul\":473:479   */\n      0x00\n        /* \"#utility.yul\":524:526   */\n      0x1f\n        /* \"#utility.yul\":520:527   */\n      not\n        /* \"#utility.yul\":515:517   */\n      0x1f\n        /* \"#utility.yul\":508:513   */\n      dup4\n        /* \"#utility.yul\":504:518   */\n      add\n        /* \"#utility.yul\":500:528   */\n      and\n        /* \"#utility.yul\":490:528   */\n      swap1\n      pop\n        /* \"#utility.yul\":432:534   */\n      swap2\n      swap1\n      pop\n      jump\t// out\n        /* \"#utility.yul\":540:917   */\n    tag_40:\n        /* \"#utility.yul\":628:631   */\n      0x00\n        /* \"#utility.yul\":656:695   */\n      tag_47\n        /* \"#utility.yul\":689:694   */\n      dup3\n        /* \"#utility.yul\":656:695   */\n      tag_36\n      jump\t// in\n    tag_47:\n        /* \"#utility.yul\":711:782   */\n      tag_48\n        /* \"#utility.yul\":775:781   */\n      dup2\n        /* \"#utility.yul\":770:773   */\n      dup6\n        /* \"#utility.yul\":711:782   */\n      tag_37\n      jump\t// in\n    tag_48:\n        /* \"#utility.yul\":704:782   */\n      swap4\n      pop\n        /* \"#utility.yul\":791:856   */\n      tag_49\n        /* \"#utility.yul\":849:855   */\n      dup2\n        /* \"#utility.yul\":844:847   */\n      dup6\n        /* \"#utility.yul\":837:841   */\n      0x20\n        /* \"#utility.yul\":830:835   */\n      dup7\n        /* \"#utility.yul\":826:842   */\n      add\n        /* \"#utility.yul\":791:856   */\n      tag_38\n      jump\t// in\n    tag_49:\n        /* \"#utility.yul\":881:910   */\n      tag_50\n        /* \"#utility.yul\":903:909   */\n      dup2\n        /* \"#utility.yul\":881:910   */\n      tag_39\n      jump\t// in\n    tag_50:\n        /* \"#utility.yul\":876:879   */\n      dup5\n        /* \"#utility.yul\":872:911   */\n      add\n        /* \"#utility.yul\":865:911   */\n      swap2\n      pop\n        /* \"#utility.yul\":632:917   */\n      pop\n        /* \"#utility.yul\":540:917   */\n      swap3\n      swap2\n      pop\n      pop\n      jump\t// out\n        /* \"#utility.yul\":923:1236   */\n    tag_11:\n        /* \"#utility.yul\":1036:1040   */\n      0x00\n        /* \"#utility.yul\":1074:1076   */\n      0x20\n        /* \"#utility.yul\":1063:1072   */\n      dup3\n        /* \"#utility.yul\":1059:1077   */\n      add\n        /* \"#utility.yul\":1051:1077   */\n      swap1\n      pop\n        /* \"#utility.yul\":1123:1132   */\n      dup2\n        /* \"#utility.yul\":1117:1121   */\n      dup2\n        /* \"#utility.yul\":1113:1133   */\n      sub\n        /* \"#utility.yul\":1109:1110   */\n      0x00\n        /* \"#utility.yul\":1098:1107   */\n      dup4\n        /* \"#utility.yul\":1094:1111   */\n      add\n        /* \"#utility.yul\":1087:1134   */\n      mstore\n        /* \"#utility.yul\":1151:1229   */\n      tag_52\n        /* \"#utility.yul\":1224:1228   */\n      dup2\n        /* \"#utility.yul\":1215:1221   */\n      dup5\n        /* \"#utility.yul\":1151:1229   */\n      tag_40\n      jump\t// in\n    tag_52:\n        /* \"#utility.yul\":1143:1229   */\n      swap1\n      pop\n        /* \"#utility.yul\":923:1236   */\n      swap3\n      swap2\n      pop\n      pop\n      jump\t// out\n\n    auxdata: 0xa264697066735822122005ca67bc6ed7c4115be80ef20f15467296f6db9885aeec97799ce9855cffa2a464736f6c634300081e0033\n}\n",
				"bytecode": {
					"linkReferences": {},
					"object": "6080604052348015600e575f5ffd5b506102d68061001c5f395ff3fe608060405234801561000f575f5ffd5b5060043610610055575f3560e01c806304f4fc12146100595780633a32b549146100775780637b5d520b146100955780638701f8ca146100b3578063974e84a4146100d1575b5f5ffd5b6100616100ef565b60405161006e9190610280565b60405180910390f35b61007f6100fe565b60405161008c9190610280565b60405180910390f35b61009d61013b565b6040516100aa9190610280565b60405180910390f35b6100bb610178565b6040516100c89190610280565b60405180910390f35b6100d9610187565b6040516100e69190610280565b60405180910390f35b60606100f9610196565b905090565b60606040518060400160405280601c81526020017f5468697320697320616e2065787465726e616c2066756e6374696f6e00000000815250905090565b60606040518060400160405280601981526020017f546869732069732061207075626c69632066756e6374696f6e00000000000000815250905090565b6060610182610196565b905090565b60606101916101d3565b905090565b60606040518060400160405280601c81526020017f5468697320697320616e20696e7465726e616c2066756e6374696f6e00000000815250905090565b60606040518060400160405280601a81526020017f54686973206973206120707269766174652066756e6374696f6e000000000000815250905090565b5f81519050919050565b5f82825260208201905092915050565b8281835e5f83830152505050565b5f601f19601f8301169050919050565b5f61025282610210565b61025c818561021a565b935061026c81856020860161022a565b61027581610238565b840191505092915050565b5f6020820190508181035f8301526102988184610248565b90509291505056fea264697066735822122005ca67bc6ed7c4115be80ef20f15467296f6db9885aeec97799ce9855cffa2a464736f6c634300081e0033",
					"opcodes": "PUSH1 0x80 PUSH1 0x40 MSTORE CALLVALUE DUP1 ISZERO PUSH1 0xE JUMPI PUSH0 PUSH0 REVERT JUMPDEST POP PUSH2 0x2D6 DUP1 PUSH2 0x1C PUSH0 CODECOPY PUSH0 RETURN INVALID PUSH1 0x80 PUSH1 0x40 MSTORE CALLVALUE DUP1 ISZERO PUSH2 0xF JUMPI PUSH0 PUSH0 REVERT JUMPDEST POP PUSH1 0x4 CALLDATASIZE LT PUSH2 0x55 JUMPI PUSH0 CALLDATALOAD PUSH1 0xE0 SHR DUP1 PUSH4 0x4F4FC12 EQ PUSH2 0x59 JUMPI DUP1 PUSH4 0x3A32B549 EQ PUSH2 0x77 JUMPI DUP1 PUSH4 0x7B5D520B EQ PUSH2 0x95 JUMPI DUP1 PUSH4 0x8701F8CA EQ PUSH2 0xB3 JUMPI DUP1 PUSH4 0x974E84A4 EQ PUSH2 0xD1 JUMPI JUMPDEST PUSH0 PUSH0 REVERT JUMPDEST PUSH2 0x61 PUSH2 0xEF JUMP JUMPDEST PUSH1 0x40 MLOAD PUSH2 0x6E SWAP2 SWAP1 PUSH2 0x280 JUMP JUMPDEST PUSH1 0x40 MLOAD DUP1 SWAP2 SUB SWAP1 RETURN JUMPDEST PUSH2 0x7F PUSH2 0xFE JUMP JUMPDEST PUSH1 0x40 MLOAD PUSH2 0x8C SWAP2 SWAP1 PUSH2 0x280 JUMP JUMPDEST PUSH1 0x40 MLOAD DUP1 SWAP2 SUB SWAP1 RETURN JUMPDEST PUSH2 0x9D PUSH2 0x13B JUMP JUMPDEST PUSH1 0x40 MLOAD PUSH2 0xAA SWAP2 SWAP1 PUSH2 0x280 JUMP JUMPDEST PUSH1 0x40 MLOAD DUP1 SWAP2 SUB SWAP1 RETURN JUMPDEST PUSH2 0xBB PUSH2 0x178 JUMP JUMPDEST PUSH1 0x40 MLOAD PUSH2 0xC8 SWAP2 SWAP1 PUSH2 0x280 JUMP JUMPDEST PUSH1 0x40 MLOAD DUP1 SWAP2 SUB SWAP1 RETURN JUMPDEST PUSH2 0xD9 PUSH2 0x187 JUMP JUMPDEST PUSH1 0x40 MLOAD PUSH2 0xE6 SWAP2 SWAP1 PUSH2 0x280 JUMP JUMPDEST PUSH1 0x40 MLOAD DUP1 SWAP2 SUB SWAP1 RETURN JUMPDEST PUSH1 0x60 PUSH2 0xF9 PUSH2 0x196 JUMP JUMPDEST SWAP1 POP SWAP1 JUMP JUMPDEST PUSH1 0x60 PUSH1 0x40 MLOAD DUP1 PUSH1 0x40 ADD PUSH1 0x40 MSTORE DUP1 PUSH1 0x1C DUP2 MSTORE PUSH1 0x20 ADD PUSH32 0x5468697320697320616E2065787465726E616C2066756E6374696F6E00000000 DUP2 MSTORE POP SWAP1 POP SWAP1 JUMP JUMPDEST PUSH1 0x60 PUSH1 0x40 MLOAD DUP1 PUSH1 0x40 ADD PUSH1 0x40 MSTORE DUP1 PUSH1 0x19 DUP2 MSTORE PUSH1 0x20 ADD PUSH32 0x546869732069732061207075626C69632066756E6374696F6E00000000000000 DUP2 MSTORE POP SWAP1 POP SWAP1 JUMP JUMPDEST PUSH1 0x60 PUSH2 0x182 PUSH2 0x196 JUMP JUMPDEST SWAP1 POP SWAP1 JUMP JUMPDEST PUSH1 0x60 PUSH2 0x191 PUSH2 0x1D3 JUMP JUMPDEST SWAP1 POP SWAP1 JUMP JUMPDEST PUSH1 0x60 PUSH1 0x40 MLOAD DUP1 PUSH1 0x40 ADD PUSH1 0x40 MSTORE DUP1 PUSH1 0x1C DUP2 MSTORE PUSH1 0x20 ADD PUSH32 0x5468697320697320616E20696E7465726E616C2066756E6374696F6E00000000 DUP2 MSTORE POP SWAP1 POP SWAP1 JUMP JUMPDEST PUSH1 0x60 PUSH1 0x40 MLOAD DUP1 PUSH1 0x40 ADD PUSH1 0x40 MSTORE DUP1 PUSH1 0x1A DUP2 MSTORE PUSH1 0x20 ADD PUSH32 0x54686973206973206120707269766174652066756E6374696F6E000000000000 DUP2 MSTORE POP SWAP1 POP SWAP1 JUMP JUMPDEST PUSH0 DUP2 MLOAD SWAP1 POP SWAP2 SWAP1 POP JUMP JUMPDEST PUSH0 DUP3 DUP3 MSTORE PUSH1 0x20 DUP3 ADD SWAP1 POP SWAP3 SWAP2 POP POP JUMP JUMPDEST DUP3 DUP2 DUP4 MCOPY PUSH0 DUP4 DUP4 ADD MSTORE POP POP POP JUMP JUMPDEST PUSH0 PUSH1 0x1F NOT PUSH1 0x1F DUP4 ADD AND SWAP1 POP SWAP2 SWAP1 POP JUMP JUMPDEST PUSH0 PUSH2 0x252 DUP3 PUSH2 0x210 JUMP JUMPDEST PUSH2 0x25C DUP2 DUP6 PUSH2 0x21A JUMP JUMPDEST SWAP4 POP PUSH2 0x26C DUP2 DUP6 PUSH1 0x20 DUP7 ADD PUSH2 0x22A JUMP JUMPDEST PUSH2 0x275 DUP2 PUSH2 0x238 JUMP JUMPDEST DUP5 ADD SWAP2 POP POP SWAP3 SWAP2 POP POP JUMP JUMPDEST PUSH0 PUSH1 0x20 DUP3 ADD SWAP1 POP DUP2 DUP2 SUB PUSH0 DUP4 ADD MSTORE PUSH2 0x298 DUP2 DUP5 PUSH2 0x248 JUMP JUMPDEST SWAP1 POP SWAP3 SWAP2 POP POP JUMP INVALID LOG2 PUSH5 0x6970667358 0x22 SLT KECCAK256 SDIV 0xCA PUSH8 0xBC6ED7C4115BE80E CALLCODE 0xF ISZERO CHAINID PUSH19 0x96F6DB9885AEEC97799CE9855CFFA2A464736F PUSH13 0x634300081E0033000000000000 "
				},
				"gasEstimates": {
					"creation": {
						"codeDepositCost": "145200",
						"executionCost": "188",
						"totalCost": "145388"
					},
					"external": {
						"callBaseInternalFunction()": "infinite",
						"callInternalFunction()": "infinite",
						"callPrivateFunction()": "infinite",
						"externalFunction()": "infinite",
						"publicFunction()": "infinite"
					}
				},
				"methodIdentifiers": {
					"callBaseInternalFunction()": "04f4fc12",
					"callInternalFunction()": "8701f8ca",
					"callPrivateFunction()": "974e84a4",
					"externalFunction()": "3a32b549",
					"publicFunction()": "7b5d520b"
				}
			},
			"storageLayout": {
				"storage": [],
				"types": null
			},
			"userdoc": {
				"kind": "user",
				"methods": {},
				"version": 1
			}
		}
	}
}