{
	"numsvisibility.sol": {
		"VisibilityExample": {
			"abi": [
				{
					"inputs": [],
					"name": "getInternalVar",
					"outputs": [
						{
							"internalType": "uint256",
							"name": "",
							"type": "uint256"
						}
					],
					"stateMutability": "view",
					"type": "function"
				},
				{
					"inputs": [],
					"name": "getPrivateVar",
					"outputs": [
						{
							"internalType": "uint256",
							"name": "",
							"type": "uint256"
						}
					],
					"stateMutability": "view",
					"type": "function"
				},
				{
					"inputs": [],
					"name": "publicVar",
					"outputs": [
						{
							"internalType": "uint256",
							"name": "",
							"type": "uint256"
						}
					],
					"stateMutability": "view",
					"type": "function"
				}
			],
			"devdoc": {
				"kind": "dev",
				"methods": {},
				"version": 1
			},
			"evm": {
				"assembly": "    /* \"numsvisibility.sol\":677:1334  contract VisibilityExample {... */\n  mstore(0x40, 0x80)\n    /* \"numsvisibility.sol\":811:812  1 */\n  0x01\n    /* \"numsvisibility.sol\":784:812  uint256 public publicVar = 1 */\n  0x00\n  sstore\n    /* \"numsvisibility.sol\":943:944  2 */\n  0x02\n    /* \"numsvisibility.sol\":912:944  uint256 internal internalVar = 2 */\n  0x01\n  sstore\n    /* \"numsvisibility.sol\":1056:1057  3 */\n  0x03\n    /* \"numsvisibility.sol\":1027:1057  uint256 private privateVar = 3 */\n  0x02\n  sstore\n    /* \"numsvisibility.sol\":677:1334  contract VisibilityExample {... */\n  callvalue\n  dup1\n  iszero\n  tag_1\n  jumpi\n  revert(0x00, 0x00)\ntag_1:\n  pop\n  dataSize(sub_0)\n  dup1\n  dataOffset(sub_0)\n  0x00\n  codecopy\n  0x00\n  return\nstop\n\nsub_0: assembly {\n        /* \"numsvisibility.sol\":677:1334  contract VisibilityExample {... */\n      mstore(0x40, 0x80)\n      callvalue\n      dup1\n      iszero\n      tag_1\n      jumpi\n      revert(0x00, 0x00)\n    tag_1:\n      pop\n      jumpi(tag_2, lt(calldatasize, 0x04))\n      shr(0xe0, calldataload(0x00))\n      dup1\n      0x1151fad8\n      eq\n      tag_3\n      jumpi\n      dup1\n      0x47375d2b\n      eq\n      tag_4\n      jumpi\n      dup1\n      0x74d47d20\n      eq\n      tag_5\n      jumpi\n    tag_2:\n      revert(0x00, 0x00)\n        /* \"numsvisibility.sol\":784:812  uint256 public publicVar = 1 */\n    tag_3:\n      tag_6\n      tag_7\n      jump\t// in\n    tag_6:\n      mload(0x40)\n      tag_8\n      swap2\n      swap1\n      tag_9\n      jump\t// in\n    tag_8:\n      mload(0x40)\n      dup1\n      swap2\n      sub\n      swap1\n      return\n        /* \"numsvisibility.sol\":1139:1232  function getInternalVar() public view returns (uint256) {... */\n    tag_4:\n      tag_10\n      tag_11\n      jump\t// in\n    tag_10:\n      mload(0x40)\n      tag_12\n      swap2\n      swap1\n      tag_9\n      jump\t// in\n    tag_12:\n      mload(0x40)\n      dup1\n      swap2\n      sub\n      swap1\n      return\n        /* \"numsvisibility.sol\":1240:1331  function getPrivateVar() public view returns (uint256) {... */\n    tag_5:\n      tag_13\n      tag_14\n      jump\t// in\n    tag_13:\n      mload(0x40)\n      tag_15\n      swap2\n      swap1\n      tag_9\n      jump\t// in\n    tag_15:\n      mload(0x40)\n      dup1\n      swap2\n      sub\n      swap1\n      return\n        /* \"numsvisibility.sol\":784:812  uint256 public publicVar = 1 */\n    tag_7:\n      sload(0x00)\n      dup2\n      jump\t// out\n        /* \"numsvisibility.sol\":1139:1232  function getInternalVar() public view returns (uint256) {... */\n    tag_11:\n        /* \"numsvisibility.sol\":1186:1193  uint256 */\n      0x00\n        /* \"numsvisibility.sol\":1213:1224  internalVar */\n      sload(0x01)\n        /* \"numsvisibility.sol\":1206:1224  return internalVar */\n      swap1\n      pop\n        /* \"numsvisibility.sol\":1139:1232  function getInternalVar() public view returns (uint256) {... */\n      swap1\n      jump\t// out\n        /* \"numsvisibility.sol\":1240:1331  function getPrivateVar() public view returns (uint256) {... */\n    tag_14:\n        /* \"numsvisibility.sol\":1286:1293  uint256 */\n      0x00\n        /* \"numsvisibility.sol\":1313:1323  privateVar */\n      sload(0x02)\n        /* \"numsvisibility.sol\":1306:1323  return privateVar */\n      swap1\n      pop\n        /* \"numsvisibility.sol\":1240:1331  function getPrivateVar() public view returns (uint256) {... */\n      swap1\n      jump\t// out\n        /* \"#utility.yul\":7:84   */\n    tag_18:\n        /* \"#utility.yul\":44:51   */\n      0x00\n        /* \"#utility.yul\":73:78   */\n      dup2\n        /* \"#utility.yul\":62:78   */\n      swap1\n      pop\n        /* \"#utility.yul\":7:84   */\n      swap2\n      swap1\n      pop\n      jump\t// out\n        /* \"#utility.yul\":90:208   */\n    tag_19:\n        /* \"#utility.yul\":177:201   */\n      tag_23\n        /* \"#utility.yul\":195:200   */\n      dup2\n        /* \"#utility.yul\":177:201   */\n      tag_18\n      jump\t// in\n    tag_23:\n        /* \"#utility.yul\":172:175   */\n      dup3\n        /* \"#utility.yul\":165:202   */\n      mstore\n        /* \"#utility.yul\":90:208   */\n      pop\n      pop\n      jump\t// out\n        /* \"#utility.yul\":214:436   */\n    tag_9:\n        /* \"#utility.yul\":307:311   */\n      0x00\n        /* \"#utility.yul\":345:347   */\n      0x20\n        /* \"#utility.yul\":334:343   */\n      dup3\n        /* \"#utility.yul\":330:348   */\n      add\n        /* \"#utility.yul\":322:348   */\n      swap1\n      pop\n        /* \"#utility.yul\":358:429   */\n      tag_25\n        /* \"#utility.yul\":426:427   */\n      0x00\n        /* \"#utility.yul\":415:424   */\n      dup4\n        /* \"#utility.yul\":411:428   */\n      add\n        /* \"#utility.yul\":402:408   */\n      dup5\n        /* \"#utility.yul\":358:429   */\n      tag_19\n      jump\t// in\n    tag_25:\n        /* \"#utility.yul\":214:436   */\n      swap3\n      swap2\n      pop\n      pop\n      jump\t// out\n\n    auxdata: 0xa264697066735822122001146217699176ec3a70cd9adc852eb183a3b8a8aa8af5f44689623c049ea82464736f6c634300081e0033\n}\n",
				"bytecode": {
					"linkReferences": {},
					"object": "608060405260015f5560026001556003600255348015601c575f5ffd5b506101068061002a5f395ff3fe6080604052348015600e575f5ffd5b5060043610603a575f3560e01c80631151fad814603e57806347375d2b14605857806374d47d20146072575b5f5ffd5b6044608c565b604051604f919060b9565b60405180910390f35b605e6091565b6040516069919060b9565b60405180910390f35b6078609a565b6040516083919060b9565b60405180910390f35b5f5481565b5f600154905090565b5f600254905090565b5f819050919050565b60b38160a3565b82525050565b5f60208201905060ca5f83018460ac565b9291505056fea264697066735822122001146217699176ec3a70cd9adc852eb183a3b8a8aa8af5f44689623c049ea82464736f6c634300081e0033",
					"opcodes": "PUSH1 0x80 PUSH1 0x40 MSTORE PUSH1 0x1 PUSH0 SSTORE PUSH1 0x2 PUSH1 0x1 SSTORE PUSH1 0x3 PUSH1 0x2 SSTORE CALLVALUE DUP1 ISZERO PUSH1 0x1C JUMPI PUSH0 PUSH0 REVERT JUMPDEST POP PUSH2 0x106 DUP1 PUSH2 0x2A PUSH0 CODECOPY PUSH0 RETURN INVALID PUSH1 0x80 PUSH1 0x40 MSTORE CALLVALUE DUP1 ISZERO PUSH1 0xE JUMPI PUSH0 PUSH0 REVERT JUMPDEST POP PUSH1 0x4 CALLDATASIZE LT PUSH1 0x3A JUMPI PUSH0 CALLDATALOAD PUSH1 0xE0 SHR DUP1 PUSH4 0x1151FAD8 EQ PUSH1 0x3E JUMPI DUP1 PUSH4 0x47375D2B EQ PUSH1 0x58 JUMPI DUP1 PUSH4 0x74D47D20 EQ PUSH1 0x72 JUMPI JUMPDEST PUSH0 PUSH0 REVERT JUMPDEST PUSH1 0x44 PUSH1 0x8C JUMP JUMPDEST PUSH1 0x40 MLOAD PUSH1 0x4F SWAP2 SWAP1 PUSH1 0xB9 JUMP JUMPDEST PUSH1 0x40 MLOAD DUP1 SWAP2 SUB SWAP1 RETURN JUMPDEST PUSH1 0x5E PUSH1 0x91 JUMP JUMPDEST PUSH1 0x40 MLOAD PUSH1 0x69 SWAP2 SWAP1 PUSH1 0xB9 JUMP JUMPDEST PUSH1 0x40 MLOAD DUP1 SWAP2 SUB SWAP1 RETURN JUMPDEST PUSH1 0x78 PUSH1 0x9A JUMP JUMPDEST PUSH1 0x40 MLOAD PUSH1 0x83 SWAP2 SWAP1 PUSH1 0xB9 JUMP JUMPDEST PUSH1 0x40 MLOAD DUP1 SWAP2 SUB SWAP1 RETURN JUMPDEST PUSH0 SLOAD DUP2 JUMP JUMPDEST PUSH0 PUSH1 0x1 SLOAD SWAP1 POP SWAP1 JUMP JUMPDEST PUSH0 PUSH1 0x2 SLOAD SWAP1 POP SWAP1 JUMP JUMPDEST PUSH0 DUP2 SWAP1 POP SWAP2 SWAP1 POP JUMP JUMPDEST PUSH1 0xB3 DUP2 PUSH1 0xA3 JUMP JUMPDEST DUP3 MSTORE POP POP JUMP JUMPDEST PUSH0 PUSH1 0x20 DUP3 ADD SWAP1 POP PUSH1 0xCA PUSH0 DUP4 ADD DUP5 PUSH1 0xAC JUMP JUMPDEST SWAP3 SWAP2 POP POP JUMP INVALID LOG2 PUSH5 0x6970667358 0x22 SLT KECCAK256 ADD EQ PUSH3 0x176991 PUSH23 0xEC3A70CD9ADC852EB183A3B8A8AA8AF5F44689623C049E 0xA8 0x24 PUSH5 0x736F6C6343 STOP ADDMOD 0x1E STOP CALLER "
				},
				"gasEstimates": {
					"creation": {
						"codeDepositCost": "52400",
						"executionCost": "66420",
						"totalCost": "118820"
					},
					"external": {
						"getInternalVar()": "2432",
						"getPrivateVar()": "2454",
						"publicVar()": "2402"
					}
				},
				"methodIdentifiers": {
					"getInternalVar()": "47375d2b",
					"getPrivateVar()": "74d47d20",
					"publicVar()": "1151fad8"
				}
			},
			"storageLayout": {
				"storage": [
					{
						"astId": 35,
						"contract": "numsvisibility.sol:VisibilityExample",
						"label": "publicVar",
						"offset": 0,
						"slot": "0",
						"type": "t_uint256"
					},
					{
						"astId": 38,
						"contract": "numsvisibility.sol:VisibilityExample",
						"label": "internalVar",
						"offset": 0,
						"slot": "1",
						"type": "t_uint256"
					},
					{
						"astId": 41,
						"contract": "numsvisibility.sol:VisibilityExample",
						"label": "privateVar",
						"offset": 0,
						"slot": "2",
						"type": "t_uint256"
					}
				],
				"types": {
					"t_uint256": {
						"encoding": "inplace",
						"label": "uint256",
						"numberOfBytes": "32"
					}
				}
			},
			"userdoc": {
				"kind": "user",
				"methods": {},
				"version": 1
			}
		}
	}
}