{
	"globVar.sol": {
		"VariableScoping": {
			"abi": [
				{
					"inputs": [],
					"name": "globalVar",
					"outputs": [
						{
							"internalType": "uint256",
							"name": "",
							"type": "uint256"
						}
					],
					"stateMutability": "view",
					"type": "function"
				},
				{
					"inputs": [],
					"name": "variableScoping",
					"outputs": [
						{
							"internalType": "uint256",
							"name": "",
							"type": "uint256"
						},
						{
							"internalType": "uint256",
							"name": "",
							"type": "uint256"
						},
						{
							"internalType": "uint256",
							"name": "",
							"type": "uint256"
						}
					],
					"stateMutability": "view",
					"type": "function"
				}
			],
			"devdoc": {
				"kind": "dev",
				"methods": {},
				"version": 1
			},
			"evm": {
				"assembly": "    /* \"globVar.sol\":60:674  contract VariableScoping {... */\n  mstore(0x40, 0x80)\n    /* \"globVar.sol\":148:151  100 */\n  0x64\n    /* \"globVar.sol\":124:151  uint public globalVar = 100 */\n  0x00\n  sstore\n    /* \"globVar.sol\":60:674  contract VariableScoping {... */\n  callvalue\n  dup1\n  iszero\n  tag_1\n  jumpi\n  revert(0x00, 0x00)\ntag_1:\n  pop\n  dataSize(sub_0)\n  dup1\n  dataOffset(sub_0)\n  0x00\n  codecopy\n  0x00\n  return\nstop\n\nsub_0: assembly {\n        /* \"globVar.sol\":60:674  contract VariableScoping {... */\n      mstore(0x40, 0x80)\n      callvalue\n      dup1\n      iszero\n      tag_1\n      jumpi\n      revert(0x00, 0x00)\n    tag_1:\n      pop\n      jumpi(tag_2, lt(calldatasize, 0x04))\n      shr(0xe0, calldataload(0x00))\n      dup1\n      0x343c3b91\n      eq\n      tag_3\n      jumpi\n      dup1\n      0xf816fd44\n      eq\n      tag_4\n      jumpi\n    tag_2:\n      revert(0x00, 0x00)\n        /* \"globVar.sol\":160:671  function variableScoping() public view returns (uint, uint, uint) {... */\n    tag_3:\n      tag_5\n      tag_6\n      jump\t// in\n    tag_5:\n      mload(0x40)\n      tag_7\n      swap4\n      swap3\n      swap2\n      swap1\n      tag_8\n      jump\t// in\n    tag_7:\n      mload(0x40)\n      dup1\n      swap2\n      sub\n      swap1\n      return\n        /* \"globVar.sol\":124:151  uint public globalVar = 100 */\n    tag_4:\n      tag_9\n      tag_10\n      jump\t// in\n    tag_9:\n      mload(0x40)\n      tag_11\n      swap2\n      swap1\n      tag_12\n      jump\t// in\n    tag_11:\n      mload(0x40)\n      dup1\n      swap2\n      sub\n      swap1\n      return\n        /* \"globVar.sol\":160:671  function variableScoping() public view returns (uint, uint, uint) {... */\n    tag_6:\n        /* \"globVar.sol\":208:212  uint */\n      0x00\n        /* \"globVar.sol\":214:218  uint */\n      0x00\n        /* \"globVar.sol\":220:224  uint */\n      0x00\n        /* \"globVar.sol\":237:249  uint sameBar */\n      0x00\n        /* \"globVar.sol\":252:254  10 */\n      0x0a\n        /* \"globVar.sol\":237:254  uint sameBar = 10 */\n      swap1\n      pop\n        /* \"globVar.sol\":289:302  uint innerVar */\n      0x00\n        /* \"globVar.sol\":313:326  uint outerVar */\n      0x00\n        /* \"globVar.sol\":329:336  sameBar */\n      dup3\n        /* \"globVar.sol\":313:336  uint outerVar = sameBar */\n      swap1\n      pop\n        /* \"globVar.sol\":364:376  uint sameBar */\n      0x00\n        /* \"globVar.sol\":379:380  5 */\n      0x05\n        /* \"globVar.sol\":364:380  uint sameBar = 5 */\n      swap1\n      pop\n        /* \"globVar.sol\":457:464  sameBar */\n      dup1\n        /* \"globVar.sol\":446:464  innerVar = sameBar */\n      swap3\n      pop\n        /* \"globVar.sol\":349:502  {... */\n      pop\n        /* \"globVar.sol\":579:597  uint outerBlockVar */\n      0x00\n        /* \"globVar.sol\":600:607  sameBar */\n      dup4\n        /* \"globVar.sol\":579:607  uint outerBlockVar = sameBar */\n      swap1\n      pop\n        /* \"globVar.sol\":628:637  globalVar */\n      sload(0x00)\n        /* \"globVar.sol\":639:647  innerVar */\n      dup4\n        /* \"globVar.sol\":649:662  outerBlockVar */\n      dup3\n        /* \"globVar.sol\":620:663  return (globalVar, innerVar, outerBlockVar) */\n      swap7\n      pop\n      swap7\n      pop\n      swap7\n      pop\n      pop\n      pop\n      pop\n      pop\n        /* \"globVar.sol\":160:671  function variableScoping() public view returns (uint, uint, uint) {... */\n      swap1\n      swap2\n      swap3\n      jump\t// out\n        /* \"globVar.sol\":124:151  uint public globalVar = 100 */\n    tag_10:\n      sload(0x00)\n      dup2\n      jump\t// out\n        /* \"#utility.yul\":7:84   */\n    tag_14:\n        /* \"#utility.yul\":44:51   */\n      0x00\n        /* \"#utility.yul\":73:78   */\n      dup2\n        /* \"#utility.yul\":62:78   */\n      swap1\n      pop\n        /* \"#utility.yul\":7:84   */\n      swap2\n      swap1\n      pop\n      jump\t// out\n        /* \"#utility.yul\":90:208   */\n    tag_15:\n        /* \"#utility.yul\":177:201   */\n      tag_19\n        /* \"#utility.yul\":195:200   */\n      dup2\n        /* \"#utility.yul\":177:201   */\n      tag_14\n      jump\t// in\n    tag_19:\n        /* \"#utility.yul\":172:175   */\n      dup3\n        /* \"#utility.yul\":165:202   */\n      mstore\n        /* \"#utility.yul\":90:208   */\n      pop\n      pop\n      jump\t// out\n        /* \"#utility.yul\":214:656   */\n    tag_8:\n        /* \"#utility.yul\":363:367   */\n      0x00\n        /* \"#utility.yul\":401:403   */\n      0x60\n        /* \"#utility.yul\":390:399   */\n      dup3\n        /* \"#utility.yul\":386:404   */\n      add\n        /* \"#utility.yul\":378:404   */\n      swap1\n      pop\n        /* \"#utility.yul\":414:485   */\n      tag_21\n        /* \"#utility.yul\":482:483   */\n      0x00\n        /* \"#utility.yul\":471:480   */\n      dup4\n        /* \"#utility.yul\":467:484   */\n      add\n        /* \"#utility.yul\":458:464   */\n      dup7\n        /* \"#utility.yul\":414:485   */\n      tag_15\n      jump\t// in\n    tag_21:\n        /* \"#utility.yul\":495:567   */\n      tag_22\n        /* \"#utility.yul\":563:565   */\n      0x20\n        /* \"#utility.yul\":552:561   */\n      dup4\n        /* \"#utility.yul\":548:566   */\n      add\n        /* \"#utility.yul\":539:545   */\n      dup6\n        /* \"#utility.yul\":495:567   */\n      tag_15\n      jump\t// in\n    tag_22:\n        /* \"#utility.yul\":577:649   */\n      tag_23\n        /* \"#utility.yul\":645:647   */\n      0x40\n        /* \"#utility.yul\":634:643   */\n      dup4\n        /* \"#utility.yul\":630:648   */\n      add\n        /* \"#utility.yul\":621:627   */\n      dup5\n        /* \"#utility.yul\":577:649   */\n      tag_15\n      jump\t// in\n    tag_23:\n        /* \"#utility.yul\":214:656   */\n      swap5\n      swap4\n      pop\n      pop\n      pop\n      pop\n      jump\t// out\n        /* \"#utility.yul\":662:884   */\n    tag_12:\n        /* \"#utility.yul\":755:759   */\n      0x00\n        /* \"#utility.yul\":793:795   */\n      0x20\n        /* \"#utility.yul\":782:791   */\n      dup3\n        /* \"#utility.yul\":778:796   */\n      add\n        /* \"#utility.yul\":770:796   */\n      swap1\n      pop\n        /* \"#utility.yul\":806:877   */\n      tag_25\n        /* \"#utility.yul\":874:875   */\n      0x00\n        /* \"#utility.yul\":863:872   */\n      dup4\n        /* \"#utility.yul\":859:876   */\n      add\n        /* \"#utility.yul\":850:856   */\n      dup5\n        /* \"#utility.yul\":806:877   */\n      tag_15\n      jump\t// in\n    tag_25:\n        /* \"#utility.yul\":662:884   */\n      swap3\n      swap2\n      pop\n      pop\n      jump\t// out\n\n    auxdata: 0xa2646970667358221220be7464794bb26e5e43c74a20860ece3945e318f53c8578affd7365f4840509c764736f6c634300081e0033\n}\n",
				"bytecode": {
					"linkReferences": {},
					"object": "608060405260645f553480156012575f5ffd5b5061012e806100205f395ff3fe6080604052348015600e575f5ffd5b50600436106030575f3560e01c8063343c3b91146034578063f816fd44146050575b5f5ffd5b603a606a565b60405160479392919060b2565b60405180910390f35b60566097565b6040516061919060e1565b60405180910390f35b5f5f5f5f600a90505f5f8290505f60059050809250505f8390505f54838296509650965050505050909192565b5f5481565b5f819050919050565b60ac81609c565b82525050565b5f60608201905060c35f83018660a5565b60ce602083018560a5565b60d9604083018460a5565b949350505050565b5f60208201905060f25f83018460a5565b9291505056fea2646970667358221220be7464794bb26e5e43c74a20860ece3945e318f53c8578affd7365f4840509c764736f6c634300081e0033",
					"opcodes": "PUSH1 0x80 PUSH1 0x40 MSTORE PUSH1 0x64 PUSH0 SSTORE CALLVALUE DUP1 ISZERO PUSH1 0x12 JUMPI PUSH0 PUSH0 REVERT JUMPDEST POP PUSH2 0x12E DUP1 PUSH2 0x20 PUSH0 CODECOPY PUSH0 RETURN INVALID PUSH1 0x80 PUSH1 0x40 MSTORE CALLVALUE DUP1 ISZERO PUSH1 0xE JUMPI PUSH0 PUSH0 REVERT JUMPDEST POP PUSH1 0x4 CALLDATASIZE LT PUSH1 0x30 JUMPI PUSH0 CALLDATALOAD PUSH1 0xE0 SHR DUP1 PUSH4 0x343C3B91 EQ PUSH1 0x34 JUMPI DUP1 PUSH4 0xF816FD44 EQ PUSH1 0x50 JUMPI JUMPDEST PUSH0 PUSH0 REVERT JUMPDEST PUSH1 0x3A PUSH1 0x6A JUMP JUMPDEST PUSH1 0x40 MLOAD PUSH1 0x47 SWAP4 SWAP3 SWAP2 SWAP1 PUSH1 0xB2 JUMP JUMPDEST PUSH1 0x40 MLOAD DUP1 SWAP2 SUB SWAP1 RETURN JUMPDEST PUSH1 0x56 PUSH1 0x97 JUMP JUMPDEST PUSH1 0x40 MLOAD PUSH1 0x61 SWAP2 SWAP1 PUSH1 0xE1 JUMP JUMPDEST PUSH1 0x40 MLOAD DUP1 SWAP2 SUB SWAP1 RETURN JUMPDEST PUSH0 PUSH0 PUSH0 PUSH0 PUSH1 0xA SWAP1 POP PUSH0 PUSH0 DUP3 SWAP1 POP PUSH0 PUSH1 0x5 SWAP1 POP DUP1 SWAP3 POP POP PUSH0 DUP4 SWAP1 POP PUSH0 SLOAD DUP4 DUP3 SWAP7 POP SWAP7 POP SWAP7 POP POP POP POP POP SWAP1 SWAP2 SWAP3 JUMP JUMPDEST PUSH0 SLOAD DUP2 JUMP JUMPDEST PUSH0 DUP2 SWAP1 POP SWAP2 SWAP1 POP JUMP JUMPDEST PUSH1 0xAC DUP2 PUSH1 0x9C JUMP JUMPDEST DUP3 MSTORE POP POP JUMP JUMPDEST PUSH0 PUSH1 0x60 DUP3 ADD SWAP1 POP PUSH1 0xC3 PUSH0 DUP4 ADD DUP7 PUSH1 0xA5 JUMP JUMPDEST PUSH1 0xCE PUSH1 0x20 DUP4 ADD DUP6 PUSH1 0xA5 JUMP JUMPDEST PUSH1 0xD9 PUSH1 0x40 DUP4 ADD DUP5 PUSH1 0xA5 JUMP JUMPDEST SWAP5 SWAP4 POP POP POP POP JUMP JUMPDEST PUSH0 PUSH1 0x20 DUP3 ADD SWAP1 POP PUSH1 0xF2 PUSH0 DUP4 ADD DUP5 PUSH1 0xA5 JUMP JUMPDEST SWAP3 SWAP2 POP POP JUMP INVALID LOG2 PUSH5 0x6970667358 0x22 SLT KECCAK256 0xBE PUSH21 0x64794BB26E5E43C74A20860ECE3945E318F53C8578 0xAF REVERT PUSH20 0x65F4840509C764736F6C634300081E0033000000 "
				},
				"gasEstimates": {
					"creation": {
						"codeDepositCost": "60400",
						"executionCost": "22214",
						"totalCost": "82614"
					},
					"external": {
						"globalVar()": "2424",
						"variableScoping()": "infinite"
					}
				},
				"methodIdentifiers": {
					"globalVar()": "f816fd44",
					"variableScoping()": "343c3b91"
				}
			},
			"storageLayout": {
				"storage": [
					{
						"astId": 4,
						"contract": "globVar.sol:VariableScoping",
						"label": "globalVar",
						"offset": 0,
						"slot": "0",
						"type": "t_uint256"
					}
				],
				"types": {
					"t_uint256": {
						"encoding": "inplace",
						"label": "uint256",
						"numberOfBytes": "32"
					}
				}
			},
			"userdoc": {
				"kind": "user",
				"methods": {},
				"version": 1
			}
		}
	}
}